{
    "schemaVersion": "2.0.0",
    "contractName": "Exchange",
    "compilerOutput": {
        "abi": [
            {
                "constant": true,
                "inputs": [
                    {
                        "name": "",
                        "type": "bytes32"
                    }
                ],
                "name": "filled",
                "outputs": [
                    {
                        "name": "",
                        "type": "uint256"
                    }
                ],
                "payable": false,
                "stateMutability": "view",
                "type": "function"
            },
            {
                "constant": false,
                "inputs": [
                    {
                        "components": [
                            {
                                "name": "makerAddress",
                                "type": "address"
                            },
                            {
                                "name": "takerAddress",
                                "type": "address"
                            },
                            {
                                "name": "feeRecipientAddress",
                                "type": "address"
                            },
                            {
                                "name": "senderAddress",
                                "type": "address"
                            },
                            {
                                "name": "makerAssetAmount",
                                "type": "uint256"
                            },
                            {
                                "name": "takerAssetAmount",
                                "type": "uint256"
                            },
                            {
                                "name": "makerFee",
                                "type": "uint256"
                            },
                            {
                                "name": "takerFee",
                                "type": "uint256"
                            },
                            {
                                "name": "expirationTimeSeconds",
                                "type": "uint256"
                            },
                            {
                                "name": "salt",
                                "type": "uint256"
                            },
                            {
                                "name": "makerAssetData",
                                "type": "bytes"
                            },
                            {
                                "name": "takerAssetData",
                                "type": "bytes"
                            }
                        ],
                        "name": "orders",
                        "type": "tuple[]"
                    },
                    {
                        "name": "takerAssetFillAmounts",
                        "type": "uint256[]"
                    },
                    {
                        "name": "signatures",
                        "type": "bytes[]"
                    }
                ],
                "name": "batchFillOrders",
                "outputs": [
                    {
                        "components": [
                            {
                                "name": "makerAssetFilledAmount",
                                "type": "uint256"
                            },
                            {
                                "name": "takerAssetFilledAmount",
                                "type": "uint256"
                            },
                            {
                                "name": "makerFeePaid",
                                "type": "uint256"
                            },
                            {
                                "name": "takerFeePaid",
                                "type": "uint256"
                            }
                        ],
                        "name": "totalFillResults",
                        "type": "tuple"
                    }
                ],
                "payable": false,
                "stateMutability": "nonpayable",
                "type": "function"
            },
            {
                "constant": true,
                "inputs": [
                    {
                        "name": "",
                        "type": "bytes32"
                    }
                ],
                "name": "cancelled",
                "outputs": [
                    {
                        "name": "",
                        "type": "bool"
                    }
                ],
                "payable": false,
                "stateMutability": "view",
                "type": "function"
            },
            {
                "constant": false,
                "inputs": [
                    {
                        "name": "hash",
                        "type": "bytes32"
                    },
                    {
                        "name": "signerAddress",
                        "type": "address"
                    },
                    {
                        "name": "signature",
                        "type": "bytes"
                    }
                ],
                "name": "preSign",
                "outputs": [],
                "payable": false,
                "stateMutability": "nonpayable",
                "type": "function"
            },
            {
                "constant": false,
                "inputs": [
                    {
                        "components": [
                            {
                                "name": "makerAddress",
                                "type": "address"
                            },
                            {
                                "name": "takerAddress",
                                "type": "address"
                            },
                            {
                                "name": "feeRecipientAddress",
                                "type": "address"
                            },
                            {
                                "name": "senderAddress",
                                "type": "address"
                            },
                            {
                                "name": "makerAssetAmount",
                                "type": "uint256"
                            },
                            {
                                "name": "takerAssetAmount",
                                "type": "uint256"
                            },
                            {
                                "name": "makerFee",
                                "type": "uint256"
                            },
                            {
                                "name": "takerFee",
                                "type": "uint256"
                            },
                            {
                                "name": "expirationTimeSeconds",
                                "type": "uint256"
                            },
                            {
                                "name": "salt",
                                "type": "uint256"
                            },
                            {
                                "name": "makerAssetData",
                                "type": "bytes"
                            },
                            {
                                "name": "takerAssetData",
                                "type": "bytes"
                            }
                        ],
                        "name": "leftOrder",
                        "type": "tuple"
                    },
                    {
                        "components": [
                            {
                                "name": "makerAddress",
                                "type": "address"
                            },
                            {
                                "name": "takerAddress",
                                "type": "address"
                            },
                            {
                                "name": "feeRecipientAddress",
                                "type": "address"
                            },
                            {
                                "name": "senderAddress",
                                "type": "address"
                            },
                            {
                                "name": "makerAssetAmount",
                                "type": "uint256"
                            },
                            {
                                "name": "takerAssetAmount",
                                "type": "uint256"
                            },
                            {
                                "name": "makerFee",
                                "type": "uint256"
                            },
                            {
                                "name": "takerFee",
                                "type": "uint256"
                            },
                            {
                                "name": "expirationTimeSeconds",
                                "type": "uint256"
                            },
                            {
                                "name": "salt",
                                "type": "uint256"
                            },
                            {
                                "name": "makerAssetData",
                                "type": "bytes"
                            },
                            {
                                "name": "takerAssetData",
                                "type": "bytes"
                            }
                        ],
                        "name": "rightOrder",
                        "type": "tuple"
                    },
                    {
                        "name": "leftSignature",
                        "type": "bytes"
                    },
                    {
                        "name": "rightSignature",
                        "type": "bytes"
                    }
                ],
                "name": "matchOrders",
                "outputs": [
                    {
                        "components": [
                            {
                                "components": [
                                    {
                                        "name": "makerAssetFilledAmount",
                                        "type": "uint256"
                                    },
                                    {
                                        "name": "takerAssetFilledAmount",
                                        "type": "uint256"
                                    },
                                    {
                                        "name": "makerFeePaid",
                                        "type": "uint256"
                                    },
                                    {
                                        "name": "takerFeePaid",
                                        "type": "uint256"
                                    }
                                ],
                                "name": "left",
                                "type": "tuple"
                            },
                            {
                                "components": [
                                    {
                                        "name": "makerAssetFilledAmount",
                                        "type": "uint256"
                                    },
                                    {
                                        "name": "takerAssetFilledAmount",
                                        "type": "uint256"
                                    },
                                    {
                                        "name": "makerFeePaid",
                                        "type": "uint256"
                                    },
                                    {
                                        "name": "takerFeePaid",
                                        "type": "uint256"
                                    }
                                ],
                                "name": "right",
                                "type": "tuple"
                            },
                            {
                                "name": "leftMakerAssetSpreadAmount",
                                "type": "uint256"
                            }
                        ],
                        "name": "matchedFillResults",
                        "type": "tuple"
                    }
                ],
                "payable": false,
                "stateMutability": "nonpayable",
                "type": "function"
            },
            {
                "constant": false,
                "inputs": [
                    {
                        "components": [
                            {
                                "name": "makerAddress",
                                "type": "address"
                            },
                            {
                                "name": "takerAddress",
                                "type": "address"
                            },
                            {
                                "name": "feeRecipientAddress",
                                "type": "address"
                            },
                            {
                                "name": "senderAddress",
                                "type": "address"
                            },
                            {
                                "name": "makerAssetAmount",
                                "type": "uint256"
                            },
                            {
                                "name": "takerAssetAmount",
                                "type": "uint256"
                            },
                            {
                                "name": "makerFee",
                                "type": "uint256"
                            },
                            {
                                "name": "takerFee",
                                "type": "uint256"
                            },
                            {
                                "name": "expirationTimeSeconds",
                                "type": "uint256"
                            },
                            {
                                "name": "salt",
                                "type": "uint256"
                            },
                            {
                                "name": "makerAssetData",
                                "type": "bytes"
                            },
                            {
                                "name": "takerAssetData",
                                "type": "bytes"
                            }
                        ],
                        "name": "order",
                        "type": "tuple"
                    },
                    {
                        "name": "takerAssetFillAmount",
                        "type": "uint256"
                    },
                    {
                        "name": "signature",
                        "type": "bytes"
                    }
                ],
                "name": "fillOrderNoThrow",
                "outputs": [
                    {
                        "components": [
                            {
                                "name": "makerAssetFilledAmount",
                                "type": "uint256"
                            },
                            {
                                "name": "takerAssetFilledAmount",
                                "type": "uint256"
                            },
                            {
                                "name": "makerFeePaid",
                                "type": "uint256"
                            },
                            {
                                "name": "takerFeePaid",
                                "type": "uint256"
                            }
                        ],
                        "name": "fillResults",
                        "type": "tuple"
                    }
                ],
                "payable": false,
                "stateMutability": "nonpayable",
                "type": "function"
            },
            {
                "constant": true,
                "inputs": [
                    {
                        "name": "",
                        "type": "bytes4"
                    }
                ],
                "name": "assetProxies",
                "outputs": [
                    {
                        "name": "",
                        "type": "address"
                    }
                ],
                "payable": false,
                "stateMutability": "view",
                "type": "function"
            },
            {
                "constant": false,
                "inputs": [
                    {
                        "components": [
                            {
                                "name": "makerAddress",
                                "type": "address"
                            },
                            {
                                "name": "takerAddress",
                                "type": "address"
                            },
                            {
                                "name": "feeRecipientAddress",
                                "type": "address"
                            },
                            {
                                "name": "senderAddress",
                                "type": "address"
                            },
                            {
                                "name": "makerAssetAmount",
                                "type": "uint256"
                            },
                            {
                                "name": "takerAssetAmount",
                                "type": "uint256"
                            },
                            {
                                "name": "makerFee",
                                "type": "uint256"
                            },
                            {
                                "name": "takerFee",
                                "type": "uint256"
                            },
                            {
                                "name": "expirationTimeSeconds",
                                "type": "uint256"
                            },
                            {
                                "name": "salt",
                                "type": "uint256"
                            },
                            {
                                "name": "makerAssetData",
                                "type": "bytes"
                            },
                            {
                                "name": "takerAssetData",
                                "type": "bytes"
                            }
                        ],
                        "name": "orders",
                        "type": "tuple[]"
                    }
                ],
                "name": "batchCancelOrders",
                "outputs": [],
                "payable": false,
                "stateMutability": "nonpayable",
                "type": "function"
            },
            {
                "constant": false,
                "inputs": [
                    {
                        "components": [
                            {
                                "name": "makerAddress",
                                "type": "address"
                            },
                            {
                                "name": "takerAddress",
                                "type": "address"
                            },
                            {
                                "name": "feeRecipientAddress",
                                "type": "address"
                            },
                            {
                                "name": "senderAddress",
                                "type": "address"
                            },
                            {
                                "name": "makerAssetAmount",
                                "type": "uint256"
                            },
                            {
                                "name": "takerAssetAmount",
                                "type": "uint256"
                            },
                            {
                                "name": "makerFee",
                                "type": "uint256"
                            },
                            {
                                "name": "takerFee",
                                "type": "uint256"
                            },
                            {
                                "name": "expirationTimeSeconds",
                                "type": "uint256"
                            },
                            {
                                "name": "salt",
                                "type": "uint256"
                            },
                            {
                                "name": "makerAssetData",
                                "type": "bytes"
                            },
                            {
                                "name": "takerAssetData",
                                "type": "bytes"
                            }
                        ],
                        "name": "orders",
                        "type": "tuple[]"
                    },
                    {
                        "name": "takerAssetFillAmounts",
                        "type": "uint256[]"
                    },
                    {
                        "name": "signatures",
                        "type": "bytes[]"
                    }
                ],
                "name": "batchFillOrKillOrders",
                "outputs": [
                    {
                        "components": [
                            {
                                "name": "makerAssetFilledAmount",
                                "type": "uint256"
                            },
                            {
                                "name": "takerAssetFilledAmount",
                                "type": "uint256"
                            },
                            {
                                "name": "makerFeePaid",
                                "type": "uint256"
                            },
                            {
                                "name": "takerFeePaid",
                                "type": "uint256"
                            }
                        ],
                        "name": "totalFillResults",
                        "type": "tuple"
                    }
                ],
                "payable": false,
                "stateMutability": "nonpayable",
                "type": "function"
            },
            {
                "constant": false,
                "inputs": [
                    {
                        "name": "targetOrderEpoch",
                        "type": "uint256"
                    }
                ],
                "name": "cancelOrdersUpTo",
                "outputs": [],
                "payable": false,
                "stateMutability": "nonpayable",
                "type": "function"
            },
            {
                "constant": false,
                "inputs": [
                    {
                        "components": [
                            {
                                "name": "makerAddress",
                                "type": "address"
                            },
                            {
                                "name": "takerAddress",
                                "type": "address"
                            },
                            {
                                "name": "feeRecipientAddress",
                                "type": "address"
                            },
                            {
                                "name": "senderAddress",
                                "type": "address"
                            },
                            {
                                "name": "makerAssetAmount",
                                "type": "uint256"
                            },
                            {
                                "name": "takerAssetAmount",
                                "type": "uint256"
                            },
                            {
                                "name": "makerFee",
                                "type": "uint256"
                            },
                            {
                                "name": "takerFee",
                                "type": "uint256"
                            },
                            {
                                "name": "expirationTimeSeconds",
                                "type": "uint256"
                            },
                            {
                                "name": "salt",
                                "type": "uint256"
                            },
                            {
                                "name": "makerAssetData",
                                "type": "bytes"
                            },
                            {
                                "name": "takerAssetData",
                                "type": "bytes"
                            }
                        ],
                        "name": "orders",
                        "type": "tuple[]"
                    },
                    {
                        "name": "takerAssetFillAmounts",
                        "type": "uint256[]"
                    },
                    {
                        "name": "signatures",
                        "type": "bytes[]"
                    }
                ],
                "name": "batchFillOrdersNoThrow",
                "outputs": [
                    {
                        "components": [
                            {
                                "name": "makerAssetFilledAmount",
                                "type": "uint256"
                            },
                            {
                                "name": "takerAssetFilledAmount",
                                "type": "uint256"
                            },
                            {
                                "name": "makerFeePaid",
                                "type": "uint256"
                            },
                            {
                                "name": "takerFeePaid",
                                "type": "uint256"
                            }
                        ],
                        "name": "totalFillResults",
                        "type": "tuple"
                    }
                ],
                "payable": false,
                "stateMutability": "nonpayable",
                "type": "function"
            },
            {
                "constant": true,
                "inputs": [
                    {
                        "name": "assetProxyId",
                        "type": "bytes4"
                    }
                ],
                "name": "getAssetProxy",
                "outputs": [
                    {
                        "name": "",
                        "type": "address"
                    }
                ],
                "payable": false,
                "stateMutability": "view",
                "type": "function"
            },
            {
                "constant": true,
                "inputs": [
                    {
                        "name": "",
                        "type": "bytes32"
                    }
                ],
                "name": "transactions",
                "outputs": [
                    {
                        "name": "",
                        "type": "bool"
                    }
                ],
                "payable": false,
                "stateMutability": "view",
                "type": "function"
            },
            {
                "constant": false,
                "inputs": [
                    {
                        "components": [
                            {
                                "name": "makerAddress",
                                "type": "address"
                            },
                            {
                                "name": "takerAddress",
                                "type": "address"
                            },
                            {
                                "name": "feeRecipientAddress",
                                "type": "address"
                            },
                            {
                                "name": "senderAddress",
                                "type": "address"
                            },
                            {
                                "name": "makerAssetAmount",
                                "type": "uint256"
                            },
                            {
                                "name": "takerAssetAmount",
                                "type": "uint256"
                            },
                            {
                                "name": "makerFee",
                                "type": "uint256"
                            },
                            {
                                "name": "takerFee",
                                "type": "uint256"
                            },
                            {
                                "name": "expirationTimeSeconds",
                                "type": "uint256"
                            },
                            {
                                "name": "salt",
                                "type": "uint256"
                            },
                            {
                                "name": "makerAssetData",
                                "type": "bytes"
                            },
                            {
                                "name": "takerAssetData",
                                "type": "bytes"
                            }
                        ],
                        "name": "order",
                        "type": "tuple"
                    },
                    {
                        "name": "takerAssetFillAmount",
                        "type": "uint256"
                    },
                    {
                        "name": "signature",
                        "type": "bytes"
                    }
                ],
                "name": "fillOrKillOrder",
                "outputs": [
                    {
                        "components": [
                            {
                                "name": "makerAssetFilledAmount",
                                "type": "uint256"
                            },
                            {
                                "name": "takerAssetFilledAmount",
                                "type": "uint256"
                            },
                            {
                                "name": "makerFeePaid",
                                "type": "uint256"
                            },
                            {
                                "name": "takerFeePaid",
                                "type": "uint256"
                            }
                        ],
                        "name": "fillResults",
                        "type": "tuple"
                    }
                ],
                "payable": false,
                "stateMutability": "nonpayable",
                "type": "function"
            },
            {
                "constant": false,
                "inputs": [
                    {
                        "name": "validatorAddress",
                        "type": "address"
                    },
                    {
                        "name": "approval",
                        "type": "bool"
                    }
                ],
                "name": "setSignatureValidatorApproval",
                "outputs": [],
                "payable": false,
                "stateMutability": "nonpayable",
                "type": "function"
            },
            {
                "constant": true,
                "inputs": [
                    {
                        "name": "",
                        "type": "address"
                    },
                    {
                        "name": "",
                        "type": "address"
                    }
                ],
                "name": "allowedValidators",
                "outputs": [
                    {
                        "name": "",
                        "type": "bool"
                    }
                ],
                "payable": false,
                "stateMutability": "view",
                "type": "function"
            },
            {
                "constant": false,
                "inputs": [
                    {
                        "components": [
                            {
                                "name": "makerAddress",
                                "type": "address"
                            },
                            {
                                "name": "takerAddress",
                                "type": "address"
                            },
                            {
                                "name": "feeRecipientAddress",
                                "type": "address"
                            },
                            {
                                "name": "senderAddress",
                                "type": "address"
                            },
                            {
                                "name": "makerAssetAmount",
                                "type": "uint256"
                            },
                            {
                                "name": "takerAssetAmount",
                                "type": "uint256"
                            },
                            {
                                "name": "makerFee",
                                "type": "uint256"
                            },
                            {
                                "name": "takerFee",
                                "type": "uint256"
                            },
                            {
                                "name": "expirationTimeSeconds",
                                "type": "uint256"
                            },
                            {
                                "name": "salt",
                                "type": "uint256"
                            },
                            {
                                "name": "makerAssetData",
                                "type": "bytes"
                            },
                            {
                                "name": "takerAssetData",
                                "type": "bytes"
                            }
                        ],
                        "name": "orders",
                        "type": "tuple[]"
                    },
                    {
                        "name": "takerAssetFillAmount",
                        "type": "uint256"
                    },
                    {
                        "name": "signatures",
                        "type": "bytes[]"
                    }
                ],
                "name": "marketSellOrders",
                "outputs": [
                    {
                        "components": [
                            {
                                "name": "makerAssetFilledAmount",
                                "type": "uint256"
                            },
                            {
                                "name": "takerAssetFilledAmount",
                                "type": "uint256"
                            },
                            {
                                "name": "makerFeePaid",
                                "type": "uint256"
                            },
                            {
                                "name": "takerFeePaid",
                                "type": "uint256"
                            }
                        ],
                        "name": "totalFillResults",
                        "type": "tuple"
                    }
                ],
                "payable": false,
                "stateMutability": "nonpayable",
                "type": "function"
            },
            {
                "constant": true,
                "inputs": [
                    {
                        "components": [
                            {
                                "name": "makerAddress",
                                "type": "address"
                            },
                            {
                                "name": "takerAddress",
                                "type": "address"
                            },
                            {
                                "name": "feeRecipientAddress",
                                "type": "address"
                            },
                            {
                                "name": "senderAddress",
                                "type": "address"
                            },
                            {
                                "name": "makerAssetAmount",
                                "type": "uint256"
                            },
                            {
                                "name": "takerAssetAmount",
                                "type": "uint256"
                            },
                            {
                                "name": "makerFee",
                                "type": "uint256"
                            },
                            {
                                "name": "takerFee",
                                "type": "uint256"
                            },
                            {
                                "name": "expirationTimeSeconds",
                                "type": "uint256"
                            },
                            {
                                "name": "salt",
                                "type": "uint256"
                            },
                            {
                                "name": "makerAssetData",
                                "type": "bytes"
                            },
                            {
                                "name": "takerAssetData",
                                "type": "bytes"
                            }
                        ],
                        "name": "orders",
                        "type": "tuple[]"
                    }
                ],
                "name": "getOrdersInfo",
                "outputs": [
                    {
                        "components": [
                            {
                                "name": "orderStatus",
                                "type": "uint8"
                            },
                            {
                                "name": "orderHash",
                                "type": "bytes32"
                            },
                            {
                                "name": "orderTakerAssetFilledAmount",
                                "type": "uint256"
                            }
                        ],
                        "name": "",
                        "type": "tuple[]"
                    }
                ],
                "payable": false,
                "stateMutability": "view",
                "type": "function"
            },
            {
                "constant": true,
                "inputs": [
                    {
                        "name": "",
                        "type": "bytes32"
                    },
                    {
                        "name": "",
                        "type": "address"
                    }
                ],
                "name": "preSigned",
                "outputs": [
                    {
                        "name": "",
                        "type": "bool"
                    }
                ],
                "payable": false,
                "stateMutability": "view",
                "type": "function"
            },
            {
                "constant": true,
                "inputs": [],
                "name": "owner",
                "outputs": [
                    {
                        "name": "",
                        "type": "address"
                    }
                ],
                "payable": false,
                "stateMutability": "view",
                "type": "function"
            },
            {
                "constant": true,
                "inputs": [
                    {
                        "name": "hash",
                        "type": "bytes32"
                    },
                    {
                        "name": "signerAddress",
                        "type": "address"
                    },
                    {
                        "name": "signature",
                        "type": "bytes"
                    }
                ],
                "name": "isValidSignature",
                "outputs": [
                    {
                        "name": "isValid",
                        "type": "bool"
                    }
                ],
                "payable": false,
                "stateMutability": "view",
                "type": "function"
            },
            {
                "constant": false,
                "inputs": [
                    {
                        "components": [
                            {
                                "name": "makerAddress",
                                "type": "address"
                            },
                            {
                                "name": "takerAddress",
                                "type": "address"
                            },
                            {
                                "name": "feeRecipientAddress",
                                "type": "address"
                            },
                            {
                                "name": "senderAddress",
                                "type": "address"
                            },
                            {
                                "name": "makerAssetAmount",
                                "type": "uint256"
                            },
                            {
                                "name": "takerAssetAmount",
                                "type": "uint256"
                            },
                            {
                                "name": "makerFee",
                                "type": "uint256"
                            },
                            {
                                "name": "takerFee",
                                "type": "uint256"
                            },
                            {
                                "name": "expirationTimeSeconds",
                                "type": "uint256"
                            },
                            {
                                "name": "salt",
                                "type": "uint256"
                            },
                            {
                                "name": "makerAssetData",
                                "type": "bytes"
                            },
                            {
                                "name": "takerAssetData",
                                "type": "bytes"
                            }
                        ],
                        "name": "orders",
                        "type": "tuple[]"
                    },
                    {
                        "name": "makerAssetFillAmount",
                        "type": "uint256"
                    },
                    {
                        "name": "signatures",
                        "type": "bytes[]"
                    }
                ],
                "name": "marketBuyOrdersNoThrow",
                "outputs": [
                    {
                        "components": [
                            {
                                "name": "makerAssetFilledAmount",
                                "type": "uint256"
                            },
                            {
                                "name": "takerAssetFilledAmount",
                                "type": "uint256"
                            },
                            {
                                "name": "makerFeePaid",
                                "type": "uint256"
                            },
                            {
                                "name": "takerFeePaid",
                                "type": "uint256"
                            }
                        ],
                        "name": "totalFillResults",
                        "type": "tuple"
                    }
                ],
                "payable": false,
                "stateMutability": "nonpayable",
                "type": "function"
            },
            {
                "constant": false,
                "inputs": [
                    {
                        "components": [
                            {
                                "name": "makerAddress",
                                "type": "address"
                            },
                            {
                                "name": "takerAddress",
                                "type": "address"
                            },
                            {
                                "name": "feeRecipientAddress",
                                "type": "address"
                            },
                            {
                                "name": "senderAddress",
                                "type": "address"
                            },
                            {
                                "name": "makerAssetAmount",
                                "type": "uint256"
                            },
                            {
                                "name": "takerAssetAmount",
                                "type": "uint256"
                            },
                            {
                                "name": "makerFee",
                                "type": "uint256"
                            },
                            {
                                "name": "takerFee",
                                "type": "uint256"
                            },
                            {
                                "name": "expirationTimeSeconds",
                                "type": "uint256"
                            },
                            {
                                "name": "salt",
                                "type": "uint256"
                            },
                            {
                                "name": "makerAssetData",
                                "type": "bytes"
                            },
                            {
                                "name": "takerAssetData",
                                "type": "bytes"
                            }
                        ],
                        "name": "order",
                        "type": "tuple"
                    },
                    {
                        "name": "takerAssetFillAmount",
                        "type": "uint256"
                    },
                    {
                        "name": "signature",
                        "type": "bytes"
                    }
                ],
                "name": "fillOrder",
                "outputs": [
                    {
                        "components": [
                            {
                                "name": "makerAssetFilledAmount",
                                "type": "uint256"
                            },
                            {
                                "name": "takerAssetFilledAmount",
                                "type": "uint256"
                            },
                            {
                                "name": "makerFeePaid",
                                "type": "uint256"
                            },
                            {
                                "name": "takerFeePaid",
                                "type": "uint256"
                            }
                        ],
                        "name": "fillResults",
                        "type": "tuple"
                    }
                ],
                "payable": false,
                "stateMutability": "nonpayable",
                "type": "function"
            },
            {
                "constant": false,
                "inputs": [
                    {
                        "name": "salt",
                        "type": "uint256"
                    },
                    {
                        "name": "signerAddress",
                        "type": "address"
                    },
                    {
                        "name": "data",
                        "type": "bytes"
                    },
                    {
                        "name": "signature",
                        "type": "bytes"
                    }
                ],
                "name": "executeTransaction",
                "outputs": [],
                "payable": false,
                "stateMutability": "nonpayable",
                "type": "function"
            },
            {
                "constant": false,
                "inputs": [
                    {
                        "name": "assetProxy",
                        "type": "address"
                    }
                ],
                "name": "registerAssetProxy",
                "outputs": [],
                "payable": false,
                "stateMutability": "nonpayable",
                "type": "function"
            },
            {
                "constant": true,
                "inputs": [
                    {
                        "components": [
                            {
                                "name": "makerAddress",
                                "type": "address"
                            },
                            {
                                "name": "takerAddress",
                                "type": "address"
                            },
                            {
                                "name": "feeRecipientAddress",
                                "type": "address"
                            },
                            {
                                "name": "senderAddress",
                                "type": "address"
                            },
                            {
                                "name": "makerAssetAmount",
                                "type": "uint256"
                            },
                            {
                                "name": "takerAssetAmount",
                                "type": "uint256"
                            },
                            {
                                "name": "makerFee",
                                "type": "uint256"
                            },
                            {
                                "name": "takerFee",
                                "type": "uint256"
                            },
                            {
                                "name": "expirationTimeSeconds",
                                "type": "uint256"
                            },
                            {
                                "name": "salt",
                                "type": "uint256"
                            },
                            {
                                "name": "makerAssetData",
                                "type": "bytes"
                            },
                            {
                                "name": "takerAssetData",
                                "type": "bytes"
                            }
                        ],
                        "name": "order",
                        "type": "tuple"
                    }
                ],
                "name": "getOrderInfo",
                "outputs": [
                    {
                        "components": [
                            {
                                "name": "orderStatus",
                                "type": "uint8"
                            },
                            {
                                "name": "orderHash",
                                "type": "bytes32"
                            },
                            {
                                "name": "orderTakerAssetFilledAmount",
                                "type": "uint256"
                            }
                        ],
                        "name": "orderInfo",
                        "type": "tuple"
                    }
                ],
                "payable": false,
                "stateMutability": "view",
                "type": "function"
            },
            {
                "constant": false,
                "inputs": [
                    {
                        "components": [
                            {
                                "name": "makerAddress",
                                "type": "address"
                            },
                            {
                                "name": "takerAddress",
                                "type": "address"
                            },
                            {
                                "name": "feeRecipientAddress",
                                "type": "address"
                            },
                            {
                                "name": "senderAddress",
                                "type": "address"
                            },
                            {
                                "name": "makerAssetAmount",
                                "type": "uint256"
                            },
                            {
                                "name": "takerAssetAmount",
                                "type": "uint256"
                            },
                            {
                                "name": "makerFee",
                                "type": "uint256"
                            },
                            {
                                "name": "takerFee",
                                "type": "uint256"
                            },
                            {
                                "name": "expirationTimeSeconds",
                                "type": "uint256"
                            },
                            {
                                "name": "salt",
                                "type": "uint256"
                            },
                            {
                                "name": "makerAssetData",
                                "type": "bytes"
                            },
                            {
                                "name": "takerAssetData",
                                "type": "bytes"
                            }
                        ],
                        "name": "order",
                        "type": "tuple"
                    }
                ],
                "name": "cancelOrder",
                "outputs": [],
                "payable": false,
                "stateMutability": "nonpayable",
                "type": "function"
            },
            {
                "constant": true,
                "inputs": [
                    {
                        "name": "",
                        "type": "address"
                    },
                    {
                        "name": "",
                        "type": "address"
                    }
                ],
                "name": "orderEpoch",
                "outputs": [
                    {
                        "name": "",
                        "type": "uint256"
                    }
                ],
                "payable": false,
                "stateMutability": "view",
                "type": "function"
            },
            {
                "constant": true,
                "inputs": [],
                "name": "ZRX_ASSET_DATA",
                "outputs": [
                    {
                        "name": "",
                        "type": "bytes"
                    }
                ],
                "payable": false,
                "stateMutability": "view",
                "type": "function"
            },
            {
                "constant": false,
                "inputs": [
                    {
                        "components": [
                            {
                                "name": "makerAddress",
                                "type": "address"
                            },
                            {
                                "name": "takerAddress",
                                "type": "address"
                            },
                            {
                                "name": "feeRecipientAddress",
                                "type": "address"
                            },
                            {
                                "name": "senderAddress",
                                "type": "address"
                            },
                            {
                                "name": "makerAssetAmount",
                                "type": "uint256"
                            },
                            {
                                "name": "takerAssetAmount",
                                "type": "uint256"
                            },
                            {
                                "name": "makerFee",
                                "type": "uint256"
                            },
                            {
                                "name": "takerFee",
                                "type": "uint256"
                            },
                            {
                                "name": "expirationTimeSeconds",
                                "type": "uint256"
                            },
                            {
                                "name": "salt",
                                "type": "uint256"
                            },
                            {
                                "name": "makerAssetData",
                                "type": "bytes"
                            },
                            {
                                "name": "takerAssetData",
                                "type": "bytes"
                            }
                        ],
                        "name": "orders",
                        "type": "tuple[]"
                    },
                    {
                        "name": "takerAssetFillAmount",
                        "type": "uint256"
                    },
                    {
                        "name": "signatures",
                        "type": "bytes[]"
                    }
                ],
                "name": "marketSellOrdersNoThrow",
                "outputs": [
                    {
                        "components": [
                            {
                                "name": "makerAssetFilledAmount",
                                "type": "uint256"
                            },
                            {
                                "name": "takerAssetFilledAmount",
                                "type": "uint256"
                            },
                            {
                                "name": "makerFeePaid",
                                "type": "uint256"
                            },
                            {
                                "name": "takerFeePaid",
                                "type": "uint256"
                            }
                        ],
                        "name": "totalFillResults",
                        "type": "tuple"
                    }
                ],
                "payable": false,
                "stateMutability": "nonpayable",
                "type": "function"
            },
            {
                "constant": true,
                "inputs": [],
                "name": "EIP712_DOMAIN_HASH",
                "outputs": [
                    {
                        "name": "",
                        "type": "bytes32"
                    }
                ],
                "payable": false,
                "stateMutability": "view",
                "type": "function"
            },
            {
                "constant": false,
                "inputs": [
                    {
                        "components": [
                            {
                                "name": "makerAddress",
                                "type": "address"
                            },
                            {
                                "name": "takerAddress",
                                "type": "address"
                            },
                            {
                                "name": "feeRecipientAddress",
                                "type": "address"
                            },
                            {
                                "name": "senderAddress",
                                "type": "address"
                            },
                            {
                                "name": "makerAssetAmount",
                                "type": "uint256"
                            },
                            {
                                "name": "takerAssetAmount",
                                "type": "uint256"
                            },
                            {
                                "name": "makerFee",
                                "type": "uint256"
                            },
                            {
                                "name": "takerFee",
                                "type": "uint256"
                            },
                            {
                                "name": "expirationTimeSeconds",
                                "type": "uint256"
                            },
                            {
                                "name": "salt",
                                "type": "uint256"
                            },
                            {
                                "name": "makerAssetData",
                                "type": "bytes"
                            },
                            {
                                "name": "takerAssetData",
                                "type": "bytes"
                            }
                        ],
                        "name": "orders",
                        "type": "tuple[]"
                    },
                    {
                        "name": "makerAssetFillAmount",
                        "type": "uint256"
                    },
                    {
                        "name": "signatures",
                        "type": "bytes[]"
                    }
                ],
                "name": "marketBuyOrders",
                "outputs": [
                    {
                        "components": [
                            {
                                "name": "makerAssetFilledAmount",
                                "type": "uint256"
                            },
                            {
                                "name": "takerAssetFilledAmount",
                                "type": "uint256"
                            },
                            {
                                "name": "makerFeePaid",
                                "type": "uint256"
                            },
                            {
                                "name": "takerFeePaid",
                                "type": "uint256"
                            }
                        ],
                        "name": "totalFillResults",
                        "type": "tuple"
                    }
                ],
                "payable": false,
                "stateMutability": "nonpayable",
                "type": "function"
            },
            {
                "constant": true,
                "inputs": [],
                "name": "currentContextAddress",
                "outputs": [
                    {
                        "name": "",
                        "type": "address"
                    }
                ],
                "payable": false,
                "stateMutability": "view",
                "type": "function"
            },
            {
                "constant": false,
                "inputs": [
                    {
                        "name": "newOwner",
                        "type": "address"
                    }
                ],
                "name": "transferOwnership",
                "outputs": [],
                "payable": false,
                "stateMutability": "nonpayable",
                "type": "function"
            },
            {
                "constant": true,
                "inputs": [],
                "name": "VERSION",
                "outputs": [
                    {
                        "name": "",
                        "type": "string"
                    }
                ],
                "payable": false,
                "stateMutability": "view",
                "type": "function"
            },
            {
                "inputs": [],
                "payable": false,
                "stateMutability": "nonpayable",
                "type": "constructor"
            },
            {
                "anonymous": false,
                "inputs": [
                    {
                        "indexed": true,
                        "name": "signerAddress",
                        "type": "address"
                    },
                    {
                        "indexed": true,
                        "name": "validatorAddress",
                        "type": "address"
                    },
                    {
                        "indexed": false,
                        "name": "approved",
                        "type": "bool"
                    }
                ],
                "name": "SignatureValidatorApproval",
                "type": "event"
            },
            {
                "anonymous": false,
                "inputs": [
                    {
                        "indexed": true,
                        "name": "makerAddress",
                        "type": "address"
                    },
                    {
                        "indexed": true,
                        "name": "feeRecipientAddress",
                        "type": "address"
                    },
                    {
                        "indexed": false,
                        "name": "takerAddress",
                        "type": "address"
                    },
                    {
                        "indexed": false,
                        "name": "senderAddress",
                        "type": "address"
                    },
                    {
                        "indexed": false,
                        "name": "makerAssetFilledAmount",
                        "type": "uint256"
                    },
                    {
                        "indexed": false,
                        "name": "takerAssetFilledAmount",
                        "type": "uint256"
                    },
                    {
                        "indexed": false,
                        "name": "makerFeePaid",
                        "type": "uint256"
                    },
                    {
                        "indexed": false,
                        "name": "takerFeePaid",
                        "type": "uint256"
                    },
                    {
                        "indexed": true,
                        "name": "orderHash",
                        "type": "bytes32"
                    },
                    {
                        "indexed": false,
                        "name": "makerAssetData",
                        "type": "bytes"
                    },
                    {
                        "indexed": false,
                        "name": "takerAssetData",
                        "type": "bytes"
                    }
                ],
                "name": "Fill",
                "type": "event"
            },
            {
                "anonymous": false,
                "inputs": [
                    {
                        "indexed": true,
                        "name": "makerAddress",
                        "type": "address"
                    },
                    {
                        "indexed": true,
                        "name": "feeRecipientAddress",
                        "type": "address"
                    },
                    {
                        "indexed": false,
                        "name": "senderAddress",
                        "type": "address"
                    },
                    {
                        "indexed": true,
                        "name": "orderHash",
                        "type": "bytes32"
                    },
                    {
                        "indexed": false,
                        "name": "makerAssetData",
                        "type": "bytes"
                    },
                    {
                        "indexed": false,
                        "name": "takerAssetData",
                        "type": "bytes"
                    }
                ],
                "name": "Cancel",
                "type": "event"
            },
            {
                "anonymous": false,
                "inputs": [
                    {
                        "indexed": true,
                        "name": "makerAddress",
                        "type": "address"
                    },
                    {
                        "indexed": true,
                        "name": "senderAddress",
                        "type": "address"
                    },
                    {
                        "indexed": false,
                        "name": "orderEpoch",
                        "type": "uint256"
                    }
                ],
                "name": "CancelUpTo",
                "type": "event"
            },
            {
                "anonymous": false,
                "inputs": [
                    {
                        "indexed": false,
                        "name": "id",
                        "type": "bytes4"
                    },
                    {
                        "indexed": false,
                        "name": "assetProxy",
                        "type": "address"
                    }
                ],
                "name": "AssetProxyRegistered",
                "type": "event"
            }
        ],
        "evm": {
            "bytecode": {
                "linkReferences": {},
                "object": "0x60806040526000805460ff191690553480156200001b57600080fd5b50604080517f454950373132446f6d61696e28000000000000000000000000000000000000006020808301919091527f737472696e67206e616d652c0000000000000000000000000000000000000000602d8301527f737472696e672076657273696f6e2c000000000000000000000000000000000060398301527f6164647265737320766572696679696e67436f6e74726163740000000000000060488301527f2900000000000000000000000000000000000000000000000000000000000000606183015282516042818403018152606290920192839052815191929182918401908083835b60208310620001245780518252601f19909201916020918201910162000103565b51815160209384036101000a6000190180199092169116179052604080519290940182900382208285018552600b8084527f30782050726f746f636f6c000000000000000000000000000000000000000000928401928352945190965091945090928392508083835b60208310620001ae5780518252601f1990920191602091820191016200018d565b51815160209384036101000a600019018019909216911617905260408051929094018290038220828501855260018084527f3200000000000000000000000000000000000000000000000000000000000000928401928352945190965091945090928392508083835b60208310620002385780518252601f19909201916020918201910162000217565b51815160209384036101000a6000190180199092169116179052604080519290940182900382208282019890985281840196909652606081019690965250306080808701919091528151808703909101815260a09095019081905284519093849350850191508083835b60208310620002c35780518252601f199092019160209182019101620002a2565b5181516000196020949094036101000a939093019283169219169190911790526040519201829003909120600155505060028054600160a060020a031916331790555061581280620003166000396000f3006080604052600436106101b65763ffffffff7c0100000000000000000000000000000000000000000000000000000000600035041663288cdc9181146101bb578063297bb70b146101f15780632ac126221461021e5780633683ef8e1461024b5780633c28d8611461026d5780633e228bae1461029a5780633fd3c997146102ba5780634ac14782146102e75780634d0ae546146103075780634f9559b11461032757806350dde190146103475780636070410814610367578063642f2eaf1461039457806364a3bc15146103b457806377fcce68146103d45780637b8e3514146103f45780637e1d9808146104145780637e9d74dc1461043457806382c174d0146104615780638da5cb5b146104815780639363470214610496578063a3e20380146104b6578063b4be83d5146104d6578063bfc8bfce146104f6578063c585bb9314610516578063c75e0a8114610536578063d46b02c314610563578063d9bfa73e14610583578063db123b1a146105a3578063dd1c7d18146105c5578063e306f779146105e5578063e5fa431b146105fa578063eea086ba1461061a578063f2fde38b1461062f578063ffa1ad741461064f575b600080fd5b3480156101c757600080fd5b506101db6101d636600461475f565b610664565b6040516101e89190615384565b60405180910390f35b3480156101fd57600080fd5b5061021161020c366004614682565b610676565b6040516101e8919061565e565b34801561022a57600080fd5b5061023e61023936600461475f565b6107a1565b6040516101e89190615376565b34801561025757600080fd5b5061026b61026636600461479c565b6107b6565b005b34801561027957600080fd5b5061028d6102883660046148d0565b6108a3565b6040516101e8919061566c565b3480156102a657600080fd5b506102116102b5366004614990565b610a3a565b3480156102c657600080fd5b506102da6102d536600461485f565b610a90565b6040516101e89190615440565b3480156102f357600080fd5b5061026b61030236600461464d565b610ab8565b34801561031357600080fd5b50610211610322366004614682565b610af1565b34801561033357600080fd5b5061026b61034236600461475f565b610be1565b34801561035357600080fd5b50610211610362366004614682565b610d96565b34801561037357600080fd5b5061038761038236600461485f565b610e2a565b6040516101e89190615296565b3480156103a057600080fd5b5061023e6103af36600461475f565b610e78565b3480156103c057600080fd5b506102116103cf366004614990565b610e8d565b3480156103e057600080fd5b5061026b6103ef36600461461d565b610f38565b34801561040057600080fd5b5061023e61040f3660046145e3565b611072565b34801561042057600080fd5b5061021161042f366004614716565b611092565b34801561044057600080fd5b5061045461044f36600461464d565b6111f6565b6040516101e89190615365565b34801561046d57600080fd5b5061023e61047c36600461477d565b61128b565b34801561048d57600080fd5b506103876112ab565b3480156104a257600080fd5b5061023e6104b1366004614804565b6112c7565b3480156104c257600080fd5b506102116104d1366004614716565b61184a565b3480156104e257600080fd5b506102116104f1366004614990565b61195d565b34801561050257600080fd5b5061026b6105113660046149d9565b6119d8565b34801561052257600080fd5b5061026b6105313660046145c5565b611c71565b34801561054257600080fd5b5061055661055136600461489b565b611e9c565b6040516101e8919061567b565b34801561056f57600080fd5b5061026b61057e36600461489b565b611f96565b34801561058f57600080fd5b506101db61059e3660046145e3565b612055565b3480156105af57600080fd5b506105b8612072565b6040516101e8919061542f565b3480156105d157600080fd5b506102116105e0366004614716565b6120d2565b3480156105f157600080fd5b506101db6121a7565b34801561060657600080fd5b50610211610615366004614716565b6121ad565b34801561062657600080fd5b5061038761231f565b34801561063b57600080fd5b5061026b61064a3660046145c5565b61233b565b34801561065b57600080fd5b506105b86123ec565b60036020526000908152604090205481565b61067e6141f7565b6000806106896141f7565b60005460ff16156106cf576040517f08c379a00000000000000000000000000000000000000000000000000000000081526004016106c6906155de565b60405180910390fd5b600080547fffffffffffffffffffffffffffffffffffffffffffffffffffffffffffffff001660011781558751935091505b81831461076f57610758878381518110151561071957fe5b90602001906020020151878481518110151561073157fe5b90602001906020020151878581518110151561074957fe5b90602001906020020151612423565b905061076484826124c1565b600190910190610701565b5050600080547fffffffffffffffffffffffffffffffffffffffffffffffffffffffffffffff00169055509392505050565b60046020526000908152604090205460ff1681565b73ffffffffffffffffffffffffffffffffffffffff831633146108465761080e848484848080601f016020809104026020016040519081016040528093929190818152602001838380828437506112c7945050505050565b1515610846576040517f08c379a00000000000000000000000000000000000000000000000000000000081526004016106c69061550e565b5050600091825260066020908152604080842073ffffffffffffffffffffffffffffffffffffffff9093168452919052902080547fffffffffffffffffffffffffffffffffffffffffffffffffffffffffffffff00166001179055565b6108ab614220565b6108b361424f565b6108bb61424f565b6000805460ff16156108f9576040517f08c379a00000000000000000000000000000000000000000000000000000000081526004016106c6906155de565b600080547fffffffffffffffffffffffffffffffffffffffffffffffffffffffffffffff0016600117905561016080890151610140808a01919091528901519088015261094588611e9c565b925061095087611e9c565b915061095a612523565b905061096888848389612555565b61097487838388612555565b61097e88886126ed565b61099288888560400151856040015161274d565b8051602081015190519195506109ad918a91869181906128d4565b6020808501519081015190516109c991899185919081906128d4565b6109e288828560200151866040015188600001516129ed565b6109fb87828460200151856040015188602001516129ed565b610a0788888387612a99565b5050600080547fffffffffffffffffffffffffffffffffffffffffffffffffffffffffffffff0016905550949350505050565b610a426141f7565b6060610a4f858585612c21565b9050608081825160208401305af48015610a8657815183526020820151602084015260408201516040840152606082015160608401525b505b509392505050565b600a6020526000908152604090205473ffffffffffffffffffffffffffffffffffffffff1681565b805160005b808214610aec57610ae48382815181101515610ad557fe5b90602001906020020151611f96565b600101610abd565b505050565b610af96141f7565b600080610b046141f7565b60005460ff1615610b41576040517f08c379a00000000000000000000000000000000000000000000000000000000081526004016106c6906155de565b600080547fffffffffffffffffffffffffffffffffffffffffffffffffffffffffffffff001660011781558751935091505b81831461076f57610bca8783815181101515610b8b57fe5b906020019060200201518784815181101515610ba357fe5b906020019060200201518785815181101515610bbb57fe5b90602001906020020151612df3565b9050610bd684826124c1565b600190910190610b73565b6000805481908190819060ff1615610c25576040517f08c379a00000000000000000000000000000000000000000000000000000000081526004016106c6906155de565b600080547fffffffffffffffffffffffffffffffffffffffffffffffffffffffffffffff00166001179055610c58612523565b935073ffffffffffffffffffffffffffffffffffffffff84163314610c7d5733610c80565b60005b73ffffffffffffffffffffffffffffffffffffffff8086166000908152600560209081526040808320938516835292905220549093506001860192509050808211610cf7576040517f08c379a00000000000000000000000000000000000000000000000000000000081526004016106c69061559e565b73ffffffffffffffffffffffffffffffffffffffff80851660008181526005602090815260408083209488168084529490915290819020859055517f82af639571738f4ebd4268fb0363d8957ebe1bbb9e78dba5ebd69eed39b154f090610d5f908690615384565b60405180910390a35050600080547fffffffffffffffffffffffffffffffffffffffffffffffffffffffffffffff00169055505050565b610d9e6141f7565b600080610da96141f7565b86519250600091505b818314610e2057610e098783815181101515610dca57fe5b906020019060200201518784815181101515610de257fe5b906020019060200201518785815181101515610dfa57fe5b90602001906020020151610a3a565b9050610e1584826124c1565b600190910190610db2565b5050509392505050565b7fffffffff0000000000000000000000000000000000000000000000000000000081166000908152600a602052604090205473ffffffffffffffffffffffffffffffffffffffff165b919050565b60086020526000908152604090205460ff1681565b610e956141f7565b60005460ff1615610ed2576040517f08c379a00000000000000000000000000000000000000000000000000000000081526004016106c6906155de565b600080547fffffffffffffffffffffffffffffffffffffffffffffffffffffffffffffff00166001179055610f08848484612df3565b600080547fffffffffffffffffffffffffffffffffffffffffffffffffffffffffffffff00169055949350505050565b6000805460ff1615610f76576040517f08c379a00000000000000000000000000000000000000000000000000000000081526004016106c6906155de565b600080547fffffffffffffffffffffffffffffffffffffffffffffffffffffffffffffff00166001179055610fa9612523565b73ffffffffffffffffffffffffffffffffffffffff8181166000818152600760209081526040808320948916808452949091529081902080547fffffffffffffffffffffffffffffffffffffffffffffffffffffffffffffff00168715151790555192935090917fa8656e308026eeabce8f0bc18048433252318ab80ac79da0b3d3d8697dfba8919061103d908690615376565b60405180910390a35050600080547fffffffffffffffffffffffffffffffffffffffffffffffffffffffffffffff0016905550565b600760209081526000928352604080842090915290825290205460ff1681565b61109a6141f7565b606060008060006110a96141f7565b60005460ff16156110e6576040517f08c379a00000000000000000000000000000000000000000000000000000000081526004016106c6906155de565b600080547fffffffffffffffffffffffffffffffffffffffffffffffffffffffffffffff0016600117815589518a9190811061111e57fe5b906020019060200201516101600151945088519350600092505b8284146111c15784898481518110151561114e57fe5b90602001906020020151610160018190525061116e888760200151612e46565b915061119a898481518110151561118157fe5b9060200190602002015183898681518110151561074957fe5b90506111a686826124c1565b602086015188116111b6576111c1565b600190920191611138565b5050600080547fffffffffffffffffffffffffffffffffffffffffffffffffffffffffffffff00169055509195945050505050565b6060600060606000845192508260405190808252806020026020018201604052801561123c57816020015b61122961424f565b8152602001906001900390816112215790505b509150600090505b808314610a885761126b858281518110151561125c57fe5b90602001906020020151611e9c565b828281518110151561127957fe5b60209081029091010152600101611244565b600660209081526000928352604080842090915290825290205460ff1681565b60025473ffffffffffffffffffffffffffffffffffffffff1681565b60008060008060008060008060008951111515611310576040517f08c379a00000000000000000000000000000000000000000000000000000000081526004016106c69061558e565b61131989612e8d565b7f010000000000000000000000000000000000000000000000000000000000000090049650600760ff88161061137b576040517f08c379a00000000000000000000000000000000000000000000000000000000081526004016106c6906154ae565b8660ff16600781111561138a57fe5b9550600086600781111561139a57fe5b14156113d2576040517f08c379a00000000000000000000000000000000000000000000000000000000081526004016106c69061557e565b60018660078111156113e057fe5b14156114285788511561141f576040517f08c379a00000000000000000000000000000000000000000000000000000000081526004016106c69061564e565b6000975061183c565b600286600781111561143657fe5b1415611571578851604114611477576040517f08c379a00000000000000000000000000000000000000000000000000000000081526004016106c69061544e565b88600081518110151561148657fe5b01602001517f01000000000000000000000000000000000000000000000000000000000000009081900481020494506114c689600163ffffffff612f5116565b93506114d989602163ffffffff612f5116565b925060018b868686604051600081526020016040526040516114fe94939291906153df565b60206040516020810390808403906000865af1158015611522573d6000803e3d6000fd5b50506040517fffffffffffffffffffffffffffffffffffffffffffffffffffffffffffffffe0015173ffffffffffffffffffffffffffffffffffffffff8c8116908216149950925061183c9050565b600386600781111561157f57fe5b14156117255788516041146115c0576040517f08c379a00000000000000000000000000000000000000000000000000000000081526004016106c69061544e565b8860008151811015156115cf57fe5b01602001517f010000000000000000000000000000000000000000000000000000000000000090819004810204945061160f89600163ffffffff612f5116565b935061162289602163ffffffff612f5116565b925060018b60405160200180807f19457468657265756d205369676e6564204d6573736167653a0a333200000000815250601c0182600019166000191681526020019150506040516020818303038152906040526040518082805190602001908083835b602083106116c357805182527fffffffffffffffffffffffffffffffffffffffffffffffffffffffffffffffe09092019160209182019101611686565b51815160209384036101000a7fffffffffffffffffffffffffffffffffffffffffffffffffffffffffffffffff018019909216911617905260408051929094018290038220600083529101928390526114fe94509250899189915088906153df565b600486600781111561173357fe5b141561174b576117448b8b8b612f9c565b975061183c565b600586600781111561175957fe5b14156117bc57611768896130f1565b73ffffffffffffffffffffffffffffffffffffffff808c1660009081526007602090815260408083209385168352929052205490915060ff1615156117b0576000975061183c565b611744818c8c8c61316a565b60068660078111156117ca57fe5b141561180a5760008b815260066020908152604080832073ffffffffffffffffffffffffffffffffffffffff8e16845290915290205460ff16975061183c565b6040517f08c379a00000000000000000000000000000000000000000000000000000000081526004016106c6906154ae565b505050505050509392505050565b6118526141f7565b60606000806000806118626141f7565b89600081518110151561187157fe5b906020019060200201516101400151955089519450600093505b83851461195057858a858151811015156118a157fe5b60209081029091010151610140015286516118bd908a90612e46565b92506119008a858151811015156118d057fe5b9060200190602002015160a001518b868151811015156118ec57fe5b9060200190602002015160800151856132c6565b915061192c8a8581518110151561191357fe5b90602001906020020151838a87815181101515610dfa57fe5b905061193887826124c1565b8651891161194557611950565b60019093019261188b565b5050505050509392505050565b6119656141f7565b60005460ff16156119a2576040517f08c379a00000000000000000000000000000000000000000000000000000000081526004016106c6906155de565b600080547fffffffffffffffffffffffffffffffffffffffffffffffffffffffffffffff00166001179055610f08848484612423565b60095460009073ffffffffffffffffffffffffffffffffffffffff1615611a2b576040517f08c379a00000000000000000000000000000000000000000000000000000000081526004016106c6906155de565b611a6e611a69888888888080601f0160208091040260200160405190810160405280939291908181526020018383808284375061331c945050505050565b61355d565b60008181526008602052604090205490915060ff1615611aba576040517f08c379a00000000000000000000000000000000000000000000000000000000081526004016106c6906154fe565b73ffffffffffffffffffffffffffffffffffffffff86163314611b8b57611b12818785858080601f016020809104026020016040519081016040528093929190818152602001838380828437506112c7945050505050565b1515611b4a576040517f08c379a00000000000000000000000000000000000000000000000000000000081526004016106c69061563e565b600980547fffffffffffffffffffffffff00000000000000000000000000000000000000001673ffffffffffffffffffffffffffffffffffffffff88161790555b6000818152600860205260409081902080547fffffffffffffffffffffffffffffffffffffffffffffffffffffffffffffff001660011790555130908690869080838380828437820191505092505050600060405180830381855af49150501515611c22576040517f08c379a00000000000000000000000000000000000000000000000000000000081526004016106c69061552e565b73ffffffffffffffffffffffffffffffffffffffff86163314611c6857600980547fffffffffffffffffffffffff00000000000000000000000000000000000000001690555b50505050505050565b6002546000908190819073ffffffffffffffffffffffffffffffffffffffff163314611cc9576040517f08c379a00000000000000000000000000000000000000000000000000000000081526004016106c6906155ee565b8392508273ffffffffffffffffffffffffffffffffffffffff1663ae25532e6040518163ffffffff167c0100000000000000000000000000000000000000000000000000000000028152600401602060405180830381600087803b158015611d3057600080fd5b505af1158015611d44573d6000803e3d6000fd5b505050506040513d601f19601f82011682018060405250611d68919081019061487d565b7fffffffff0000000000000000000000000000000000000000000000000000000081166000908152600a602052604090205490925073ffffffffffffffffffffffffffffffffffffffff1690508015611ded576040517f08c379a00000000000000000000000000000000000000000000000000000000081526004016106c69061548e565b7fffffffff0000000000000000000000000000000000000000000000000000000082166000908152600a60205260409081902080547fffffffffffffffffffffffff00000000000000000000000000000000000000001673ffffffffffffffffffffffffffffffffffffffff8616179055517fd2c6b762299c609bdb96520b58a49bfb80186934d4f71a86a367571a15c0319490611e8e9084908790615414565b60405180910390a150505050565b611ea461424f565b611ead8261359d565b6020808301829052600091825260039052604090819020549082015260808201511515611ee15760015b60ff168152610e73565b60a08201511515611ef3576002611ed7565b60a0820151604082015110611f09576005611ed7565b6101008201514210611f1c576004611ed7565b60208082015160009081526004909152604090205460ff1615611f40576006611ed7565b610120820151825173ffffffffffffffffffffffffffffffffffffffff90811660009081526005602090815260408083206060880151909416835292905220541115611f8d576006611ed7565b60038152919050565b611f9e61424f565b60005460ff1615611fdb576040517f08c379a00000000000000000000000000000000000000000000000000000000081526004016106c6906155de565b600080547fffffffffffffffffffffffffffffffffffffffffffffffffffffffffffffff0016600117905561200f82611e9c565b905061201b82826135ab565b6120298282602001516136bd565b5050600080547fffffffffffffffffffffffffffffffffffffffffffffffffffffffffffffff00169055565b600560209081526000928352604080842090915290825290205481565b606060405190810160405280602481526020017ff47261b0000000000000000000000000e41d2489571d322189246dafa5ebde1f81526020017f4699f4980000000000000000000000000000000000000000000000000000000081525081565b6120da6141f7565b606060008060006120e96141f7565b8860008151811015156120f857fe5b906020019060200201516101600151945088519350600092505b82841461219b5784898481518110151561212857fe5b906020019060200201516101600181905250612148888760200151612e46565b9150612174898481518110151561215b57fe5b90602001906020020151838986815181101515610dfa57fe5b905061218086826124c1565b602086015188116121905761219b565b600190920191612112565b50505050509392505050565b60015481565b6121b56141f7565b60606000806000806121c56141f7565b60005460ff1615612202576040517f08c379a00000000000000000000000000000000000000000000000000000000081526004016106c6906155de565b600080547fffffffffffffffffffffffffffffffffffffffffffffffffffffffffffffff001660011781558a518b9190811061223a57fe5b906020019060200201516101400151955089519450600093505b8385146122e957858a8581518110151561226a57fe5b6020908102909101015161014001528651612286908a90612e46565b92506122998a858151811015156118d057fe5b91506122c58a858151811015156122ac57fe5b90602001906020020151838a8781518110151561074957fe5b90506122d187826124c1565b865189116122de576122e9565b600190930192612254565b5050600080547fffffffffffffffffffffffffffffffffffffffffffffffffffffffffffffff0016905550929695505050505050565b60095473ffffffffffffffffffffffffffffffffffffffff1681565b60025473ffffffffffffffffffffffffffffffffffffffff16331461238c576040517f08c379a00000000000000000000000000000000000000000000000000000000081526004016106c6906155ee565b73ffffffffffffffffffffffffffffffffffffffff8116156123e957600280547fffffffffffffffffffffffff00000000000000000000000000000000000000001673ffffffffffffffffffffffffffffffffffffffff83161790555b50565b60408051808201909152600581527f322e302e30000000000000000000000000000000000000000000000000000000602082015281565b61242b6141f7565b61243361424f565b600080600061244188611e9c565b935061244b612523565b925061245988858589612555565b61246b8860a001518560400151612e46565b91506124778783613764565b905061248a8885898489600001516128d4565b612494888261377a565b94506124ab888486602001518760400151896129ed565b6124b68884876137db565b505050509392505050565b815181516124cf9190613893565b8252602080830151908201516124e59190613893565b6020830152604080830151908201516124fe9190613893565b6040830152606080830151908201516125179190613893565b60609092019190915250565b60095460009073ffffffffffffffffffffffffffffffffffffffff1681811561254c578161254e565b335b9392505050565b825160ff16600314612593576040517f08c379a00000000000000000000000000000000000000000000000000000000081526004016106c69061560e565b606084015173ffffffffffffffffffffffffffffffffffffffff161561260657606084015173ffffffffffffffffffffffffffffffffffffffff163314612606576040517f08c379a00000000000000000000000000000000000000000000000000000000081526004016106c69061561e565b602084015173ffffffffffffffffffffffffffffffffffffffff1615612691578173ffffffffffffffffffffffffffffffffffffffff16846020015173ffffffffffffffffffffffffffffffffffffffff16141515612691576040517f08c379a00000000000000000000000000000000000000000000000000000000081526004016106c69061545e565b604083015115156126e7576126af83602001518560000151836112c7565b15156126e7576040517f08c379a00000000000000000000000000000000000000000000000000000000081526004016106c6906154ce565b50505050565b6126ff8260a001518260a001516138dd565b612711836080015183608001516138dd565b1015612749576040517f08c379a00000000000000000000000000000000000000000000000000000000081526004016106c69061562e565b5050565b612755614220565b6000806000806127698960a0015188612e46565b935061277e89608001518a60a0015186613938565b925061278e8860a0015187612e46565b91506127a388608001518960a0015184613938565b90508084106127e65760208086018051839052805182018490525151865182015260808a015160a08b01518751909201516127de9290613938565b855152612823565b845183905284516020908101859052855181015190860180519190915260a089015160808a015191515161281a92906139b5565b60208087015101525b84515160208087015101516128389190612e46565b604086015284515160808a015160c08b0151612855929190613938565b85516040015284516020015160a08a015160e08b0151612876929190613938565b855160600152602085015151608089015160c08a0151612897929190613938565b856020015160400181815250506128bf8560200151602001518960a001518a60e00151613938565b60208601516060015250505050949350505050565b82151561290d576040517f08c379a00000000000000000000000000000000000000000000000000000000081526004016106c69061554e565b82821115612947576040517f08c379a00000000000000000000000000000000000000000000000000000000081526004016106c69061553e565b8460a0015161295a856040015184613893565b1115612992576040517f08c379a00000000000000000000000000000000000000000000000000000000081526004016106c69061546e565b6129a08560800151836138dd565b6129ae828760a001516138dd565b11156129e6576040517f08c379a00000000000000000000000000000000000000000000000000000000081526004016106c6906155ce565b5050505050565b6129fb828260200151613893565b600084815260036020908152604091829020929092558681015187518451938501518584015160608701516101408c01516101608d015196518b9873ffffffffffffffffffffffffffffffffffffffff9788169897909616967f0bcc4c97732e47d9946f229edb95f5b6323f601300e4690de719993f3c37112996612a8a968f963396929591949093906152a4565b60405180910390a45050505050565b60608060405190810160405280602481526020017ff47261b0000000000000000000000000e41d2489571d322189246dafa5ebde1f81526020017f4699f498000000000000000000000000000000000000000000000000000000008152509050612b1a85610140015186600001518660000151856020015160200151613a52565b61014084015184518651845160200151612b3693929190613a52565b612b4f8561014001518660000151858560400151613a52565b612b6b8186600001518760400151856000015160400151613a52565b612b878185600001518660400151856020015160400151613a52565b836040015173ffffffffffffffffffffffffffffffffffffffff16856040015173ffffffffffffffffffffffffffffffffffffffff161415612bf157612bec81848760400151612be7866000015160600151876020015160600151613893565b613a52565b6129e6565b612c0981848760400151856000015160600151613a52565b6129e681848660400151856020015160600151613a52565b604080517fb4be83d5000000000000000000000000000000000000000000000000000000006020808301919091526060602483018181528751608485019081528884015160a48601529488015160c48501529087015160e4840152608087015161010484015260a087015161012484015260c087015161014484015260e08701516101648401526101008701516101848401526101208701516101a4840152610140870180516101c485019081526101608901516101e4860152610180905251805161020485018190529394919384936044870192849261022489019291820191601f82010460005b81811015612d28578351855260209485019490930192600101612d0a565b50505050818103610160808401919091528a0151805180835260209283019291820191601f82010460005b81811015612d71578351855260209485019490930192600101612d53565b50505089845250848103602093840190815288518083529093918201918981019190601f82010460005b81811015612db9578351855260209485019490930192600101612d9b565b5050507fffffffffffffffffffffffffffffffffffffffffffffffffffffffffffffffe08883030188525060405250505050509392505050565b612dfb6141f7565b612e06848484612423565b6020810151909150831461254e576040517f08c379a00000000000000000000000000000000000000000000000000000000081526004016106c6906155be565b600082821115612e82576040517f08c379a00000000000000000000000000000000000000000000000000000000081526004016106c69061547e565b508082035b92915050565b6000808251111515612ecb576040517f08c379a00000000000000000000000000000000000000000000000000000000081526004016106c69061556e565b815182907fffffffffffffffffffffffffffffffffffffffffffffffffffffffffffffffff8101908110612efb57fe5b016020015182517fffffffffffffffffffffffffffffffffffffffffffffffffffffffffffffffff01909252507f0100000000000000000000000000000000000000000000000000000000000000908190040290565b600081602001835110151515612f93576040517f08c379a00000000000000000000000000000000000000000000000000000000081526004016106c69061549e565b50016020015190565b6040516000906060907f1626ba7e0000000000000000000000000000000000000000000000000000000090612fd790879086906024016153bf565b604080517fffffffffffffffffffffffffffffffffffffffffffffffffffffffffffffffe0818403018152919052602080820180517bffffffffffffffffffffffffffffffffffffffffffffffffffffffff167fffffffff00000000000000000000000000000000000000000000000000000000909416939093178352815191935090829081885afa80801561307457600181146130e5576124b6565b7f08c379a0000000000000000000000000000000000000000000000000000000006000527c20000000000000000000000000000000000000000000000000000000006020527c0c57414c4c45545f4552524f5200000000000000000000000000000000604052600060605260646000fd5b50505195945050505050565b60006014825110151515613131576040517f08c379a00000000000000000000000000000000000000000000000000000000081526004016106c6906155fe565b61313f826014845103613c1c565b82517fffffffffffffffffffffffffffffffffffffffffffffffffffffffffffffffec019092525090565b6040516000906060907f9363470200000000000000000000000000000000000000000000000000000000906131a790879087908790602401615392565b604080517fffffffffffffffffffffffffffffffffffffffffffffffffffffffffffffffe0818403018152919052602080820180517bffffffffffffffffffffffffffffffffffffffffffffffffffffffff167fffffffff000000000000000000000000000000000000000000000000000000009094169390931783528151919350908290818a5afa80801561324457600181146132b5576132ba565b7f08c379a0000000000000000000000000000000000000000000000000000000006000527c20000000000000000000000000000000000000000000000000000000006020527c0f56414c494441544f525f4552524f5200000000000000000000000000604052600060605260646000fd5b825194505b50505050949350505050565b6000808311613301576040517f08c379a00000000000000000000000000000000000000000000000000000000081526004016106c6906154be565b61331461330e85846138dd565b84613c7d565b949350505050565b604080517f5a65726f45785472616e73616374696f6e2800000000000000000000000000006020808301919091527f75696e743235362073616c742c0000000000000000000000000000000000000060328301527f61646472657373207369676e6572416464726573732c00000000000000000000603f8301527f627974657320646174610000000000000000000000000000000000000000000060558301527f2900000000000000000000000000000000000000000000000000000000000000605f830152825180830384018152606090920192839052815160009384938493909282918401908083835b6020831061344557805182527fffffffffffffffffffffffffffffffffffffffffffffffffffffffffffffffe09092019160209182019101613408565b51815160209384036101000a7fffffffffffffffffffffffffffffffffffffffffffffffffffffffffffffffff018019909216911617905260405191909301819003812089519097508995509093508392850191508083835b602083106134db57805182527fffffffffffffffffffffffffffffffffffffffffffffffffffffffffffffffe0909201916020918201910161349e565b51815160209384036101000a7fffffffffffffffffffffffffffffffffffffffffffffffffffffffffffffffff01801990921691161790526040805192909401829003822097825281019a909a525073ffffffffffffffffffffffffffffffffffffffff97909716968801969096525050606085015250506080909120919050565b6001546040517f19010000000000000000000000000000000000000000000000000000000000008152600281019190915260228101919091526042902090565b6000612e87611a6983613c94565b805160009060ff166003146135ec576040517f08c379a00000000000000000000000000000000000000000000000000000000081526004016106c69061560e565b606083015173ffffffffffffffffffffffffffffffffffffffff161561365f57606083015173ffffffffffffffffffffffffffffffffffffffff16331461365f576040517f08c379a00000000000000000000000000000000000000000000000000000000081526004016106c69061561e565b613667612523565b835190915073ffffffffffffffffffffffffffffffffffffffff808316911614610aec576040517f08c379a00000000000000000000000000000000000000000000000000000000081526004016106c6906154de565b6000818152600460205260409081902080547fffffffffffffffffffffffffffffffffffffffffffffffffffffffffffffff001660011790558281015183516101408501516101608601519351859473ffffffffffffffffffffffffffffffffffffffff9485169493909316927fdc47b3613d9fe400085f6dbdc99453462279057e6207385042827ed6b1a62cf79261375892339290615328565b60405180910390a45050565b6000818310613773578161254e565b5090919050565b6137826141f7565b6020810182905260a0830151608084015161379e918491613938565b808252608084015160c08501516137b6929190613938565b604082015260a083015160e08401516137d0918491613938565b606082015292915050565b60408051606081018252602481527ff47261b0000000000000000000000000e41d2489571d322189246dafa5ebde1f60208201527f4699f49800000000000000000000000000000000000000000000000000000000918101919091526101408401518451835161384e9291908690613a52565b6138678461016001518486600001518560200151613a52565b61387f81856000015186604001518560400151613a52565b6126e7818486604001518560600151613a52565b6000828201838110156138d2576040517f08c379a00000000000000000000000000000000000000000000000000000000081526004016106c6906154ee565b8091505b5092915050565b6000808315156138f057600091506138d6565b5082820282848281151561390057fe5b04146138d2576040517f08c379a00000000000000000000000000000000000000000000000000000000081526004016106c6906154ee565b6000808311613973576040517f08c379a00000000000000000000000000000000000000000000000000000000081526004016106c6906154be565b61397e8484846140ed565b15613301576040517f08c379a00000000000000000000000000000000000000000000000000000000081526004016106c69061551e565b60008083116139f0576040517f08c379a00000000000000000000000000000000000000000000000000000000081526004016106c6906154be565b6139fb848484614172565b15613a32576040517f08c379a00000000000000000000000000000000000000000000000000000000081526004016106c69061551e565b61331461330e613a4286856138dd565b613a4d866001612e46565b613893565b600080600083118015613a9157508373ffffffffffffffffffffffffffffffffffffffff168573ffffffffffffffffffffffffffffffffffffffff1614155b15613c14578551600310613ad1576040517f08c379a00000000000000000000000000000000000000000000000000000000081526004016106c6906155ae565b50506020848101517fffffffff00000000000000000000000000000000000000000000000000000000166000818152600a90925260409091205473ffffffffffffffffffffffffffffffffffffffff16801515613b5a576040517f08c379a00000000000000000000000000000000000000000000000000000000081526004016106c69061555e565b604051660fffffffffffe0603f885101168060840182017fa85e59e40000000000000000000000000000000000000000000000000000000083526080600484015273ffffffffffffffffffffffffffffffffffffffff8816602484015273ffffffffffffffffffffffffffffffffffffffff87166044840152856064840152608483015b81811015613bf657895181526020998a019901613bde565b61020084858403866000895af1801515613c0e573d85fd5b50505050505b505050505050565b600081601401835110151515613c5e576040517f08c379a00000000000000000000000000000000000000000000000000000000081526004016106c6906155fe565b50016014015173ffffffffffffffffffffffffffffffffffffffff1690565b6000808284811515613c8b57fe5b04949350505050565b604080517f4f726465722800000000000000000000000000000000000000000000000000006020808301919091527f61646472657373206d616b6572416464726573732c000000000000000000000060268301527f616464726573732074616b6572416464726573732c0000000000000000000000603b8301527f6164647265737320666565526563697069656e74416464726573732c0000000060508301527f616464726573732073656e646572416464726573732c00000000000000000000606c8301527f75696e74323536206d616b65724173736574416d6f756e742c0000000000000060828301527f75696e743235362074616b65724173736574416d6f756e742c00000000000000609b8301527f75696e74323536206d616b65724665652c00000000000000000000000000000060b48301527f75696e743235362074616b65724665652c00000000000000000000000000000060c58301527f75696e743235362065787069726174696f6e54696d655365636f6e64732c000060d68301527f75696e743235362073616c742c0000000000000000000000000000000000000060f48301527f6279746573206d616b65724173736574446174612c00000000000000000000006101018301527f62797465732074616b65724173736574446174610000000000000000000000006101168301527f290000000000000000000000000000000000000000000000000000000000000061012a830152825161010b81840301815261012b90920192839052815160009384938493849391929182918401908083835b60208310613f1c57805182527fffffffffffffffffffffffffffffffffffffffffffffffffffffffffffffffe09092019160209182019101613edf565b51815160209384036101000a7fffffffffffffffffffffffffffffffffffffffffffffffffffffffffffffffff01801990921691161790526040519190930181900381206101408b0151805191995095509093508392850191508083835b60208310613fb757805182527fffffffffffffffffffffffffffffffffffffffffffffffffffffffffffffffe09092019160209182019101613f7a565b51815160209384036101000a7fffffffffffffffffffffffffffffffffffffffffffffffffffffffffffffffff01801990921691161790526040519190930181900381206101608b0151805191985095509093508392850191508083835b6020831061405257805182527fffffffffffffffffffffffffffffffffffffffffffffffffffffffffffffffe09092019160209182019101614015565b5181516020939093036101000a7fffffffffffffffffffffffffffffffffffffffffffffffffffffffffffffffff018019909116921691909117905260405192018290039091207fffffffffffffffffffffffffffffffffffffffffffffffffffffffffffffffe0890180516101408b018051610160909c0180519a84529881529288526101a0822091529890525050509190525090919050565b600080808411614129576040517f08c379a00000000000000000000000000000000000000000000000000000000081526004016106c6906154be565b821580614134575084155b156141425760009150610a88565b8380151561414c57fe5b858409905061415b85846138dd565b6141676103e8836138dd565b101595945050505050565b6000808084116141ae576040517f08c379a00000000000000000000000000000000000000000000000000000000081526004016106c6906154be565b8215806141b9575084155b156141c75760009150610a88565b838015156141d157fe5b8584099050836141e18583612e46565b8115156141ea57fe5b06905061415b85846138dd565b608060405190810160405280600081526020016000815260200160008152602001600081525090565b610120604051908101604052806142356141f7565b81526020016142426141f7565b8152602001600081525090565b604080516060810182526000808252602082018190529181019190915290565b600061254e8235615721565b6000601f8201831361428c57600080fd5b813561429f61429a826156b0565b615689565b81815260209384019390925082018360005b838110156142dd57813586016142c7888261442d565b84525060209283019291909101906001016142b1565b5050505092915050565b6000601f820183136142f857600080fd5b813561430661429a826156b0565b81815260209384019390925082018360005b838110156142dd578135860161432e888261447c565b8452506020928301929190910190600101614318565b6000601f8201831361435557600080fd5b813561436361429a826156b0565b9150818183526020840193506020810190508385602084028201111561438857600080fd5b60005b838110156142dd578161439e88826143c0565b845250602092830192919091019060010161438b565b600061254e823561573a565b600061254e823561573f565b600061254e8235615742565b600061254e8251615742565b600080601f830184136143f657600080fd5b50813567ffffffffffffffff81111561440e57600080fd5b60208301915083600182028301111561442657600080fd5b9250929050565b6000601f8201831361443e57600080fd5b813561444c61429a826156d1565b9150808252602083016020830185838301111561446857600080fd5b614473838284615778565b50505092915050565b6000610180828403121561448f57600080fd5b61449a610180615689565b905060006144a8848461426f565b82525060206144b98484830161426f565b60208301525060406144cd8482850161426f565b60408301525060606144e18482850161426f565b60608301525060806144f5848285016143c0565b60808301525060a0614509848285016143c0565b60a08301525060c061451d848285016143c0565b60c08301525060e0614531848285016143c0565b60e083015250610100614546848285016143c0565b6101008301525061012061455c848285016143c0565b6101208301525061014082013567ffffffffffffffff81111561457e57600080fd5b61458a8482850161442d565b6101408301525061016082013567ffffffffffffffff8111156145ac57600080fd5b6145b88482850161442d565b6101608301525092915050565b6000602082840312156145d757600080fd5b6000613314848461426f565b600080604083850312156145f657600080fd5b6000614602858561426f565b92505060206146138582860161426f565b9150509250929050565b6000806040838503121561463057600080fd5b600061463c858561426f565b9250506020614613858286016143b4565b60006020828403121561465f57600080fd5b813567ffffffffffffffff81111561467657600080fd5b613314848285016142e7565b60008060006060848603121561469757600080fd5b833567ffffffffffffffff8111156146ae57600080fd5b6146ba868287016142e7565b935050602084013567ffffffffffffffff8111156146d757600080fd5b6146e386828701614344565b925050604084013567ffffffffffffffff81111561470057600080fd5b61470c8682870161427b565b9150509250925092565b60008060006060848603121561472b57600080fd5b833567ffffffffffffffff81111561474257600080fd5b61474e868287016142e7565b93505060206146e3868287016143c0565b60006020828403121561477157600080fd5b600061331484846143c0565b6000806040838503121561479057600080fd5b600061460285856143c0565b600080600080606085870312156147b257600080fd5b60006147be87876143c0565b94505060206147cf8782880161426f565b935050604085013567ffffffffffffffff8111156147ec57600080fd5b6147f8878288016143e4565b95989497509550505050565b60008060006060848603121561481957600080fd5b600061482586866143c0565b93505060206148368682870161426f565b925050604084013567ffffffffffffffff81111561485357600080fd5b61470c8682870161442d565b60006020828403121561487157600080fd5b600061331484846143cc565b60006020828403121561488f57600080fd5b600061331484846143d8565b6000602082840312156148ad57600080fd5b813567ffffffffffffffff8111156148c457600080fd5b6133148482850161447c565b600080600080608085870312156148e657600080fd5b843567ffffffffffffffff8111156148fd57600080fd5b6149098782880161447c565b945050602085013567ffffffffffffffff81111561492657600080fd5b6149328782880161447c565b935050604085013567ffffffffffffffff81111561494f57600080fd5b61495b8782880161442d565b925050606085013567ffffffffffffffff81111561497857600080fd5b6149848782880161442d565b91505092959194509250565b6000806000606084860312156149a557600080fd5b833567ffffffffffffffff8111156149bc57600080fd5b6149c88682870161447c565b9350506020614836868287016143c0565b600080600080600080608087890312156149f257600080fd5b60006149fe89896143c0565b9650506020614a0f89828a0161426f565b955050604087013567ffffffffffffffff811115614a2c57600080fd5b614a3889828a016143e4565b9450945050606087013567ffffffffffffffff811115614a5757600080fd5b614a6389828a016143e4565b92509250509295509295509295565b614a7b81615721565b82525050565b6000614a8c8261571d565b808452602084019350614a9e83615717565b60005b82811015614ace57614ab4868351615256565b614abd82615717565b606096909601959150600101614aa1565b5093949350505050565b614a7b8161573a565b614a7b8161573f565b614a7b81615742565b6000614afe8261571d565b808452614b12816020860160208601615784565b614b1b816157b0565b9093016020019392505050565b614a7b8161576d565b601281527f4c454e4754485f36355f52455155495245440000000000000000000000000000602082015260400190565b600d81527f494e56414c49445f54414b455200000000000000000000000000000000000000602082015260400190565b600e81527f4f524445525f4f56455246494c4c000000000000000000000000000000000000602082015260400190565b601181527f55494e543235365f554e444552464c4f57000000000000000000000000000000602082015260400190565b601a81527f41535345545f50524f58595f414c52454144595f455849535453000000000000602082015260400190565b602681527f475245415445525f4f525f455155414c5f544f5f33325f4c454e4754485f524560208201527f5155495245440000000000000000000000000000000000000000000000000000604082015260600190565b601581527f5349474e41545552455f554e535550504f525445440000000000000000000000602082015260400190565b601081527f4449564953494f4e5f42595f5a45524f00000000000000000000000000000000602082015260400190565b601781527f494e56414c49445f4f524445525f5349474e4154555245000000000000000000602082015260400190565b600d81527f494e56414c49445f4d414b455200000000000000000000000000000000000000602082015260400190565b601081527f55494e543235365f4f564552464c4f5700000000000000000000000000000000602082015260400190565b600f81527f494e56414c49445f54585f484153480000000000000000000000000000000000602082015260400190565b601181527f494e56414c49445f5349474e4154555245000000000000000000000000000000602082015260400190565b600e81527f524f554e44494e475f4552524f52000000000000000000000000000000000000602082015260400190565b601081527f4641494c45445f455845435554494f4e00000000000000000000000000000000602082015260400190565b600d81527f54414b45525f4f56455250415900000000000000000000000000000000000000602082015260400190565b601481527f494e56414c49445f54414b45525f414d4f554e54000000000000000000000000602082015260400190565b601a81527f41535345545f50524f58595f444f45535f4e4f545f4558495354000000000000602082015260400190565b602181527f475245415445525f5448414e5f5a45524f5f4c454e4754485f5245515549524560208201527f4400000000000000000000000000000000000000000000000000000000000000604082015260600190565b601181527f5349474e41545552455f494c4c4547414c000000000000000000000000000000602082015260400190565b601e81527f4c454e4754485f475245415445525f5448414e5f305f52455155495245440000602082015260400190565b601781527f494e56414c49445f4e45575f4f524445525f45504f4348000000000000000000602082015260400190565b601e81527f4c454e4754485f475245415445525f5448414e5f335f52455155495245440000602082015260400190565b601481527f434f4d504c4554455f46494c4c5f4641494c4544000000000000000000000000602082015260400190565b601281527f494e56414c49445f46494c4c5f50524943450000000000000000000000000000602082015260400190565b601281527f5245454e5452414e43595f494c4c4547414c0000000000000000000000000000602082015260400190565b601381527f4f4e4c595f434f4e54524143545f4f574e455200000000000000000000000000602082015260400190565b602681527f475245415445525f4f525f455155414c5f544f5f32305f4c454e4754485f524560208201527f5155495245440000000000000000000000000000000000000000000000000000604082015260600190565b601081527f4f524445525f554e46494c4c41424c4500000000000000000000000000000000602082015260400190565b600e81527f494e56414c49445f53454e444552000000000000000000000000000000000000602082015260400190565b601881527f4e454741544956455f5350524541445f52455155495245440000000000000000602082015260400190565b601481527f494e56414c49445f54585f5349474e4154555245000000000000000000000000602082015260400190565b601181527f4c454e4754485f305f5245515549524544000000000000000000000000000000602082015260400190565b805160808301906151e48482614ae1565b5060208201516151f76020850182614ae1565b50604082015161520a6040850182614ae1565b5060608201516126e76060850182614ae1565b805161012083019061522f84826151d3565b50602082015161524260808501826151d3565b5060408201516126e7610100850182614ae1565b80516060830190615267848261528d565b50602082015161527a6020850182614ae1565b5060408201516126e76040850182614ae1565b614a7b81615767565b60208101612e878284614a72565b61010081016152b3828b614a72565b6152c0602083018a614a72565b6152cd6040830189614ae1565b6152da6060830188614ae1565b6152e76080830187614ae1565b6152f460a0830186614ae1565b81810360c08301526153068185614af3565b905081810360e083015261531a8184614af3565b9a9950505050505050505050565b606081016153368286614a72565b81810360208301526153488185614af3565b9050818103604083015261535c8184614af3565b95945050505050565b6020808252810161254e8184614a81565b60208101612e878284614ad8565b60208101612e878284614ae1565b606081016153a08286614ae1565b6153ad6020830185614a72565b818103604083015261535c8184614af3565b604081016153cd8285614ae1565b81810360208301526133148184614af3565b608081016153ed8287614ae1565b6153fa602083018661528d565b6154076040830185614ae1565b61535c6060830184614ae1565b604081016154228285614aea565b61254e6020830184614a72565b6020808252810161254e8184614af3565b60208101612e878284614b28565b60208082528101612e8781614b31565b60208082528101612e8781614b61565b60208082528101612e8781614b91565b60208082528101612e8781614bc1565b60208082528101612e8781614bf1565b60208082528101612e8781614c21565b60208082528101612e8781614c77565b60208082528101612e8781614ca7565b60208082528101612e8781614cd7565b60208082528101612e8781614d07565b60208082528101612e8781614d37565b60208082528101612e8781614d67565b60208082528101612e8781614d97565b60208082528101612e8781614dc7565b60208082528101612e8781614df7565b60208082528101612e8781614e27565b60208082528101612e8781614e57565b60208082528101612e8781614e87565b60208082528101612e8781614eb7565b60208082528101612e8781614f0d565b60208082528101612e8781614f3d565b60208082528101612e8781614f6d565b60208082528101612e8781614f9d565b60208082528101612e8781614fcd565b60208082528101612e8781614ffd565b60208082528101612e878161502d565b60208082528101612e878161505d565b60208082528101612e878161508d565b60208082528101612e87816150e3565b60208082528101612e8781615113565b60208082528101612e8781615143565b60208082528101612e8781615173565b60208082528101612e87816151a3565b60808101612e8782846151d3565b6101208101612e87828461521d565b60608101612e878284615256565b60405181810167ffffffffffffffff811182821017156156a857600080fd5b604052919050565b600067ffffffffffffffff8211156156c757600080fd5b5060209081020190565b600067ffffffffffffffff8211156156e857600080fd5b506020601f919091017fffffffffffffffffffffffffffffffffffffffffffffffffffffffffffffffe0160190565b60200190565b5190565b73ffffffffffffffffffffffffffffffffffffffff1690565b151590565b90565b7fffffffff000000000000000000000000000000000000000000000000000000001690565b60ff1690565b6000612e8782615721565b82818337506000910152565b60005b8381101561579f578181015183820152602001615787565b838111156126e75750506000910152565b601f017fffffffffffffffffffffffffffffffffffffffffffffffffffffffffffffffe016905600a265627a7a7230582012a6f587dcfd2c0d95c1e374da3ab3ff4b942061a486b23d59de5c33859feb516c6578706572696d656e74616cf50037",
                "opcodes": "PUSH1 0x80 PUSH1 0x40 MSTORE PUSH1 0x0 DUP1 SLOAD PUSH1 0xFF NOT AND SWAP1 SSTORE CALLVALUE DUP1 ISZERO PUSH3 0x1B JUMPI PUSH1 0x0 DUP1 REVERT JUMPDEST POP PUSH1 0x40 DUP1 MLOAD PUSH32 0x454950373132446F6D61696E2800000000000000000000000000000000000000 PUSH1 0x20 DUP1 DUP4 ADD SWAP2 SWAP1 SWAP2 MSTORE PUSH32 0x737472696E67206E616D652C0000000000000000000000000000000000000000 PUSH1 0x2D DUP4 ADD MSTORE PUSH32 0x737472696E672076657273696F6E2C0000000000000000000000000000000000 PUSH1 0x39 DUP4 ADD MSTORE PUSH32 0x6164647265737320766572696679696E67436F6E747261637400000000000000 PUSH1 0x48 DUP4 ADD MSTORE PUSH32 0x2900000000000000000000000000000000000000000000000000000000000000 PUSH1 0x61 DUP4 ADD MSTORE DUP3 MLOAD PUSH1 0x42 DUP2 DUP5 SUB ADD DUP2 MSTORE PUSH1 0x62 SWAP1 SWAP3 ADD SWAP3 DUP4 SWAP1 MSTORE DUP2 MLOAD SWAP2 SWAP3 SWAP2 DUP3 SWAP2 DUP5 ADD SWAP1 DUP1 DUP4 DUP4 JUMPDEST PUSH1 0x20 DUP4 LT PUSH3 0x124 JUMPI DUP1 MLOAD DUP3 MSTORE PUSH1 0x1F NOT SWAP1 SWAP3 ADD SWAP2 PUSH1 0x20 SWAP2 DUP3 ADD SWAP2 ADD PUSH3 0x103 JUMP JUMPDEST MLOAD DUP2 MLOAD PUSH1 0x20 SWAP4 DUP5 SUB PUSH2 0x100 EXP PUSH1 0x0 NOT ADD DUP1 NOT SWAP1 SWAP3 AND SWAP2 AND OR SWAP1 MSTORE PUSH1 0x40 DUP1 MLOAD SWAP3 SWAP1 SWAP5 ADD DUP3 SWAP1 SUB DUP3 KECCAK256 DUP3 DUP6 ADD DUP6 MSTORE PUSH1 0xB DUP1 DUP5 MSTORE PUSH32 0x30782050726F746F636F6C000000000000000000000000000000000000000000 SWAP3 DUP5 ADD SWAP3 DUP4 MSTORE SWAP5 MLOAD SWAP1 SWAP7 POP SWAP2 SWAP5 POP SWAP1 SWAP3 DUP4 SWAP3 POP DUP1 DUP4 DUP4 JUMPDEST PUSH1 0x20 DUP4 LT PUSH3 0x1AE JUMPI DUP1 MLOAD DUP3 MSTORE PUSH1 0x1F NOT SWAP1 SWAP3 ADD SWAP2 PUSH1 0x20 SWAP2 DUP3 ADD SWAP2 ADD PUSH3 0x18D JUMP JUMPDEST MLOAD DUP2 MLOAD PUSH1 0x20 SWAP4 DUP5 SUB PUSH2 0x100 EXP PUSH1 0x0 NOT ADD DUP1 NOT SWAP1 SWAP3 AND SWAP2 AND OR SWAP1 MSTORE PUSH1 0x40 DUP1 MLOAD SWAP3 SWAP1 SWAP5 ADD DUP3 SWAP1 SUB DUP3 KECCAK256 DUP3 DUP6 ADD DUP6 MSTORE PUSH1 0x1 DUP1 DUP5 MSTORE PUSH32 0x3200000000000000000000000000000000000000000000000000000000000000 SWAP3 DUP5 ADD SWAP3 DUP4 MSTORE SWAP5 MLOAD SWAP1 SWAP7 POP SWAP2 SWAP5 POP SWAP1 SWAP3 DUP4 SWAP3 POP DUP1 DUP4 DUP4 JUMPDEST PUSH1 0x20 DUP4 LT PUSH3 0x238 JUMPI DUP1 MLOAD DUP3 MSTORE PUSH1 0x1F NOT SWAP1 SWAP3 ADD SWAP2 PUSH1 0x20 SWAP2 DUP3 ADD SWAP2 ADD PUSH3 0x217 JUMP JUMPDEST MLOAD DUP2 MLOAD PUSH1 0x20 SWAP4 DUP5 SUB PUSH2 0x100 EXP PUSH1 0x0 NOT ADD DUP1 NOT SWAP1 SWAP3 AND SWAP2 AND OR SWAP1 MSTORE PUSH1 0x40 DUP1 MLOAD SWAP3 SWAP1 SWAP5 ADD DUP3 SWAP1 SUB DUP3 KECCAK256 DUP3 DUP3 ADD SWAP9 SWAP1 SWAP9 MSTORE DUP2 DUP5 ADD SWAP7 SWAP1 SWAP7 MSTORE PUSH1 0x60 DUP2 ADD SWAP7 SWAP1 SWAP7 MSTORE POP ADDRESS PUSH1 0x80 DUP1 DUP8 ADD SWAP2 SWAP1 SWAP2 MSTORE DUP2 MLOAD DUP1 DUP8 SUB SWAP1 SWAP2 ADD DUP2 MSTORE PUSH1 0xA0 SWAP1 SWAP6 ADD SWAP1 DUP2 SWAP1 MSTORE DUP5 MLOAD SWAP1 SWAP4 DUP5 SWAP4 POP DUP6 ADD SWAP2 POP DUP1 DUP4 DUP4 JUMPDEST PUSH1 0x20 DUP4 LT PUSH3 0x2C3 JUMPI DUP1 MLOAD DUP3 MSTORE PUSH1 0x1F NOT SWAP1 SWAP3 ADD SWAP2 PUSH1 0x20 SWAP2 DUP3 ADD SWAP2 ADD PUSH3 0x2A2 JUMP JUMPDEST MLOAD DUP2 MLOAD PUSH1 0x0 NOT PUSH1 0x20 SWAP5 SWAP1 SWAP5 SUB PUSH2 0x100 EXP SWAP4 SWAP1 SWAP4 ADD SWAP3 DUP4 AND SWAP3 NOT AND SWAP2 SWAP1 SWAP2 OR SWAP1 MSTORE PUSH1 0x40 MLOAD SWAP3 ADD DUP3 SWAP1 SUB SWAP1 SWAP2 KECCAK256 PUSH1 0x1 SSTORE POP POP PUSH1 0x2 DUP1 SLOAD PUSH1 0x1 PUSH1 0xA0 PUSH1 0x2 EXP SUB NOT AND CALLER OR SWAP1 SSTORE POP PUSH2 0x5812 DUP1 PUSH3 0x316 PUSH1 0x0 CODECOPY PUSH1 0x0 RETURN STOP PUSH1 0x80 PUSH1 0x40 MSTORE PUSH1 0x4 CALLDATASIZE LT PUSH2 0x1B6 JUMPI PUSH4 0xFFFFFFFF PUSH29 0x100000000000000000000000000000000000000000000000000000000 PUSH1 0x0 CALLDATALOAD DIV AND PUSH4 0x288CDC91 DUP2 EQ PUSH2 0x1BB JUMPI DUP1 PUSH4 0x297BB70B EQ PUSH2 0x1F1 JUMPI DUP1 PUSH4 0x2AC12622 EQ PUSH2 0x21E JUMPI DUP1 PUSH4 0x3683EF8E EQ PUSH2 0x24B JUMPI DUP1 PUSH4 0x3C28D861 EQ PUSH2 0x26D JUMPI DUP1 PUSH4 0x3E228BAE EQ PUSH2 0x29A JUMPI DUP1 PUSH4 0x3FD3C997 EQ PUSH2 0x2BA JUMPI DUP1 PUSH4 0x4AC14782 EQ PUSH2 0x2E7 JUMPI DUP1 PUSH4 0x4D0AE546 EQ PUSH2 0x307 JUMPI DUP1 PUSH4 0x4F9559B1 EQ PUSH2 0x327 JUMPI DUP1 PUSH4 0x50DDE190 EQ PUSH2 0x347 JUMPI DUP1 PUSH4 0x60704108 EQ PUSH2 0x367 JUMPI DUP1 PUSH4 0x642F2EAF EQ PUSH2 0x394 JUMPI DUP1 PUSH4 0x64A3BC15 EQ PUSH2 0x3B4 JUMPI DUP1 PUSH4 0x77FCCE68 EQ PUSH2 0x3D4 JUMPI DUP1 PUSH4 0x7B8E3514 EQ PUSH2 0x3F4 JUMPI DUP1 PUSH4 0x7E1D9808 EQ PUSH2 0x414 JUMPI DUP1 PUSH4 0x7E9D74DC EQ PUSH2 0x434 JUMPI DUP1 PUSH4 0x82C174D0 EQ PUSH2 0x461 JUMPI DUP1 PUSH4 0x8DA5CB5B EQ PUSH2 0x481 JUMPI DUP1 PUSH4 0x93634702 EQ PUSH2 0x496 JUMPI DUP1 PUSH4 0xA3E20380 EQ PUSH2 0x4B6 JUMPI DUP1 PUSH4 0xB4BE83D5 EQ PUSH2 0x4D6 JUMPI DUP1 PUSH4 0xBFC8BFCE EQ PUSH2 0x4F6 JUMPI DUP1 PUSH4 0xC585BB93 EQ PUSH2 0x516 JUMPI DUP1 PUSH4 0xC75E0A81 EQ PUSH2 0x536 JUMPI DUP1 PUSH4 0xD46B02C3 EQ PUSH2 0x563 JUMPI DUP1 PUSH4 0xD9BFA73E EQ PUSH2 0x583 JUMPI DUP1 PUSH4 0xDB123B1A EQ PUSH2 0x5A3 JUMPI DUP1 PUSH4 0xDD1C7D18 EQ PUSH2 0x5C5 JUMPI DUP1 PUSH4 0xE306F779 EQ PUSH2 0x5E5 JUMPI DUP1 PUSH4 0xE5FA431B EQ PUSH2 0x5FA JUMPI DUP1 PUSH4 0xEEA086BA EQ PUSH2 0x61A JUMPI DUP1 PUSH4 0xF2FDE38B EQ PUSH2 0x62F JUMPI DUP1 PUSH4 0xFFA1AD74 EQ PUSH2 0x64F JUMPI JUMPDEST PUSH1 0x0 DUP1 REVERT JUMPDEST CALLVALUE DUP1 ISZERO PUSH2 0x1C7 JUMPI PUSH1 0x0 DUP1 REVERT JUMPDEST POP PUSH2 0x1DB PUSH2 0x1D6 CALLDATASIZE PUSH1 0x4 PUSH2 0x475F JUMP JUMPDEST PUSH2 0x664 JUMP JUMPDEST PUSH1 0x40 MLOAD PUSH2 0x1E8 SWAP2 SWAP1 PUSH2 0x5384 JUMP JUMPDEST PUSH1 0x40 MLOAD DUP1 SWAP2 SUB SWAP1 RETURN JUMPDEST CALLVALUE DUP1 ISZERO PUSH2 0x1FD JUMPI PUSH1 0x0 DUP1 REVERT JUMPDEST POP PUSH2 0x211 PUSH2 0x20C CALLDATASIZE PUSH1 0x4 PUSH2 0x4682 JUMP JUMPDEST PUSH2 0x676 JUMP JUMPDEST PUSH1 0x40 MLOAD PUSH2 0x1E8 SWAP2 SWAP1 PUSH2 0x565E JUMP JUMPDEST CALLVALUE DUP1 ISZERO PUSH2 0x22A JUMPI PUSH1 0x0 DUP1 REVERT JUMPDEST POP PUSH2 0x23E PUSH2 0x239 CALLDATASIZE PUSH1 0x4 PUSH2 0x475F JUMP JUMPDEST PUSH2 0x7A1 JUMP JUMPDEST PUSH1 0x40 MLOAD PUSH2 0x1E8 SWAP2 SWAP1 PUSH2 0x5376 JUMP JUMPDEST CALLVALUE DUP1 ISZERO PUSH2 0x257 JUMPI PUSH1 0x0 DUP1 REVERT JUMPDEST POP PUSH2 0x26B PUSH2 0x266 CALLDATASIZE PUSH1 0x4 PUSH2 0x479C JUMP JUMPDEST PUSH2 0x7B6 JUMP JUMPDEST STOP JUMPDEST CALLVALUE DUP1 ISZERO PUSH2 0x279 JUMPI PUSH1 0x0 DUP1 REVERT JUMPDEST POP PUSH2 0x28D PUSH2 0x288 CALLDATASIZE PUSH1 0x4 PUSH2 0x48D0 JUMP JUMPDEST PUSH2 0x8A3 JUMP JUMPDEST PUSH1 0x40 MLOAD PUSH2 0x1E8 SWAP2 SWAP1 PUSH2 0x566C JUMP JUMPDEST CALLVALUE DUP1 ISZERO PUSH2 0x2A6 JUMPI PUSH1 0x0 DUP1 REVERT JUMPDEST POP PUSH2 0x211 PUSH2 0x2B5 CALLDATASIZE PUSH1 0x4 PUSH2 0x4990 JUMP JUMPDEST PUSH2 0xA3A JUMP JUMPDEST CALLVALUE DUP1 ISZERO PUSH2 0x2C6 JUMPI PUSH1 0x0 DUP1 REVERT JUMPDEST POP PUSH2 0x2DA PUSH2 0x2D5 CALLDATASIZE PUSH1 0x4 PUSH2 0x485F JUMP JUMPDEST PUSH2 0xA90 JUMP JUMPDEST PUSH1 0x40 MLOAD PUSH2 0x1E8 SWAP2 SWAP1 PUSH2 0x5440 JUMP JUMPDEST CALLVALUE DUP1 ISZERO PUSH2 0x2F3 JUMPI PUSH1 0x0 DUP1 REVERT JUMPDEST POP PUSH2 0x26B PUSH2 0x302 CALLDATASIZE PUSH1 0x4 PUSH2 0x464D JUMP JUMPDEST PUSH2 0xAB8 JUMP JUMPDEST CALLVALUE DUP1 ISZERO PUSH2 0x313 JUMPI PUSH1 0x0 DUP1 REVERT JUMPDEST POP PUSH2 0x211 PUSH2 0x322 CALLDATASIZE PUSH1 0x4 PUSH2 0x4682 JUMP JUMPDEST PUSH2 0xAF1 JUMP JUMPDEST CALLVALUE DUP1 ISZERO PUSH2 0x333 JUMPI PUSH1 0x0 DUP1 REVERT JUMPDEST POP PUSH2 0x26B PUSH2 0x342 CALLDATASIZE PUSH1 0x4 PUSH2 0x475F JUMP JUMPDEST PUSH2 0xBE1 JUMP JUMPDEST CALLVALUE DUP1 ISZERO PUSH2 0x353 JUMPI PUSH1 0x0 DUP1 REVERT JUMPDEST POP PUSH2 0x211 PUSH2 0x362 CALLDATASIZE PUSH1 0x4 PUSH2 0x4682 JUMP JUMPDEST PUSH2 0xD96 JUMP JUMPDEST CALLVALUE DUP1 ISZERO PUSH2 0x373 JUMPI PUSH1 0x0 DUP1 REVERT JUMPDEST POP PUSH2 0x387 PUSH2 0x382 CALLDATASIZE PUSH1 0x4 PUSH2 0x485F JUMP JUMPDEST PUSH2 0xE2A JUMP JUMPDEST PUSH1 0x40 MLOAD PUSH2 0x1E8 SWAP2 SWAP1 PUSH2 0x5296 JUMP JUMPDEST CALLVALUE DUP1 ISZERO PUSH2 0x3A0 JUMPI PUSH1 0x0 DUP1 REVERT JUMPDEST POP PUSH2 0x23E PUSH2 0x3AF CALLDATASIZE PUSH1 0x4 PUSH2 0x475F JUMP JUMPDEST PUSH2 0xE78 JUMP JUMPDEST CALLVALUE DUP1 ISZERO PUSH2 0x3C0 JUMPI PUSH1 0x0 DUP1 REVERT JUMPDEST POP PUSH2 0x211 PUSH2 0x3CF CALLDATASIZE PUSH1 0x4 PUSH2 0x4990 JUMP JUMPDEST PUSH2 0xE8D JUMP JUMPDEST CALLVALUE DUP1 ISZERO PUSH2 0x3E0 JUMPI PUSH1 0x0 DUP1 REVERT JUMPDEST POP PUSH2 0x26B PUSH2 0x3EF CALLDATASIZE PUSH1 0x4 PUSH2 0x461D JUMP JUMPDEST PUSH2 0xF38 JUMP JUMPDEST CALLVALUE DUP1 ISZERO PUSH2 0x400 JUMPI PUSH1 0x0 DUP1 REVERT JUMPDEST POP PUSH2 0x23E PUSH2 0x40F CALLDATASIZE PUSH1 0x4 PUSH2 0x45E3 JUMP JUMPDEST PUSH2 0x1072 JUMP JUMPDEST CALLVALUE DUP1 ISZERO PUSH2 0x420 JUMPI PUSH1 0x0 DUP1 REVERT JUMPDEST POP PUSH2 0x211 PUSH2 0x42F CALLDATASIZE PUSH1 0x4 PUSH2 0x4716 JUMP JUMPDEST PUSH2 0x1092 JUMP JUMPDEST CALLVALUE DUP1 ISZERO PUSH2 0x440 JUMPI PUSH1 0x0 DUP1 REVERT JUMPDEST POP PUSH2 0x454 PUSH2 0x44F CALLDATASIZE PUSH1 0x4 PUSH2 0x464D JUMP JUMPDEST PUSH2 0x11F6 JUMP JUMPDEST PUSH1 0x40 MLOAD PUSH2 0x1E8 SWAP2 SWAP1 PUSH2 0x5365 JUMP JUMPDEST CALLVALUE DUP1 ISZERO PUSH2 0x46D JUMPI PUSH1 0x0 DUP1 REVERT JUMPDEST POP PUSH2 0x23E PUSH2 0x47C CALLDATASIZE PUSH1 0x4 PUSH2 0x477D JUMP JUMPDEST PUSH2 0x128B JUMP JUMPDEST CALLVALUE DUP1 ISZERO PUSH2 0x48D JUMPI PUSH1 0x0 DUP1 REVERT JUMPDEST POP PUSH2 0x387 PUSH2 0x12AB JUMP JUMPDEST CALLVALUE DUP1 ISZERO PUSH2 0x4A2 JUMPI PUSH1 0x0 DUP1 REVERT JUMPDEST POP PUSH2 0x23E PUSH2 0x4B1 CALLDATASIZE PUSH1 0x4 PUSH2 0x4804 JUMP JUMPDEST PUSH2 0x12C7 JUMP JUMPDEST CALLVALUE DUP1 ISZERO PUSH2 0x4C2 JUMPI PUSH1 0x0 DUP1 REVERT JUMPDEST POP PUSH2 0x211 PUSH2 0x4D1 CALLDATASIZE PUSH1 0x4 PUSH2 0x4716 JUMP JUMPDEST PUSH2 0x184A JUMP JUMPDEST CALLVALUE DUP1 ISZERO PUSH2 0x4E2 JUMPI PUSH1 0x0 DUP1 REVERT JUMPDEST POP PUSH2 0x211 PUSH2 0x4F1 CALLDATASIZE PUSH1 0x4 PUSH2 0x4990 JUMP JUMPDEST PUSH2 0x195D JUMP JUMPDEST CALLVALUE DUP1 ISZERO PUSH2 0x502 JUMPI PUSH1 0x0 DUP1 REVERT JUMPDEST POP PUSH2 0x26B PUSH2 0x511 CALLDATASIZE PUSH1 0x4 PUSH2 0x49D9 JUMP JUMPDEST PUSH2 0x19D8 JUMP JUMPDEST CALLVALUE DUP1 ISZERO PUSH2 0x522 JUMPI PUSH1 0x0 DUP1 REVERT JUMPDEST POP PUSH2 0x26B PUSH2 0x531 CALLDATASIZE PUSH1 0x4 PUSH2 0x45C5 JUMP JUMPDEST PUSH2 0x1C71 JUMP JUMPDEST CALLVALUE DUP1 ISZERO PUSH2 0x542 JUMPI PUSH1 0x0 DUP1 REVERT JUMPDEST POP PUSH2 0x556 PUSH2 0x551 CALLDATASIZE PUSH1 0x4 PUSH2 0x489B JUMP JUMPDEST PUSH2 0x1E9C JUMP JUMPDEST PUSH1 0x40 MLOAD PUSH2 0x1E8 SWAP2 SWAP1 PUSH2 0x567B JUMP JUMPDEST CALLVALUE DUP1 ISZERO PUSH2 0x56F JUMPI PUSH1 0x0 DUP1 REVERT JUMPDEST POP PUSH2 0x26B PUSH2 0x57E CALLDATASIZE PUSH1 0x4 PUSH2 0x489B JUMP JUMPDEST PUSH2 0x1F96 JUMP JUMPDEST CALLVALUE DUP1 ISZERO PUSH2 0x58F JUMPI PUSH1 0x0 DUP1 REVERT JUMPDEST POP PUSH2 0x1DB PUSH2 0x59E CALLDATASIZE PUSH1 0x4 PUSH2 0x45E3 JUMP JUMPDEST PUSH2 0x2055 JUMP JUMPDEST CALLVALUE DUP1 ISZERO PUSH2 0x5AF JUMPI PUSH1 0x0 DUP1 REVERT JUMPDEST POP PUSH2 0x5B8 PUSH2 0x2072 JUMP JUMPDEST PUSH1 0x40 MLOAD PUSH2 0x1E8 SWAP2 SWAP1 PUSH2 0x542F JUMP JUMPDEST CALLVALUE DUP1 ISZERO PUSH2 0x5D1 JUMPI PUSH1 0x0 DUP1 REVERT JUMPDEST POP PUSH2 0x211 PUSH2 0x5E0 CALLDATASIZE PUSH1 0x4 PUSH2 0x4716 JUMP JUMPDEST PUSH2 0x20D2 JUMP JUMPDEST CALLVALUE DUP1 ISZERO PUSH2 0x5F1 JUMPI PUSH1 0x0 DUP1 REVERT JUMPDEST POP PUSH2 0x1DB PUSH2 0x21A7 JUMP JUMPDEST CALLVALUE DUP1 ISZERO PUSH2 0x606 JUMPI PUSH1 0x0 DUP1 REVERT JUMPDEST POP PUSH2 0x211 PUSH2 0x615 CALLDATASIZE PUSH1 0x4 PUSH2 0x4716 JUMP JUMPDEST PUSH2 0x21AD JUMP JUMPDEST CALLVALUE DUP1 ISZERO PUSH2 0x626 JUMPI PUSH1 0x0 DUP1 REVERT JUMPDEST POP PUSH2 0x387 PUSH2 0x231F JUMP JUMPDEST CALLVALUE DUP1 ISZERO PUSH2 0x63B JUMPI PUSH1 0x0 DUP1 REVERT JUMPDEST POP PUSH2 0x26B PUSH2 0x64A CALLDATASIZE PUSH1 0x4 PUSH2 0x45C5 JUMP JUMPDEST PUSH2 0x233B JUMP JUMPDEST CALLVALUE DUP1 ISZERO PUSH2 0x65B JUMPI PUSH1 0x0 DUP1 REVERT JUMPDEST POP PUSH2 0x5B8 PUSH2 0x23EC JUMP JUMPDEST PUSH1 0x3 PUSH1 0x20 MSTORE PUSH1 0x0 SWAP1 DUP2 MSTORE PUSH1 0x40 SWAP1 KECCAK256 SLOAD DUP2 JUMP JUMPDEST PUSH2 0x67E PUSH2 0x41F7 JUMP JUMPDEST PUSH1 0x0 DUP1 PUSH2 0x689 PUSH2 0x41F7 JUMP JUMPDEST PUSH1 0x0 SLOAD PUSH1 0xFF AND ISZERO PUSH2 0x6CF JUMPI PUSH1 0x40 MLOAD PUSH32 0x8C379A000000000000000000000000000000000000000000000000000000000 DUP2 MSTORE PUSH1 0x4 ADD PUSH2 0x6C6 SWAP1 PUSH2 0x55DE JUMP JUMPDEST PUSH1 0x40 MLOAD DUP1 SWAP2 SUB SWAP1 REVERT JUMPDEST PUSH1 0x0 DUP1 SLOAD PUSH32 0xFFFFFFFFFFFFFFFFFFFFFFFFFFFFFFFFFFFFFFFFFFFFFFFFFFFFFFFFFFFFFF00 AND PUSH1 0x1 OR DUP2 SSTORE DUP8 MLOAD SWAP4 POP SWAP2 POP JUMPDEST DUP2 DUP4 EQ PUSH2 0x76F JUMPI PUSH2 0x758 DUP8 DUP4 DUP2 MLOAD DUP2 LT ISZERO ISZERO PUSH2 0x719 JUMPI INVALID JUMPDEST SWAP1 PUSH1 0x20 ADD SWAP1 PUSH1 0x20 MUL ADD MLOAD DUP8 DUP5 DUP2 MLOAD DUP2 LT ISZERO ISZERO PUSH2 0x731 JUMPI INVALID JUMPDEST SWAP1 PUSH1 0x20 ADD SWAP1 PUSH1 0x20 MUL ADD MLOAD DUP8 DUP6 DUP2 MLOAD DUP2 LT ISZERO ISZERO PUSH2 0x749 JUMPI INVALID JUMPDEST SWAP1 PUSH1 0x20 ADD SWAP1 PUSH1 0x20 MUL ADD MLOAD PUSH2 0x2423 JUMP JUMPDEST SWAP1 POP PUSH2 0x764 DUP5 DUP3 PUSH2 0x24C1 JUMP JUMPDEST PUSH1 0x1 SWAP1 SWAP2 ADD SWAP1 PUSH2 0x701 JUMP JUMPDEST POP POP PUSH1 0x0 DUP1 SLOAD PUSH32 0xFFFFFFFFFFFFFFFFFFFFFFFFFFFFFFFFFFFFFFFFFFFFFFFFFFFFFFFFFFFFFF00 AND SWAP1 SSTORE POP SWAP4 SWAP3 POP POP POP JUMP JUMPDEST PUSH1 0x4 PUSH1 0x20 MSTORE PUSH1 0x0 SWAP1 DUP2 MSTORE PUSH1 0x40 SWAP1 KECCAK256 SLOAD PUSH1 0xFF AND DUP2 JUMP JUMPDEST PUSH20 0xFFFFFFFFFFFFFFFFFFFFFFFFFFFFFFFFFFFFFFFF DUP4 AND CALLER EQ PUSH2 0x846 JUMPI PUSH2 0x80E DUP5 DUP5 DUP5 DUP5 DUP1 DUP1 PUSH1 0x1F ADD PUSH1 0x20 DUP1 SWAP2 DIV MUL PUSH1 0x20 ADD PUSH1 0x40 MLOAD SWAP1 DUP2 ADD PUSH1 0x40 MSTORE DUP1 SWAP4 SWAP3 SWAP2 SWAP1 DUP2 DUP2 MSTORE PUSH1 0x20 ADD DUP4 DUP4 DUP1 DUP3 DUP5 CALLDATACOPY POP PUSH2 0x12C7 SWAP5 POP POP POP POP POP JUMP JUMPDEST ISZERO ISZERO PUSH2 0x846 JUMPI PUSH1 0x40 MLOAD PUSH32 0x8C379A000000000000000000000000000000000000000000000000000000000 DUP2 MSTORE PUSH1 0x4 ADD PUSH2 0x6C6 SWAP1 PUSH2 0x550E JUMP JUMPDEST POP POP PUSH1 0x0 SWAP2 DUP3 MSTORE PUSH1 0x6 PUSH1 0x20 SWAP1 DUP2 MSTORE PUSH1 0x40 DUP1 DUP5 KECCAK256 PUSH20 0xFFFFFFFFFFFFFFFFFFFFFFFFFFFFFFFFFFFFFFFF SWAP1 SWAP4 AND DUP5 MSTORE SWAP2 SWAP1 MSTORE SWAP1 KECCAK256 DUP1 SLOAD PUSH32 0xFFFFFFFFFFFFFFFFFFFFFFFFFFFFFFFFFFFFFFFFFFFFFFFFFFFFFFFFFFFFFF00 AND PUSH1 0x1 OR SWAP1 SSTORE JUMP JUMPDEST PUSH2 0x8AB PUSH2 0x4220 JUMP JUMPDEST PUSH2 0x8B3 PUSH2 0x424F JUMP JUMPDEST PUSH2 0x8BB PUSH2 0x424F JUMP JUMPDEST PUSH1 0x0 DUP1 SLOAD PUSH1 0xFF AND ISZERO PUSH2 0x8F9 JUMPI PUSH1 0x40 MLOAD PUSH32 0x8C379A000000000000000000000000000000000000000000000000000000000 DUP2 MSTORE PUSH1 0x4 ADD PUSH2 0x6C6 SWAP1 PUSH2 0x55DE JUMP JUMPDEST PUSH1 0x0 DUP1 SLOAD PUSH32 0xFFFFFFFFFFFFFFFFFFFFFFFFFFFFFFFFFFFFFFFFFFFFFFFFFFFFFFFFFFFFFF00 AND PUSH1 0x1 OR SWAP1 SSTORE PUSH2 0x160 DUP1 DUP10 ADD MLOAD PUSH2 0x140 DUP1 DUP11 ADD SWAP2 SWAP1 SWAP2 MSTORE DUP10 ADD MLOAD SWAP1 DUP9 ADD MSTORE PUSH2 0x945 DUP9 PUSH2 0x1E9C JUMP JUMPDEST SWAP3 POP PUSH2 0x950 DUP8 PUSH2 0x1E9C JUMP JUMPDEST SWAP2 POP PUSH2 0x95A PUSH2 0x2523 JUMP JUMPDEST SWAP1 POP PUSH2 0x968 DUP9 DUP5 DUP4 DUP10 PUSH2 0x2555 JUMP JUMPDEST PUSH2 0x974 DUP8 DUP4 DUP4 DUP9 PUSH2 0x2555 JUMP JUMPDEST PUSH2 0x97E DUP9 DUP9 PUSH2 0x26ED JUMP JUMPDEST PUSH2 0x992 DUP9 DUP9 DUP6 PUSH1 0x40 ADD MLOAD DUP6 PUSH1 0x40 ADD MLOAD PUSH2 0x274D JUMP JUMPDEST DUP1 MLOAD PUSH1 0x20 DUP2 ADD MLOAD SWAP1 MLOAD SWAP2 SWAP6 POP PUSH2 0x9AD SWAP2 DUP11 SWAP2 DUP7 SWAP2 DUP2 SWAP1 PUSH2 0x28D4 JUMP JUMPDEST PUSH1 0x20 DUP1 DUP6 ADD MLOAD SWAP1 DUP2 ADD MLOAD SWAP1 MLOAD PUSH2 0x9C9 SWAP2 DUP10 SWAP2 DUP6 SWAP2 SWAP1 DUP2 SWAP1 PUSH2 0x28D4 JUMP JUMPDEST PUSH2 0x9E2 DUP9 DUP3 DUP6 PUSH1 0x20 ADD MLOAD DUP7 PUSH1 0x40 ADD MLOAD DUP9 PUSH1 0x0 ADD MLOAD PUSH2 0x29ED JUMP JUMPDEST PUSH2 0x9FB DUP8 DUP3 DUP5 PUSH1 0x20 ADD MLOAD DUP6 PUSH1 0x40 ADD MLOAD DUP9 PUSH1 0x20 ADD MLOAD PUSH2 0x29ED JUMP JUMPDEST PUSH2 0xA07 DUP9 DUP9 DUP4 DUP8 PUSH2 0x2A99 JUMP JUMPDEST POP POP PUSH1 0x0 DUP1 SLOAD PUSH32 0xFFFFFFFFFFFFFFFFFFFFFFFFFFFFFFFFFFFFFFFFFFFFFFFFFFFFFFFFFFFFFF00 AND SWAP1 SSTORE POP SWAP5 SWAP4 POP POP POP POP JUMP JUMPDEST PUSH2 0xA42 PUSH2 0x41F7 JUMP JUMPDEST PUSH1 0x60 PUSH2 0xA4F DUP6 DUP6 DUP6 PUSH2 0x2C21 JUMP JUMPDEST SWAP1 POP PUSH1 0x80 DUP2 DUP3 MLOAD PUSH1 0x20 DUP5 ADD ADDRESS GAS DELEGATECALL DUP1 ISZERO PUSH2 0xA86 JUMPI DUP2 MLOAD DUP4 MSTORE PUSH1 0x20 DUP3 ADD MLOAD PUSH1 0x20 DUP5 ADD MSTORE PUSH1 0x40 DUP3 ADD MLOAD PUSH1 0x40 DUP5 ADD MSTORE PUSH1 0x60 DUP3 ADD MLOAD PUSH1 0x60 DUP5 ADD MSTORE JUMPDEST POP JUMPDEST POP SWAP4 SWAP3 POP POP POP JUMP JUMPDEST PUSH1 0xA PUSH1 0x20 MSTORE PUSH1 0x0 SWAP1 DUP2 MSTORE PUSH1 0x40 SWAP1 KECCAK256 SLOAD PUSH20 0xFFFFFFFFFFFFFFFFFFFFFFFFFFFFFFFFFFFFFFFF AND DUP2 JUMP JUMPDEST DUP1 MLOAD PUSH1 0x0 JUMPDEST DUP1 DUP3 EQ PUSH2 0xAEC JUMPI PUSH2 0xAE4 DUP4 DUP3 DUP2 MLOAD DUP2 LT ISZERO ISZERO PUSH2 0xAD5 JUMPI INVALID JUMPDEST SWAP1 PUSH1 0x20 ADD SWAP1 PUSH1 0x20 MUL ADD MLOAD PUSH2 0x1F96 JUMP JUMPDEST PUSH1 0x1 ADD PUSH2 0xABD JUMP JUMPDEST POP POP POP JUMP JUMPDEST PUSH2 0xAF9 PUSH2 0x41F7 JUMP JUMPDEST PUSH1 0x0 DUP1 PUSH2 0xB04 PUSH2 0x41F7 JUMP JUMPDEST PUSH1 0x0 SLOAD PUSH1 0xFF AND ISZERO PUSH2 0xB41 JUMPI PUSH1 0x40 MLOAD PUSH32 0x8C379A000000000000000000000000000000000000000000000000000000000 DUP2 MSTORE PUSH1 0x4 ADD PUSH2 0x6C6 SWAP1 PUSH2 0x55DE JUMP JUMPDEST PUSH1 0x0 DUP1 SLOAD PUSH32 0xFFFFFFFFFFFFFFFFFFFFFFFFFFFFFFFFFFFFFFFFFFFFFFFFFFFFFFFFFFFFFF00 AND PUSH1 0x1 OR DUP2 SSTORE DUP8 MLOAD SWAP4 POP SWAP2 POP JUMPDEST DUP2 DUP4 EQ PUSH2 0x76F JUMPI PUSH2 0xBCA DUP8 DUP4 DUP2 MLOAD DUP2 LT ISZERO ISZERO PUSH2 0xB8B JUMPI INVALID JUMPDEST SWAP1 PUSH1 0x20 ADD SWAP1 PUSH1 0x20 MUL ADD MLOAD DUP8 DUP5 DUP2 MLOAD DUP2 LT ISZERO ISZERO PUSH2 0xBA3 JUMPI INVALID JUMPDEST SWAP1 PUSH1 0x20 ADD SWAP1 PUSH1 0x20 MUL ADD MLOAD DUP8 DUP6 DUP2 MLOAD DUP2 LT ISZERO ISZERO PUSH2 0xBBB JUMPI INVALID JUMPDEST SWAP1 PUSH1 0x20 ADD SWAP1 PUSH1 0x20 MUL ADD MLOAD PUSH2 0x2DF3 JUMP JUMPDEST SWAP1 POP PUSH2 0xBD6 DUP5 DUP3 PUSH2 0x24C1 JUMP JUMPDEST PUSH1 0x1 SWAP1 SWAP2 ADD SWAP1 PUSH2 0xB73 JUMP JUMPDEST PUSH1 0x0 DUP1 SLOAD DUP2 SWAP1 DUP2 SWAP1 DUP2 SWAP1 PUSH1 0xFF AND ISZERO PUSH2 0xC25 JUMPI PUSH1 0x40 MLOAD PUSH32 0x8C379A000000000000000000000000000000000000000000000000000000000 DUP2 MSTORE PUSH1 0x4 ADD PUSH2 0x6C6 SWAP1 PUSH2 0x55DE JUMP JUMPDEST PUSH1 0x0 DUP1 SLOAD PUSH32 0xFFFFFFFFFFFFFFFFFFFFFFFFFFFFFFFFFFFFFFFFFFFFFFFFFFFFFFFFFFFFFF00 AND PUSH1 0x1 OR SWAP1 SSTORE PUSH2 0xC58 PUSH2 0x2523 JUMP JUMPDEST SWAP4 POP PUSH20 0xFFFFFFFFFFFFFFFFFFFFFFFFFFFFFFFFFFFFFFFF DUP5 AND CALLER EQ PUSH2 0xC7D JUMPI CALLER PUSH2 0xC80 JUMP JUMPDEST PUSH1 0x0 JUMPDEST PUSH20 0xFFFFFFFFFFFFFFFFFFFFFFFFFFFFFFFFFFFFFFFF DUP1 DUP7 AND PUSH1 0x0 SWAP1 DUP2 MSTORE PUSH1 0x5 PUSH1 0x20 SWAP1 DUP2 MSTORE PUSH1 0x40 DUP1 DUP4 KECCAK256 SWAP4 DUP6 AND DUP4 MSTORE SWAP3 SWAP1 MSTORE KECCAK256 SLOAD SWAP1 SWAP4 POP PUSH1 0x1 DUP7 ADD SWAP3 POP SWAP1 POP DUP1 DUP3 GT PUSH2 0xCF7 JUMPI PUSH1 0x40 MLOAD PUSH32 0x8C379A000000000000000000000000000000000000000000000000000000000 DUP2 MSTORE PUSH1 0x4 ADD PUSH2 0x6C6 SWAP1 PUSH2 0x559E JUMP JUMPDEST PUSH20 0xFFFFFFFFFFFFFFFFFFFFFFFFFFFFFFFFFFFFFFFF DUP1 DUP6 AND PUSH1 0x0 DUP2 DUP2 MSTORE PUSH1 0x5 PUSH1 0x20 SWAP1 DUP2 MSTORE PUSH1 0x40 DUP1 DUP4 KECCAK256 SWAP5 DUP9 AND DUP1 DUP5 MSTORE SWAP5 SWAP1 SWAP2 MSTORE SWAP1 DUP2 SWAP1 KECCAK256 DUP6 SWAP1 SSTORE MLOAD PUSH32 0x82AF639571738F4EBD4268FB0363D8957EBE1BBB9E78DBA5EBD69EED39B154F0 SWAP1 PUSH2 0xD5F SWAP1 DUP7 SWAP1 PUSH2 0x5384 JUMP JUMPDEST PUSH1 0x40 MLOAD DUP1 SWAP2 SUB SWAP1 LOG3 POP POP PUSH1 0x0 DUP1 SLOAD PUSH32 0xFFFFFFFFFFFFFFFFFFFFFFFFFFFFFFFFFFFFFFFFFFFFFFFFFFFFFFFFFFFFFF00 AND SWAP1 SSTORE POP POP POP JUMP JUMPDEST PUSH2 0xD9E PUSH2 0x41F7 JUMP JUMPDEST PUSH1 0x0 DUP1 PUSH2 0xDA9 PUSH2 0x41F7 JUMP JUMPDEST DUP7 MLOAD SWAP3 POP PUSH1 0x0 SWAP2 POP JUMPDEST DUP2 DUP4 EQ PUSH2 0xE20 JUMPI PUSH2 0xE09 DUP8 DUP4 DUP2 MLOAD DUP2 LT ISZERO ISZERO PUSH2 0xDCA JUMPI INVALID JUMPDEST SWAP1 PUSH1 0x20 ADD SWAP1 PUSH1 0x20 MUL ADD MLOAD DUP8 DUP5 DUP2 MLOAD DUP2 LT ISZERO ISZERO PUSH2 0xDE2 JUMPI INVALID JUMPDEST SWAP1 PUSH1 0x20 ADD SWAP1 PUSH1 0x20 MUL ADD MLOAD DUP8 DUP6 DUP2 MLOAD DUP2 LT ISZERO ISZERO PUSH2 0xDFA JUMPI INVALID JUMPDEST SWAP1 PUSH1 0x20 ADD SWAP1 PUSH1 0x20 MUL ADD MLOAD PUSH2 0xA3A JUMP JUMPDEST SWAP1 POP PUSH2 0xE15 DUP5 DUP3 PUSH2 0x24C1 JUMP JUMPDEST PUSH1 0x1 SWAP1 SWAP2 ADD SWAP1 PUSH2 0xDB2 JUMP JUMPDEST POP POP POP SWAP4 SWAP3 POP POP POP JUMP JUMPDEST PUSH32 0xFFFFFFFF00000000000000000000000000000000000000000000000000000000 DUP2 AND PUSH1 0x0 SWAP1 DUP2 MSTORE PUSH1 0xA PUSH1 0x20 MSTORE PUSH1 0x40 SWAP1 KECCAK256 SLOAD PUSH20 0xFFFFFFFFFFFFFFFFFFFFFFFFFFFFFFFFFFFFFFFF AND JUMPDEST SWAP2 SWAP1 POP JUMP JUMPDEST PUSH1 0x8 PUSH1 0x20 MSTORE PUSH1 0x0 SWAP1 DUP2 MSTORE PUSH1 0x40 SWAP1 KECCAK256 SLOAD PUSH1 0xFF AND DUP2 JUMP JUMPDEST PUSH2 0xE95 PUSH2 0x41F7 JUMP JUMPDEST PUSH1 0x0 SLOAD PUSH1 0xFF AND ISZERO PUSH2 0xED2 JUMPI PUSH1 0x40 MLOAD PUSH32 0x8C379A000000000000000000000000000000000000000000000000000000000 DUP2 MSTORE PUSH1 0x4 ADD PUSH2 0x6C6 SWAP1 PUSH2 0x55DE JUMP JUMPDEST PUSH1 0x0 DUP1 SLOAD PUSH32 0xFFFFFFFFFFFFFFFFFFFFFFFFFFFFFFFFFFFFFFFFFFFFFFFFFFFFFFFFFFFFFF00 AND PUSH1 0x1 OR SWAP1 SSTORE PUSH2 0xF08 DUP5 DUP5 DUP5 PUSH2 0x2DF3 JUMP JUMPDEST PUSH1 0x0 DUP1 SLOAD PUSH32 0xFFFFFFFFFFFFFFFFFFFFFFFFFFFFFFFFFFFFFFFFFFFFFFFFFFFFFFFFFFFFFF00 AND SWAP1 SSTORE SWAP5 SWAP4 POP POP POP POP JUMP JUMPDEST PUSH1 0x0 DUP1 SLOAD PUSH1 0xFF AND ISZERO PUSH2 0xF76 JUMPI PUSH1 0x40 MLOAD PUSH32 0x8C379A000000000000000000000000000000000000000000000000000000000 DUP2 MSTORE PUSH1 0x4 ADD PUSH2 0x6C6 SWAP1 PUSH2 0x55DE JUMP JUMPDEST PUSH1 0x0 DUP1 SLOAD PUSH32 0xFFFFFFFFFFFFFFFFFFFFFFFFFFFFFFFFFFFFFFFFFFFFFFFFFFFFFFFFFFFFFF00 AND PUSH1 0x1 OR SWAP1 SSTORE PUSH2 0xFA9 PUSH2 0x2523 JUMP JUMPDEST PUSH20 0xFFFFFFFFFFFFFFFFFFFFFFFFFFFFFFFFFFFFFFFF DUP2 DUP2 AND PUSH1 0x0 DUP2 DUP2 MSTORE PUSH1 0x7 PUSH1 0x20 SWAP1 DUP2 MSTORE PUSH1 0x40 DUP1 DUP4 KECCAK256 SWAP5 DUP10 AND DUP1 DUP5 MSTORE SWAP5 SWAP1 SWAP2 MSTORE SWAP1 DUP2 SWAP1 KECCAK256 DUP1 SLOAD PUSH32 0xFFFFFFFFFFFFFFFFFFFFFFFFFFFFFFFFFFFFFFFFFFFFFFFFFFFFFFFFFFFFFF00 AND DUP8 ISZERO ISZERO OR SWAP1 SSTORE MLOAD SWAP3 SWAP4 POP SWAP1 SWAP2 PUSH32 0xA8656E308026EEABCE8F0BC18048433252318AB80AC79DA0B3D3D8697DFBA891 SWAP1 PUSH2 0x103D SWAP1 DUP7 SWAP1 PUSH2 0x5376 JUMP JUMPDEST PUSH1 0x40 MLOAD DUP1 SWAP2 SUB SWAP1 LOG3 POP POP PUSH1 0x0 DUP1 SLOAD PUSH32 0xFFFFFFFFFFFFFFFFFFFFFFFFFFFFFFFFFFFFFFFFFFFFFFFFFFFFFFFFFFFFFF00 AND SWAP1 SSTORE POP JUMP JUMPDEST PUSH1 0x7 PUSH1 0x20 SWAP1 DUP2 MSTORE PUSH1 0x0 SWAP3 DUP4 MSTORE PUSH1 0x40 DUP1 DUP5 KECCAK256 SWAP1 SWAP2 MSTORE SWAP1 DUP3 MSTORE SWAP1 KECCAK256 SLOAD PUSH1 0xFF AND DUP2 JUMP JUMPDEST PUSH2 0x109A PUSH2 0x41F7 JUMP JUMPDEST PUSH1 0x60 PUSH1 0x0 DUP1 PUSH1 0x0 PUSH2 0x10A9 PUSH2 0x41F7 JUMP JUMPDEST PUSH1 0x0 SLOAD PUSH1 0xFF AND ISZERO PUSH2 0x10E6 JUMPI PUSH1 0x40 MLOAD PUSH32 0x8C379A000000000000000000000000000000000000000000000000000000000 DUP2 MSTORE PUSH1 0x4 ADD PUSH2 0x6C6 SWAP1 PUSH2 0x55DE JUMP JUMPDEST PUSH1 0x0 DUP1 SLOAD PUSH32 0xFFFFFFFFFFFFFFFFFFFFFFFFFFFFFFFFFFFFFFFFFFFFFFFFFFFFFFFFFFFFFF00 AND PUSH1 0x1 OR DUP2 SSTORE DUP10 MLOAD DUP11 SWAP2 SWAP1 DUP2 LT PUSH2 0x111E JUMPI INVALID JUMPDEST SWAP1 PUSH1 0x20 ADD SWAP1 PUSH1 0x20 MUL ADD MLOAD PUSH2 0x160 ADD MLOAD SWAP5 POP DUP9 MLOAD SWAP4 POP PUSH1 0x0 SWAP3 POP JUMPDEST DUP3 DUP5 EQ PUSH2 0x11C1 JUMPI DUP5 DUP10 DUP5 DUP2 MLOAD DUP2 LT ISZERO ISZERO PUSH2 0x114E JUMPI INVALID JUMPDEST SWAP1 PUSH1 0x20 ADD SWAP1 PUSH1 0x20 MUL ADD MLOAD PUSH2 0x160 ADD DUP2 SWAP1 MSTORE POP PUSH2 0x116E DUP9 DUP8 PUSH1 0x20 ADD MLOAD PUSH2 0x2E46 JUMP JUMPDEST SWAP2 POP PUSH2 0x119A DUP10 DUP5 DUP2 MLOAD DUP2 LT ISZERO ISZERO PUSH2 0x1181 JUMPI INVALID JUMPDEST SWAP1 PUSH1 0x20 ADD SWAP1 PUSH1 0x20 MUL ADD MLOAD DUP4 DUP10 DUP7 DUP2 MLOAD DUP2 LT ISZERO ISZERO PUSH2 0x749 JUMPI INVALID JUMPDEST SWAP1 POP PUSH2 0x11A6 DUP7 DUP3 PUSH2 0x24C1 JUMP JUMPDEST PUSH1 0x20 DUP7 ADD MLOAD DUP9 GT PUSH2 0x11B6 JUMPI PUSH2 0x11C1 JUMP JUMPDEST PUSH1 0x1 SWAP1 SWAP3 ADD SWAP2 PUSH2 0x1138 JUMP JUMPDEST POP POP PUSH1 0x0 DUP1 SLOAD PUSH32 0xFFFFFFFFFFFFFFFFFFFFFFFFFFFFFFFFFFFFFFFFFFFFFFFFFFFFFFFFFFFFFF00 AND SWAP1 SSTORE POP SWAP2 SWAP6 SWAP5 POP POP POP POP POP JUMP JUMPDEST PUSH1 0x60 PUSH1 0x0 PUSH1 0x60 PUSH1 0x0 DUP5 MLOAD SWAP3 POP DUP3 PUSH1 0x40 MLOAD SWAP1 DUP1 DUP3 MSTORE DUP1 PUSH1 0x20 MUL PUSH1 0x20 ADD DUP3 ADD PUSH1 0x40 MSTORE DUP1 ISZERO PUSH2 0x123C JUMPI DUP2 PUSH1 0x20 ADD JUMPDEST PUSH2 0x1229 PUSH2 0x424F JUMP JUMPDEST DUP2 MSTORE PUSH1 0x20 ADD SWAP1 PUSH1 0x1 SWAP1 SUB SWAP1 DUP2 PUSH2 0x1221 JUMPI SWAP1 POP JUMPDEST POP SWAP2 POP PUSH1 0x0 SWAP1 POP JUMPDEST DUP1 DUP4 EQ PUSH2 0xA88 JUMPI PUSH2 0x126B DUP6 DUP3 DUP2 MLOAD DUP2 LT ISZERO ISZERO PUSH2 0x125C JUMPI INVALID JUMPDEST SWAP1 PUSH1 0x20 ADD SWAP1 PUSH1 0x20 MUL ADD MLOAD PUSH2 0x1E9C JUMP JUMPDEST DUP3 DUP3 DUP2 MLOAD DUP2 LT ISZERO ISZERO PUSH2 0x1279 JUMPI INVALID JUMPDEST PUSH1 0x20 SWAP1 DUP2 MUL SWAP1 SWAP2 ADD ADD MSTORE PUSH1 0x1 ADD PUSH2 0x1244 JUMP JUMPDEST PUSH1 0x6 PUSH1 0x20 SWAP1 DUP2 MSTORE PUSH1 0x0 SWAP3 DUP4 MSTORE PUSH1 0x40 DUP1 DUP5 KECCAK256 SWAP1 SWAP2 MSTORE SWAP1 DUP3 MSTORE SWAP1 KECCAK256 SLOAD PUSH1 0xFF AND DUP2 JUMP JUMPDEST PUSH1 0x2 SLOAD PUSH20 0xFFFFFFFFFFFFFFFFFFFFFFFFFFFFFFFFFFFFFFFF AND DUP2 JUMP JUMPDEST PUSH1 0x0 DUP1 PUSH1 0x0 DUP1 PUSH1 0x0 DUP1 PUSH1 0x0 DUP1 PUSH1 0x0 DUP10 MLOAD GT ISZERO ISZERO PUSH2 0x1310 JUMPI PUSH1 0x40 MLOAD PUSH32 0x8C379A000000000000000000000000000000000000000000000000000000000 DUP2 MSTORE PUSH1 0x4 ADD PUSH2 0x6C6 SWAP1 PUSH2 0x558E JUMP JUMPDEST PUSH2 0x1319 DUP10 PUSH2 0x2E8D JUMP JUMPDEST PUSH32 0x100000000000000000000000000000000000000000000000000000000000000 SWAP1 DIV SWAP7 POP PUSH1 0x7 PUSH1 0xFF DUP9 AND LT PUSH2 0x137B JUMPI PUSH1 0x40 MLOAD PUSH32 0x8C379A000000000000000000000000000000000000000000000000000000000 DUP2 MSTORE PUSH1 0x4 ADD PUSH2 0x6C6 SWAP1 PUSH2 0x54AE JUMP JUMPDEST DUP7 PUSH1 0xFF AND PUSH1 0x7 DUP2 GT ISZERO PUSH2 0x138A JUMPI INVALID JUMPDEST SWAP6 POP PUSH1 0x0 DUP7 PUSH1 0x7 DUP2 GT ISZERO PUSH2 0x139A JUMPI INVALID JUMPDEST EQ ISZERO PUSH2 0x13D2 JUMPI PUSH1 0x40 MLOAD PUSH32 0x8C379A000000000000000000000000000000000000000000000000000000000 DUP2 MSTORE PUSH1 0x4 ADD PUSH2 0x6C6 SWAP1 PUSH2 0x557E JUMP JUMPDEST PUSH1 0x1 DUP7 PUSH1 0x7 DUP2 GT ISZERO PUSH2 0x13E0 JUMPI INVALID JUMPDEST EQ ISZERO PUSH2 0x1428 JUMPI DUP9 MLOAD ISZERO PUSH2 0x141F JUMPI PUSH1 0x40 MLOAD PUSH32 0x8C379A000000000000000000000000000000000000000000000000000000000 DUP2 MSTORE PUSH1 0x4 ADD PUSH2 0x6C6 SWAP1 PUSH2 0x564E JUMP JUMPDEST PUSH1 0x0 SWAP8 POP PUSH2 0x183C JUMP JUMPDEST PUSH1 0x2 DUP7 PUSH1 0x7 DUP2 GT ISZERO PUSH2 0x1436 JUMPI INVALID JUMPDEST EQ ISZERO PUSH2 0x1571 JUMPI DUP9 MLOAD PUSH1 0x41 EQ PUSH2 0x1477 JUMPI PUSH1 0x40 MLOAD PUSH32 0x8C379A000000000000000000000000000000000000000000000000000000000 DUP2 MSTORE PUSH1 0x4 ADD PUSH2 0x6C6 SWAP1 PUSH2 0x544E JUMP JUMPDEST DUP9 PUSH1 0x0 DUP2 MLOAD DUP2 LT ISZERO ISZERO PUSH2 0x1486 JUMPI INVALID JUMPDEST ADD PUSH1 0x20 ADD MLOAD PUSH32 0x100000000000000000000000000000000000000000000000000000000000000 SWAP1 DUP2 SWAP1 DIV DUP2 MUL DIV SWAP5 POP PUSH2 0x14C6 DUP10 PUSH1 0x1 PUSH4 0xFFFFFFFF PUSH2 0x2F51 AND JUMP JUMPDEST SWAP4 POP PUSH2 0x14D9 DUP10 PUSH1 0x21 PUSH4 0xFFFFFFFF PUSH2 0x2F51 AND JUMP JUMPDEST SWAP3 POP PUSH1 0x1 DUP12 DUP7 DUP7 DUP7 PUSH1 0x40 MLOAD PUSH1 0x0 DUP2 MSTORE PUSH1 0x20 ADD PUSH1 0x40 MSTORE PUSH1 0x40 MLOAD PUSH2 0x14FE SWAP5 SWAP4 SWAP3 SWAP2 SWAP1 PUSH2 0x53DF JUMP JUMPDEST PUSH1 0x20 PUSH1 0x40 MLOAD PUSH1 0x20 DUP2 SUB SWAP1 DUP1 DUP5 SUB SWAP1 PUSH1 0x0 DUP7 GAS CALL ISZERO DUP1 ISZERO PUSH2 0x1522 JUMPI RETURNDATASIZE PUSH1 0x0 DUP1 RETURNDATACOPY RETURNDATASIZE PUSH1 0x0 REVERT JUMPDEST POP POP PUSH1 0x40 MLOAD PUSH32 0xFFFFFFFFFFFFFFFFFFFFFFFFFFFFFFFFFFFFFFFFFFFFFFFFFFFFFFFFFFFFFFE0 ADD MLOAD PUSH20 0xFFFFFFFFFFFFFFFFFFFFFFFFFFFFFFFFFFFFFFFF DUP13 DUP2 AND SWAP1 DUP3 AND EQ SWAP10 POP SWAP3 POP PUSH2 0x183C SWAP1 POP JUMP JUMPDEST PUSH1 0x3 DUP7 PUSH1 0x7 DUP2 GT ISZERO PUSH2 0x157F JUMPI INVALID JUMPDEST EQ ISZERO PUSH2 0x1725 JUMPI DUP9 MLOAD PUSH1 0x41 EQ PUSH2 0x15C0 JUMPI PUSH1 0x40 MLOAD PUSH32 0x8C379A000000000000000000000000000000000000000000000000000000000 DUP2 MSTORE PUSH1 0x4 ADD PUSH2 0x6C6 SWAP1 PUSH2 0x544E JUMP JUMPDEST DUP9 PUSH1 0x0 DUP2 MLOAD DUP2 LT ISZERO ISZERO PUSH2 0x15CF JUMPI INVALID JUMPDEST ADD PUSH1 0x20 ADD MLOAD PUSH32 0x100000000000000000000000000000000000000000000000000000000000000 SWAP1 DUP2 SWAP1 DIV DUP2 MUL DIV SWAP5 POP PUSH2 0x160F DUP10 PUSH1 0x1 PUSH4 0xFFFFFFFF PUSH2 0x2F51 AND JUMP JUMPDEST SWAP4 POP PUSH2 0x1622 DUP10 PUSH1 0x21 PUSH4 0xFFFFFFFF PUSH2 0x2F51 AND JUMP JUMPDEST SWAP3 POP PUSH1 0x1 DUP12 PUSH1 0x40 MLOAD PUSH1 0x20 ADD DUP1 DUP1 PUSH32 0x19457468657265756D205369676E6564204D6573736167653A0A333200000000 DUP2 MSTORE POP PUSH1 0x1C ADD DUP3 PUSH1 0x0 NOT AND PUSH1 0x0 NOT AND DUP2 MSTORE PUSH1 0x20 ADD SWAP2 POP POP PUSH1 0x40 MLOAD PUSH1 0x20 DUP2 DUP4 SUB SUB DUP2 MSTORE SWAP1 PUSH1 0x40 MSTORE PUSH1 0x40 MLOAD DUP1 DUP3 DUP1 MLOAD SWAP1 PUSH1 0x20 ADD SWAP1 DUP1 DUP4 DUP4 JUMPDEST PUSH1 0x20 DUP4 LT PUSH2 0x16C3 JUMPI DUP1 MLOAD DUP3 MSTORE PUSH32 0xFFFFFFFFFFFFFFFFFFFFFFFFFFFFFFFFFFFFFFFFFFFFFFFFFFFFFFFFFFFFFFE0 SWAP1 SWAP3 ADD SWAP2 PUSH1 0x20 SWAP2 DUP3 ADD SWAP2 ADD PUSH2 0x1686 JUMP JUMPDEST MLOAD DUP2 MLOAD PUSH1 0x20 SWAP4 DUP5 SUB PUSH2 0x100 EXP PUSH32 0xFFFFFFFFFFFFFFFFFFFFFFFFFFFFFFFFFFFFFFFFFFFFFFFFFFFFFFFFFFFFFFFF ADD DUP1 NOT SWAP1 SWAP3 AND SWAP2 AND OR SWAP1 MSTORE PUSH1 0x40 DUP1 MLOAD SWAP3 SWAP1 SWAP5 ADD DUP3 SWAP1 SUB DUP3 KECCAK256 PUSH1 0x0 DUP4 MSTORE SWAP2 ADD SWAP3 DUP4 SWAP1 MSTORE PUSH2 0x14FE SWAP5 POP SWAP3 POP DUP10 SWAP2 DUP10 SWAP2 POP DUP9 SWAP1 PUSH2 0x53DF JUMP JUMPDEST PUSH1 0x4 DUP7 PUSH1 0x7 DUP2 GT ISZERO PUSH2 0x1733 JUMPI INVALID JUMPDEST EQ ISZERO PUSH2 0x174B JUMPI PUSH2 0x1744 DUP12 DUP12 DUP12 PUSH2 0x2F9C JUMP JUMPDEST SWAP8 POP PUSH2 0x183C JUMP JUMPDEST PUSH1 0x5 DUP7 PUSH1 0x7 DUP2 GT ISZERO PUSH2 0x1759 JUMPI INVALID JUMPDEST EQ ISZERO PUSH2 0x17BC JUMPI PUSH2 0x1768 DUP10 PUSH2 0x30F1 JUMP JUMPDEST PUSH20 0xFFFFFFFFFFFFFFFFFFFFFFFFFFFFFFFFFFFFFFFF DUP1 DUP13 AND PUSH1 0x0 SWAP1 DUP2 MSTORE PUSH1 0x7 PUSH1 0x20 SWAP1 DUP2 MSTORE PUSH1 0x40 DUP1 DUP4 KECCAK256 SWAP4 DUP6 AND DUP4 MSTORE SWAP3 SWAP1 MSTORE KECCAK256 SLOAD SWAP1 SWAP2 POP PUSH1 0xFF AND ISZERO ISZERO PUSH2 0x17B0 JUMPI PUSH1 0x0 SWAP8 POP PUSH2 0x183C JUMP JUMPDEST PUSH2 0x1744 DUP2 DUP13 DUP13 DUP13 PUSH2 0x316A JUMP JUMPDEST PUSH1 0x6 DUP7 PUSH1 0x7 DUP2 GT ISZERO PUSH2 0x17CA JUMPI INVALID JUMPDEST EQ ISZERO PUSH2 0x180A JUMPI PUSH1 0x0 DUP12 DUP2 MSTORE PUSH1 0x6 PUSH1 0x20 SWAP1 DUP2 MSTORE PUSH1 0x40 DUP1 DUP4 KECCAK256 PUSH20 0xFFFFFFFFFFFFFFFFFFFFFFFFFFFFFFFFFFFFFFFF DUP15 AND DUP5 MSTORE SWAP1 SWAP2 MSTORE SWAP1 KECCAK256 SLOAD PUSH1 0xFF AND SWAP8 POP PUSH2 0x183C JUMP JUMPDEST PUSH1 0x40 MLOAD PUSH32 0x8C379A000000000000000000000000000000000000000000000000000000000 DUP2 MSTORE PUSH1 0x4 ADD PUSH2 0x6C6 SWAP1 PUSH2 0x54AE JUMP JUMPDEST POP POP POP POP POP POP POP SWAP4 SWAP3 POP POP POP JUMP JUMPDEST PUSH2 0x1852 PUSH2 0x41F7 JUMP JUMPDEST PUSH1 0x60 PUSH1 0x0 DUP1 PUSH1 0x0 DUP1 PUSH2 0x1862 PUSH2 0x41F7 JUMP JUMPDEST DUP10 PUSH1 0x0 DUP2 MLOAD DUP2 LT ISZERO ISZERO PUSH2 0x1871 JUMPI INVALID JUMPDEST SWAP1 PUSH1 0x20 ADD SWAP1 PUSH1 0x20 MUL ADD MLOAD PUSH2 0x140 ADD MLOAD SWAP6 POP DUP10 MLOAD SWAP5 POP PUSH1 0x0 SWAP4 POP JUMPDEST DUP4 DUP6 EQ PUSH2 0x1950 JUMPI DUP6 DUP11 DUP6 DUP2 MLOAD DUP2 LT ISZERO ISZERO PUSH2 0x18A1 JUMPI INVALID JUMPDEST PUSH1 0x20 SWAP1 DUP2 MUL SWAP1 SWAP2 ADD ADD MLOAD PUSH2 0x140 ADD MSTORE DUP7 MLOAD PUSH2 0x18BD SWAP1 DUP11 SWAP1 PUSH2 0x2E46 JUMP JUMPDEST SWAP3 POP PUSH2 0x1900 DUP11 DUP6 DUP2 MLOAD DUP2 LT ISZERO ISZERO PUSH2 0x18D0 JUMPI INVALID JUMPDEST SWAP1 PUSH1 0x20 ADD SWAP1 PUSH1 0x20 MUL ADD MLOAD PUSH1 0xA0 ADD MLOAD DUP12 DUP7 DUP2 MLOAD DUP2 LT ISZERO ISZERO PUSH2 0x18EC JUMPI INVALID JUMPDEST SWAP1 PUSH1 0x20 ADD SWAP1 PUSH1 0x20 MUL ADD MLOAD PUSH1 0x80 ADD MLOAD DUP6 PUSH2 0x32C6 JUMP JUMPDEST SWAP2 POP PUSH2 0x192C DUP11 DUP6 DUP2 MLOAD DUP2 LT ISZERO ISZERO PUSH2 0x1913 JUMPI INVALID JUMPDEST SWAP1 PUSH1 0x20 ADD SWAP1 PUSH1 0x20 MUL ADD MLOAD DUP4 DUP11 DUP8 DUP2 MLOAD DUP2 LT ISZERO ISZERO PUSH2 0xDFA JUMPI INVALID JUMPDEST SWAP1 POP PUSH2 0x1938 DUP8 DUP3 PUSH2 0x24C1 JUMP JUMPDEST DUP7 MLOAD DUP10 GT PUSH2 0x1945 JUMPI PUSH2 0x1950 JUMP JUMPDEST PUSH1 0x1 SWAP1 SWAP4 ADD SWAP3 PUSH2 0x188B JUMP JUMPDEST POP POP POP POP POP POP SWAP4 SWAP3 POP POP POP JUMP JUMPDEST PUSH2 0x1965 PUSH2 0x41F7 JUMP JUMPDEST PUSH1 0x0 SLOAD PUSH1 0xFF AND ISZERO PUSH2 0x19A2 JUMPI PUSH1 0x40 MLOAD PUSH32 0x8C379A000000000000000000000000000000000000000000000000000000000 DUP2 MSTORE PUSH1 0x4 ADD PUSH2 0x6C6 SWAP1 PUSH2 0x55DE JUMP JUMPDEST PUSH1 0x0 DUP1 SLOAD PUSH32 0xFFFFFFFFFFFFFFFFFFFFFFFFFFFFFFFFFFFFFFFFFFFFFFFFFFFFFFFFFFFFFF00 AND PUSH1 0x1 OR SWAP1 SSTORE PUSH2 0xF08 DUP5 DUP5 DUP5 PUSH2 0x2423 JUMP JUMPDEST PUSH1 0x9 SLOAD PUSH1 0x0 SWAP1 PUSH20 0xFFFFFFFFFFFFFFFFFFFFFFFFFFFFFFFFFFFFFFFF AND ISZERO PUSH2 0x1A2B JUMPI PUSH1 0x40 MLOAD PUSH32 0x8C379A000000000000000000000000000000000000000000000000000000000 DUP2 MSTORE PUSH1 0x4 ADD PUSH2 0x6C6 SWAP1 PUSH2 0x55DE JUMP JUMPDEST PUSH2 0x1A6E PUSH2 0x1A69 DUP9 DUP9 DUP9 DUP9 DUP1 DUP1 PUSH1 0x1F ADD PUSH1 0x20 DUP1 SWAP2 DIV MUL PUSH1 0x20 ADD PUSH1 0x40 MLOAD SWAP1 DUP2 ADD PUSH1 0x40 MSTORE DUP1 SWAP4 SWAP3 SWAP2 SWAP1 DUP2 DUP2 MSTORE PUSH1 0x20 ADD DUP4 DUP4 DUP1 DUP3 DUP5 CALLDATACOPY POP PUSH2 0x331C SWAP5 POP POP POP POP POP JUMP JUMPDEST PUSH2 0x355D JUMP JUMPDEST PUSH1 0x0 DUP2 DUP2 MSTORE PUSH1 0x8 PUSH1 0x20 MSTORE PUSH1 0x40 SWAP1 KECCAK256 SLOAD SWAP1 SWAP2 POP PUSH1 0xFF AND ISZERO PUSH2 0x1ABA JUMPI PUSH1 0x40 MLOAD PUSH32 0x8C379A000000000000000000000000000000000000000000000000000000000 DUP2 MSTORE PUSH1 0x4 ADD PUSH2 0x6C6 SWAP1 PUSH2 0x54FE JUMP JUMPDEST PUSH20 0xFFFFFFFFFFFFFFFFFFFFFFFFFFFFFFFFFFFFFFFF DUP7 AND CALLER EQ PUSH2 0x1B8B JUMPI PUSH2 0x1B12 DUP2 DUP8 DUP6 DUP6 DUP1 DUP1 PUSH1 0x1F ADD PUSH1 0x20 DUP1 SWAP2 DIV MUL PUSH1 0x20 ADD PUSH1 0x40 MLOAD SWAP1 DUP2 ADD PUSH1 0x40 MSTORE DUP1 SWAP4 SWAP3 SWAP2 SWAP1 DUP2 DUP2 MSTORE PUSH1 0x20 ADD DUP4 DUP4 DUP1 DUP3 DUP5 CALLDATACOPY POP PUSH2 0x12C7 SWAP5 POP POP POP POP POP JUMP JUMPDEST ISZERO ISZERO PUSH2 0x1B4A JUMPI PUSH1 0x40 MLOAD PUSH32 0x8C379A000000000000000000000000000000000000000000000000000000000 DUP2 MSTORE PUSH1 0x4 ADD PUSH2 0x6C6 SWAP1 PUSH2 0x563E JUMP JUMPDEST PUSH1 0x9 DUP1 SLOAD PUSH32 0xFFFFFFFFFFFFFFFFFFFFFFFF0000000000000000000000000000000000000000 AND PUSH20 0xFFFFFFFFFFFFFFFFFFFFFFFFFFFFFFFFFFFFFFFF DUP9 AND OR SWAP1 SSTORE JUMPDEST PUSH1 0x0 DUP2 DUP2 MSTORE PUSH1 0x8 PUSH1 0x20 MSTORE PUSH1 0x40 SWAP1 DUP2 SWAP1 KECCAK256 DUP1 SLOAD PUSH32 0xFFFFFFFFFFFFFFFFFFFFFFFFFFFFFFFFFFFFFFFFFFFFFFFFFFFFFFFFFFFFFF00 AND PUSH1 0x1 OR SWAP1 SSTORE MLOAD ADDRESS SWAP1 DUP7 SWAP1 DUP7 SWAP1 DUP1 DUP4 DUP4 DUP1 DUP3 DUP5 CALLDATACOPY DUP3 ADD SWAP2 POP POP SWAP3 POP POP POP PUSH1 0x0 PUSH1 0x40 MLOAD DUP1 DUP4 SUB DUP2 DUP6 GAS DELEGATECALL SWAP2 POP POP ISZERO ISZERO PUSH2 0x1C22 JUMPI PUSH1 0x40 MLOAD PUSH32 0x8C379A000000000000000000000000000000000000000000000000000000000 DUP2 MSTORE PUSH1 0x4 ADD PUSH2 0x6C6 SWAP1 PUSH2 0x552E JUMP JUMPDEST PUSH20 0xFFFFFFFFFFFFFFFFFFFFFFFFFFFFFFFFFFFFFFFF DUP7 AND CALLER EQ PUSH2 0x1C68 JUMPI PUSH1 0x9 DUP1 SLOAD PUSH32 0xFFFFFFFFFFFFFFFFFFFFFFFF0000000000000000000000000000000000000000 AND SWAP1 SSTORE JUMPDEST POP POP POP POP POP POP POP JUMP JUMPDEST PUSH1 0x2 SLOAD PUSH1 0x0 SWAP1 DUP2 SWAP1 DUP2 SWAP1 PUSH20 0xFFFFFFFFFFFFFFFFFFFFFFFFFFFFFFFFFFFFFFFF AND CALLER EQ PUSH2 0x1CC9 JUMPI PUSH1 0x40 MLOAD PUSH32 0x8C379A000000000000000000000000000000000000000000000000000000000 DUP2 MSTORE PUSH1 0x4 ADD PUSH2 0x6C6 SWAP1 PUSH2 0x55EE JUMP JUMPDEST DUP4 SWAP3 POP DUP3 PUSH20 0xFFFFFFFFFFFFFFFFFFFFFFFFFFFFFFFFFFFFFFFF AND PUSH4 0xAE25532E PUSH1 0x40 MLOAD DUP2 PUSH4 0xFFFFFFFF AND PUSH29 0x100000000000000000000000000000000000000000000000000000000 MUL DUP2 MSTORE PUSH1 0x4 ADD PUSH1 0x20 PUSH1 0x40 MLOAD DUP1 DUP4 SUB DUP2 PUSH1 0x0 DUP8 DUP1 EXTCODESIZE ISZERO DUP1 ISZERO PUSH2 0x1D30 JUMPI PUSH1 0x0 DUP1 REVERT JUMPDEST POP GAS CALL ISZERO DUP1 ISZERO PUSH2 0x1D44 JUMPI RETURNDATASIZE PUSH1 0x0 DUP1 RETURNDATACOPY RETURNDATASIZE PUSH1 0x0 REVERT JUMPDEST POP POP POP POP PUSH1 0x40 MLOAD RETURNDATASIZE PUSH1 0x1F NOT PUSH1 0x1F DUP3 ADD AND DUP3 ADD DUP1 PUSH1 0x40 MSTORE POP PUSH2 0x1D68 SWAP2 SWAP1 DUP2 ADD SWAP1 PUSH2 0x487D JUMP JUMPDEST PUSH32 0xFFFFFFFF00000000000000000000000000000000000000000000000000000000 DUP2 AND PUSH1 0x0 SWAP1 DUP2 MSTORE PUSH1 0xA PUSH1 0x20 MSTORE PUSH1 0x40 SWAP1 KECCAK256 SLOAD SWAP1 SWAP3 POP PUSH20 0xFFFFFFFFFFFFFFFFFFFFFFFFFFFFFFFFFFFFFFFF AND SWAP1 POP DUP1 ISZERO PUSH2 0x1DED JUMPI PUSH1 0x40 MLOAD PUSH32 0x8C379A000000000000000000000000000000000000000000000000000000000 DUP2 MSTORE PUSH1 0x4 ADD PUSH2 0x6C6 SWAP1 PUSH2 0x548E JUMP JUMPDEST PUSH32 0xFFFFFFFF00000000000000000000000000000000000000000000000000000000 DUP3 AND PUSH1 0x0 SWAP1 DUP2 MSTORE PUSH1 0xA PUSH1 0x20 MSTORE PUSH1 0x40 SWAP1 DUP2 SWAP1 KECCAK256 DUP1 SLOAD PUSH32 0xFFFFFFFFFFFFFFFFFFFFFFFF0000000000000000000000000000000000000000 AND PUSH20 0xFFFFFFFFFFFFFFFFFFFFFFFFFFFFFFFFFFFFFFFF DUP7 AND OR SWAP1 SSTORE MLOAD PUSH32 0xD2C6B762299C609BDB96520B58A49BFB80186934D4F71A86A367571A15C03194 SWAP1 PUSH2 0x1E8E SWAP1 DUP5 SWAP1 DUP8 SWAP1 PUSH2 0x5414 JUMP JUMPDEST PUSH1 0x40 MLOAD DUP1 SWAP2 SUB SWAP1 LOG1 POP POP POP POP JUMP JUMPDEST PUSH2 0x1EA4 PUSH2 0x424F JUMP JUMPDEST PUSH2 0x1EAD DUP3 PUSH2 0x359D JUMP JUMPDEST PUSH1 0x20 DUP1 DUP4 ADD DUP3 SWAP1 MSTORE PUSH1 0x0 SWAP2 DUP3 MSTORE PUSH1 0x3 SWAP1 MSTORE PUSH1 0x40 SWAP1 DUP2 SWAP1 KECCAK256 SLOAD SWAP1 DUP3 ADD MSTORE PUSH1 0x80 DUP3 ADD MLOAD ISZERO ISZERO PUSH2 0x1EE1 JUMPI PUSH1 0x1 JUMPDEST PUSH1 0xFF AND DUP2 MSTORE PUSH2 0xE73 JUMP JUMPDEST PUSH1 0xA0 DUP3 ADD MLOAD ISZERO ISZERO PUSH2 0x1EF3 JUMPI PUSH1 0x2 PUSH2 0x1ED7 JUMP JUMPDEST PUSH1 0xA0 DUP3 ADD MLOAD PUSH1 0x40 DUP3 ADD MLOAD LT PUSH2 0x1F09 JUMPI PUSH1 0x5 PUSH2 0x1ED7 JUMP JUMPDEST PUSH2 0x100 DUP3 ADD MLOAD TIMESTAMP LT PUSH2 0x1F1C JUMPI PUSH1 0x4 PUSH2 0x1ED7 JUMP JUMPDEST PUSH1 0x20 DUP1 DUP3 ADD MLOAD PUSH1 0x0 SWAP1 DUP2 MSTORE PUSH1 0x4 SWAP1 SWAP2 MSTORE PUSH1 0x40 SWAP1 KECCAK256 SLOAD PUSH1 0xFF AND ISZERO PUSH2 0x1F40 JUMPI PUSH1 0x6 PUSH2 0x1ED7 JUMP JUMPDEST PUSH2 0x120 DUP3 ADD MLOAD DUP3 MLOAD PUSH20 0xFFFFFFFFFFFFFFFFFFFFFFFFFFFFFFFFFFFFFFFF SWAP1 DUP2 AND PUSH1 0x0 SWAP1 DUP2 MSTORE PUSH1 0x5 PUSH1 0x20 SWAP1 DUP2 MSTORE PUSH1 0x40 DUP1 DUP4 KECCAK256 PUSH1 0x60 DUP9 ADD MLOAD SWAP1 SWAP5 AND DUP4 MSTORE SWAP3 SWAP1 MSTORE KECCAK256 SLOAD GT ISZERO PUSH2 0x1F8D JUMPI PUSH1 0x6 PUSH2 0x1ED7 JUMP JUMPDEST PUSH1 0x3 DUP2 MSTORE SWAP2 SWAP1 POP JUMP JUMPDEST PUSH2 0x1F9E PUSH2 0x424F JUMP JUMPDEST PUSH1 0x0 SLOAD PUSH1 0xFF AND ISZERO PUSH2 0x1FDB JUMPI PUSH1 0x40 MLOAD PUSH32 0x8C379A000000000000000000000000000000000000000000000000000000000 DUP2 MSTORE PUSH1 0x4 ADD PUSH2 0x6C6 SWAP1 PUSH2 0x55DE JUMP JUMPDEST PUSH1 0x0 DUP1 SLOAD PUSH32 0xFFFFFFFFFFFFFFFFFFFFFFFFFFFFFFFFFFFFFFFFFFFFFFFFFFFFFFFFFFFFFF00 AND PUSH1 0x1 OR SWAP1 SSTORE PUSH2 0x200F DUP3 PUSH2 0x1E9C JUMP JUMPDEST SWAP1 POP PUSH2 0x201B DUP3 DUP3 PUSH2 0x35AB JUMP JUMPDEST PUSH2 0x2029 DUP3 DUP3 PUSH1 0x20 ADD MLOAD PUSH2 0x36BD JUMP JUMPDEST POP POP PUSH1 0x0 DUP1 SLOAD PUSH32 0xFFFFFFFFFFFFFFFFFFFFFFFFFFFFFFFFFFFFFFFFFFFFFFFFFFFFFFFFFFFFFF00 AND SWAP1 SSTORE JUMP JUMPDEST PUSH1 0x5 PUSH1 0x20 SWAP1 DUP2 MSTORE PUSH1 0x0 SWAP3 DUP4 MSTORE PUSH1 0x40 DUP1 DUP5 KECCAK256 SWAP1 SWAP2 MSTORE SWAP1 DUP3 MSTORE SWAP1 KECCAK256 SLOAD DUP2 JUMP JUMPDEST PUSH1 0x60 PUSH1 0x40 MLOAD SWAP1 DUP2 ADD PUSH1 0x40 MSTORE DUP1 PUSH1 0x24 DUP2 MSTORE PUSH1 0x20 ADD PUSH32 0xF47261B0000000000000000000000000E41D2489571D322189246DAFA5EBDE1F DUP2 MSTORE PUSH1 0x20 ADD PUSH32 0x4699F49800000000000000000000000000000000000000000000000000000000 DUP2 MSTORE POP DUP2 JUMP JUMPDEST PUSH2 0x20DA PUSH2 0x41F7 JUMP JUMPDEST PUSH1 0x60 PUSH1 0x0 DUP1 PUSH1 0x0 PUSH2 0x20E9 PUSH2 0x41F7 JUMP JUMPDEST DUP9 PUSH1 0x0 DUP2 MLOAD DUP2 LT ISZERO ISZERO PUSH2 0x20F8 JUMPI INVALID JUMPDEST SWAP1 PUSH1 0x20 ADD SWAP1 PUSH1 0x20 MUL ADD MLOAD PUSH2 0x160 ADD MLOAD SWAP5 POP DUP9 MLOAD SWAP4 POP PUSH1 0x0 SWAP3 POP JUMPDEST DUP3 DUP5 EQ PUSH2 0x219B JUMPI DUP5 DUP10 DUP5 DUP2 MLOAD DUP2 LT ISZERO ISZERO PUSH2 0x2128 JUMPI INVALID JUMPDEST SWAP1 PUSH1 0x20 ADD SWAP1 PUSH1 0x20 MUL ADD MLOAD PUSH2 0x160 ADD DUP2 SWAP1 MSTORE POP PUSH2 0x2148 DUP9 DUP8 PUSH1 0x20 ADD MLOAD PUSH2 0x2E46 JUMP JUMPDEST SWAP2 POP PUSH2 0x2174 DUP10 DUP5 DUP2 MLOAD DUP2 LT ISZERO ISZERO PUSH2 0x215B JUMPI INVALID JUMPDEST SWAP1 PUSH1 0x20 ADD SWAP1 PUSH1 0x20 MUL ADD MLOAD DUP4 DUP10 DUP7 DUP2 MLOAD DUP2 LT ISZERO ISZERO PUSH2 0xDFA JUMPI INVALID JUMPDEST SWAP1 POP PUSH2 0x2180 DUP7 DUP3 PUSH2 0x24C1 JUMP JUMPDEST PUSH1 0x20 DUP7 ADD MLOAD DUP9 GT PUSH2 0x2190 JUMPI PUSH2 0x219B JUMP JUMPDEST PUSH1 0x1 SWAP1 SWAP3 ADD SWAP2 PUSH2 0x2112 JUMP JUMPDEST POP POP POP POP POP SWAP4 SWAP3 POP POP POP JUMP JUMPDEST PUSH1 0x1 SLOAD DUP2 JUMP JUMPDEST PUSH2 0x21B5 PUSH2 0x41F7 JUMP JUMPDEST PUSH1 0x60 PUSH1 0x0 DUP1 PUSH1 0x0 DUP1 PUSH2 0x21C5 PUSH2 0x41F7 JUMP JUMPDEST PUSH1 0x0 SLOAD PUSH1 0xFF AND ISZERO PUSH2 0x2202 JUMPI PUSH1 0x40 MLOAD PUSH32 0x8C379A000000000000000000000000000000000000000000000000000000000 DUP2 MSTORE PUSH1 0x4 ADD PUSH2 0x6C6 SWAP1 PUSH2 0x55DE JUMP JUMPDEST PUSH1 0x0 DUP1 SLOAD PUSH32 0xFFFFFFFFFFFFFFFFFFFFFFFFFFFFFFFFFFFFFFFFFFFFFFFFFFFFFFFFFFFFFF00 AND PUSH1 0x1 OR DUP2 SSTORE DUP11 MLOAD DUP12 SWAP2 SWAP1 DUP2 LT PUSH2 0x223A JUMPI INVALID JUMPDEST SWAP1 PUSH1 0x20 ADD SWAP1 PUSH1 0x20 MUL ADD MLOAD PUSH2 0x140 ADD MLOAD SWAP6 POP DUP10 MLOAD SWAP5 POP PUSH1 0x0 SWAP4 POP JUMPDEST DUP4 DUP6 EQ PUSH2 0x22E9 JUMPI DUP6 DUP11 DUP6 DUP2 MLOAD DUP2 LT ISZERO ISZERO PUSH2 0x226A JUMPI INVALID JUMPDEST PUSH1 0x20 SWAP1 DUP2 MUL SWAP1 SWAP2 ADD ADD MLOAD PUSH2 0x140 ADD MSTORE DUP7 MLOAD PUSH2 0x2286 SWAP1 DUP11 SWAP1 PUSH2 0x2E46 JUMP JUMPDEST SWAP3 POP PUSH2 0x2299 DUP11 DUP6 DUP2 MLOAD DUP2 LT ISZERO ISZERO PUSH2 0x18D0 JUMPI INVALID JUMPDEST SWAP2 POP PUSH2 0x22C5 DUP11 DUP6 DUP2 MLOAD DUP2 LT ISZERO ISZERO PUSH2 0x22AC JUMPI INVALID JUMPDEST SWAP1 PUSH1 0x20 ADD SWAP1 PUSH1 0x20 MUL ADD MLOAD DUP4 DUP11 DUP8 DUP2 MLOAD DUP2 LT ISZERO ISZERO PUSH2 0x749 JUMPI INVALID JUMPDEST SWAP1 POP PUSH2 0x22D1 DUP8 DUP3 PUSH2 0x24C1 JUMP JUMPDEST DUP7 MLOAD DUP10 GT PUSH2 0x22DE JUMPI PUSH2 0x22E9 JUMP JUMPDEST PUSH1 0x1 SWAP1 SWAP4 ADD SWAP3 PUSH2 0x2254 JUMP JUMPDEST POP POP PUSH1 0x0 DUP1 SLOAD PUSH32 0xFFFFFFFFFFFFFFFFFFFFFFFFFFFFFFFFFFFFFFFFFFFFFFFFFFFFFFFFFFFFFF00 AND SWAP1 SSTORE POP SWAP3 SWAP7 SWAP6 POP POP POP POP POP POP JUMP JUMPDEST PUSH1 0x9 SLOAD PUSH20 0xFFFFFFFFFFFFFFFFFFFFFFFFFFFFFFFFFFFFFFFF AND DUP2 JUMP JUMPDEST PUSH1 0x2 SLOAD PUSH20 0xFFFFFFFFFFFFFFFFFFFFFFFFFFFFFFFFFFFFFFFF AND CALLER EQ PUSH2 0x238C JUMPI PUSH1 0x40 MLOAD PUSH32 0x8C379A000000000000000000000000000000000000000000000000000000000 DUP2 MSTORE PUSH1 0x4 ADD PUSH2 0x6C6 SWAP1 PUSH2 0x55EE JUMP JUMPDEST PUSH20 0xFFFFFFFFFFFFFFFFFFFFFFFFFFFFFFFFFFFFFFFF DUP2 AND ISZERO PUSH2 0x23E9 JUMPI PUSH1 0x2 DUP1 SLOAD PUSH32 0xFFFFFFFFFFFFFFFFFFFFFFFF0000000000000000000000000000000000000000 AND PUSH20 0xFFFFFFFFFFFFFFFFFFFFFFFFFFFFFFFFFFFFFFFF DUP4 AND OR SWAP1 SSTORE JUMPDEST POP JUMP JUMPDEST PUSH1 0x40 DUP1 MLOAD DUP1 DUP3 ADD SWAP1 SWAP2 MSTORE PUSH1 0x5 DUP2 MSTORE PUSH32 0x322E302E30000000000000000000000000000000000000000000000000000000 PUSH1 0x20 DUP3 ADD MSTORE DUP2 JUMP JUMPDEST PUSH2 0x242B PUSH2 0x41F7 JUMP JUMPDEST PUSH2 0x2433 PUSH2 0x424F JUMP JUMPDEST PUSH1 0x0 DUP1 PUSH1 0x0 PUSH2 0x2441 DUP9 PUSH2 0x1E9C JUMP JUMPDEST SWAP4 POP PUSH2 0x244B PUSH2 0x2523 JUMP JUMPDEST SWAP3 POP PUSH2 0x2459 DUP9 DUP6 DUP6 DUP10 PUSH2 0x2555 JUMP JUMPDEST PUSH2 0x246B DUP9 PUSH1 0xA0 ADD MLOAD DUP6 PUSH1 0x40 ADD MLOAD PUSH2 0x2E46 JUMP JUMPDEST SWAP2 POP PUSH2 0x2477 DUP8 DUP4 PUSH2 0x3764 JUMP JUMPDEST SWAP1 POP PUSH2 0x248A DUP9 DUP6 DUP10 DUP5 DUP10 PUSH1 0x0 ADD MLOAD PUSH2 0x28D4 JUMP JUMPDEST PUSH2 0x2494 DUP9 DUP3 PUSH2 0x377A JUMP JUMPDEST SWAP5 POP PUSH2 0x24AB DUP9 DUP5 DUP7 PUSH1 0x20 ADD MLOAD DUP8 PUSH1 0x40 ADD MLOAD DUP10 PUSH2 0x29ED JUMP JUMPDEST PUSH2 0x24B6 DUP9 DUP5 DUP8 PUSH2 0x37DB JUMP JUMPDEST POP POP POP POP SWAP4 SWAP3 POP POP POP JUMP JUMPDEST DUP2 MLOAD DUP2 MLOAD PUSH2 0x24CF SWAP2 SWAP1 PUSH2 0x3893 JUMP JUMPDEST DUP3 MSTORE PUSH1 0x20 DUP1 DUP4 ADD MLOAD SWAP1 DUP3 ADD MLOAD PUSH2 0x24E5 SWAP2 SWAP1 PUSH2 0x3893 JUMP JUMPDEST PUSH1 0x20 DUP4 ADD MSTORE PUSH1 0x40 DUP1 DUP4 ADD MLOAD SWAP1 DUP3 ADD MLOAD PUSH2 0x24FE SWAP2 SWAP1 PUSH2 0x3893 JUMP JUMPDEST PUSH1 0x40 DUP4 ADD MSTORE PUSH1 0x60 DUP1 DUP4 ADD MLOAD SWAP1 DUP3 ADD MLOAD PUSH2 0x2517 SWAP2 SWAP1 PUSH2 0x3893 JUMP JUMPDEST PUSH1 0x60 SWAP1 SWAP3 ADD SWAP2 SWAP1 SWAP2 MSTORE POP JUMP JUMPDEST PUSH1 0x9 SLOAD PUSH1 0x0 SWAP1 PUSH20 0xFFFFFFFFFFFFFFFFFFFFFFFFFFFFFFFFFFFFFFFF AND DUP2 DUP2 ISZERO PUSH2 0x254C JUMPI DUP2 PUSH2 0x254E JUMP JUMPDEST CALLER JUMPDEST SWAP4 SWAP3 POP POP POP JUMP JUMPDEST DUP3 MLOAD PUSH1 0xFF AND PUSH1 0x3 EQ PUSH2 0x2593 JUMPI PUSH1 0x40 MLOAD PUSH32 0x8C379A000000000000000000000000000000000000000000000000000000000 DUP2 MSTORE PUSH1 0x4 ADD PUSH2 0x6C6 SWAP1 PUSH2 0x560E JUMP JUMPDEST PUSH1 0x60 DUP5 ADD MLOAD PUSH20 0xFFFFFFFFFFFFFFFFFFFFFFFFFFFFFFFFFFFFFFFF AND ISZERO PUSH2 0x2606 JUMPI PUSH1 0x60 DUP5 ADD MLOAD PUSH20 0xFFFFFFFFFFFFFFFFFFFFFFFFFFFFFFFFFFFFFFFF AND CALLER EQ PUSH2 0x2606 JUMPI PUSH1 0x40 MLOAD PUSH32 0x8C379A000000000000000000000000000000000000000000000000000000000 DUP2 MSTORE PUSH1 0x4 ADD PUSH2 0x6C6 SWAP1 PUSH2 0x561E JUMP JUMPDEST PUSH1 0x20 DUP5 ADD MLOAD PUSH20 0xFFFFFFFFFFFFFFFFFFFFFFFFFFFFFFFFFFFFFFFF AND ISZERO PUSH2 0x2691 JUMPI DUP2 PUSH20 0xFFFFFFFFFFFFFFFFFFFFFFFFFFFFFFFFFFFFFFFF AND DUP5 PUSH1 0x20 ADD MLOAD PUSH20 0xFFFFFFFFFFFFFFFFFFFFFFFFFFFFFFFFFFFFFFFF AND EQ ISZERO ISZERO PUSH2 0x2691 JUMPI PUSH1 0x40 MLOAD PUSH32 0x8C379A000000000000000000000000000000000000000000000000000000000 DUP2 MSTORE PUSH1 0x4 ADD PUSH2 0x6C6 SWAP1 PUSH2 0x545E JUMP JUMPDEST PUSH1 0x40 DUP4 ADD MLOAD ISZERO ISZERO PUSH2 0x26E7 JUMPI PUSH2 0x26AF DUP4 PUSH1 0x20 ADD MLOAD DUP6 PUSH1 0x0 ADD MLOAD DUP4 PUSH2 0x12C7 JUMP JUMPDEST ISZERO ISZERO PUSH2 0x26E7 JUMPI PUSH1 0x40 MLOAD PUSH32 0x8C379A000000000000000000000000000000000000000000000000000000000 DUP2 MSTORE PUSH1 0x4 ADD PUSH2 0x6C6 SWAP1 PUSH2 0x54CE JUMP JUMPDEST POP POP POP POP JUMP JUMPDEST PUSH2 0x26FF DUP3 PUSH1 0xA0 ADD MLOAD DUP3 PUSH1 0xA0 ADD MLOAD PUSH2 0x38DD JUMP JUMPDEST PUSH2 0x2711 DUP4 PUSH1 0x80 ADD MLOAD DUP4 PUSH1 0x80 ADD MLOAD PUSH2 0x38DD JUMP JUMPDEST LT ISZERO PUSH2 0x2749 JUMPI PUSH1 0x40 MLOAD PUSH32 0x8C379A000000000000000000000000000000000000000000000000000000000 DUP2 MSTORE PUSH1 0x4 ADD PUSH2 0x6C6 SWAP1 PUSH2 0x562E JUMP JUMPDEST POP POP JUMP JUMPDEST PUSH2 0x2755 PUSH2 0x4220 JUMP JUMPDEST PUSH1 0x0 DUP1 PUSH1 0x0 DUP1 PUSH2 0x2769 DUP10 PUSH1 0xA0 ADD MLOAD DUP9 PUSH2 0x2E46 JUMP JUMPDEST SWAP4 POP PUSH2 0x277E DUP10 PUSH1 0x80 ADD MLOAD DUP11 PUSH1 0xA0 ADD MLOAD DUP7 PUSH2 0x3938 JUMP JUMPDEST SWAP3 POP PUSH2 0x278E DUP9 PUSH1 0xA0 ADD MLOAD DUP8 PUSH2 0x2E46 JUMP JUMPDEST SWAP2 POP PUSH2 0x27A3 DUP9 PUSH1 0x80 ADD MLOAD DUP10 PUSH1 0xA0 ADD MLOAD DUP5 PUSH2 0x3938 JUMP JUMPDEST SWAP1 POP DUP1 DUP5 LT PUSH2 0x27E6 JUMPI PUSH1 0x20 DUP1 DUP7 ADD DUP1 MLOAD DUP4 SWAP1 MSTORE DUP1 MLOAD DUP3 ADD DUP5 SWAP1 MSTORE MLOAD MLOAD DUP7 MLOAD DUP3 ADD MSTORE PUSH1 0x80 DUP11 ADD MLOAD PUSH1 0xA0 DUP12 ADD MLOAD DUP8 MLOAD SWAP1 SWAP3 ADD MLOAD PUSH2 0x27DE SWAP3 SWAP1 PUSH2 0x3938 JUMP JUMPDEST DUP6 MLOAD MSTORE PUSH2 0x2823 JUMP JUMPDEST DUP5 MLOAD DUP4 SWAP1 MSTORE DUP5 MLOAD PUSH1 0x20 SWAP1 DUP2 ADD DUP6 SWAP1 MSTORE DUP6 MLOAD DUP2 ADD MLOAD SWAP1 DUP7 ADD DUP1 MLOAD SWAP2 SWAP1 SWAP2 MSTORE PUSH1 0xA0 DUP10 ADD MLOAD PUSH1 0x80 DUP11 ADD MLOAD SWAP2 MLOAD MLOAD PUSH2 0x281A SWAP3 SWAP1 PUSH2 0x39B5 JUMP JUMPDEST PUSH1 0x20 DUP1 DUP8 ADD MLOAD ADD MSTORE JUMPDEST DUP5 MLOAD MLOAD PUSH1 0x20 DUP1 DUP8 ADD MLOAD ADD MLOAD PUSH2 0x2838 SWAP2 SWAP1 PUSH2 0x2E46 JUMP JUMPDEST PUSH1 0x40 DUP7 ADD MSTORE DUP5 MLOAD MLOAD PUSH1 0x80 DUP11 ADD MLOAD PUSH1 0xC0 DUP12 ADD MLOAD PUSH2 0x2855 SWAP3 SWAP2 SWAP1 PUSH2 0x3938 JUMP JUMPDEST DUP6 MLOAD PUSH1 0x40 ADD MSTORE DUP5 MLOAD PUSH1 0x20 ADD MLOAD PUSH1 0xA0 DUP11 ADD MLOAD PUSH1 0xE0 DUP12 ADD MLOAD PUSH2 0x2876 SWAP3 SWAP2 SWAP1 PUSH2 0x3938 JUMP JUMPDEST DUP6 MLOAD PUSH1 0x60 ADD MSTORE PUSH1 0x20 DUP6 ADD MLOAD MLOAD PUSH1 0x80 DUP10 ADD MLOAD PUSH1 0xC0 DUP11 ADD MLOAD PUSH2 0x2897 SWAP3 SWAP2 SWAP1 PUSH2 0x3938 JUMP JUMPDEST DUP6 PUSH1 0x20 ADD MLOAD PUSH1 0x40 ADD DUP2 DUP2 MSTORE POP POP PUSH2 0x28BF DUP6 PUSH1 0x20 ADD MLOAD PUSH1 0x20 ADD MLOAD DUP10 PUSH1 0xA0 ADD MLOAD DUP11 PUSH1 0xE0 ADD MLOAD PUSH2 0x3938 JUMP JUMPDEST PUSH1 0x20 DUP7 ADD MLOAD PUSH1 0x60 ADD MSTORE POP POP POP POP SWAP5 SWAP4 POP POP POP POP JUMP JUMPDEST DUP3 ISZERO ISZERO PUSH2 0x290D JUMPI PUSH1 0x40 MLOAD PUSH32 0x8C379A000000000000000000000000000000000000000000000000000000000 DUP2 MSTORE PUSH1 0x4 ADD PUSH2 0x6C6 SWAP1 PUSH2 0x554E JUMP JUMPDEST DUP3 DUP3 GT ISZERO PUSH2 0x2947 JUMPI PUSH1 0x40 MLOAD PUSH32 0x8C379A000000000000000000000000000000000000000000000000000000000 DUP2 MSTORE PUSH1 0x4 ADD PUSH2 0x6C6 SWAP1 PUSH2 0x553E JUMP JUMPDEST DUP5 PUSH1 0xA0 ADD MLOAD PUSH2 0x295A DUP6 PUSH1 0x40 ADD MLOAD DUP5 PUSH2 0x3893 JUMP JUMPDEST GT ISZERO PUSH2 0x2992 JUMPI PUSH1 0x40 MLOAD PUSH32 0x8C379A000000000000000000000000000000000000000000000000000000000 DUP2 MSTORE PUSH1 0x4 ADD PUSH2 0x6C6 SWAP1 PUSH2 0x546E JUMP JUMPDEST PUSH2 0x29A0 DUP6 PUSH1 0x80 ADD MLOAD DUP4 PUSH2 0x38DD JUMP JUMPDEST PUSH2 0x29AE DUP3 DUP8 PUSH1 0xA0 ADD MLOAD PUSH2 0x38DD JUMP JUMPDEST GT ISZERO PUSH2 0x29E6 JUMPI PUSH1 0x40 MLOAD PUSH32 0x8C379A000000000000000000000000000000000000000000000000000000000 DUP2 MSTORE PUSH1 0x4 ADD PUSH2 0x6C6 SWAP1 PUSH2 0x55CE JUMP JUMPDEST POP POP POP POP POP JUMP JUMPDEST PUSH2 0x29FB DUP3 DUP3 PUSH1 0x20 ADD MLOAD PUSH2 0x3893 JUMP JUMPDEST PUSH1 0x0 DUP5 DUP2 MSTORE PUSH1 0x3 PUSH1 0x20 SWAP1 DUP2 MSTORE PUSH1 0x40 SWAP2 DUP3 SWAP1 KECCAK256 SWAP3 SWAP1 SWAP3 SSTORE DUP7 DUP2 ADD MLOAD DUP8 MLOAD DUP5 MLOAD SWAP4 DUP6 ADD MLOAD DUP6 DUP5 ADD MLOAD PUSH1 0x60 DUP8 ADD MLOAD PUSH2 0x140 DUP13 ADD MLOAD PUSH2 0x160 DUP14 ADD MLOAD SWAP7 MLOAD DUP12 SWAP9 PUSH20 0xFFFFFFFFFFFFFFFFFFFFFFFFFFFFFFFFFFFFFFFF SWAP8 DUP9 AND SWAP9 SWAP8 SWAP1 SWAP7 AND SWAP7 PUSH32 0xBCC4C97732E47D9946F229EDB95F5B6323F601300E4690DE719993F3C371129 SWAP7 PUSH2 0x2A8A SWAP7 DUP16 SWAP7 CALLER SWAP7 SWAP3 SWAP6 SWAP2 SWAP5 SWAP1 SWAP4 SWAP1 PUSH2 0x52A4 JUMP JUMPDEST PUSH1 0x40 MLOAD DUP1 SWAP2 SUB SWAP1 LOG4 POP POP POP POP POP JUMP JUMPDEST PUSH1 0x60 DUP1 PUSH1 0x40 MLOAD SWAP1 DUP2 ADD PUSH1 0x40 MSTORE DUP1 PUSH1 0x24 DUP2 MSTORE PUSH1 0x20 ADD PUSH32 0xF47261B0000000000000000000000000E41D2489571D322189246DAFA5EBDE1F DUP2 MSTORE PUSH1 0x20 ADD PUSH32 0x4699F49800000000000000000000000000000000000000000000000000000000 DUP2 MSTORE POP SWAP1 POP PUSH2 0x2B1A DUP6 PUSH2 0x140 ADD MLOAD DUP7 PUSH1 0x0 ADD MLOAD DUP7 PUSH1 0x0 ADD MLOAD DUP6 PUSH1 0x20 ADD MLOAD PUSH1 0x20 ADD MLOAD PUSH2 0x3A52 JUMP JUMPDEST PUSH2 0x140 DUP5 ADD MLOAD DUP5 MLOAD DUP7 MLOAD DUP5 MLOAD PUSH1 0x20 ADD MLOAD PUSH2 0x2B36 SWAP4 SWAP3 SWAP2 SWAP1 PUSH2 0x3A52 JUMP JUMPDEST PUSH2 0x2B4F DUP6 PUSH2 0x140 ADD MLOAD DUP7 PUSH1 0x0 ADD MLOAD DUP6 DUP6 PUSH1 0x40 ADD MLOAD PUSH2 0x3A52 JUMP JUMPDEST PUSH2 0x2B6B DUP2 DUP7 PUSH1 0x0 ADD MLOAD DUP8 PUSH1 0x40 ADD MLOAD DUP6 PUSH1 0x0 ADD MLOAD PUSH1 0x40 ADD MLOAD PUSH2 0x3A52 JUMP JUMPDEST PUSH2 0x2B87 DUP2 DUP6 PUSH1 0x0 ADD MLOAD DUP7 PUSH1 0x40 ADD MLOAD DUP6 PUSH1 0x20 ADD MLOAD PUSH1 0x40 ADD MLOAD PUSH2 0x3A52 JUMP JUMPDEST DUP4 PUSH1 0x40 ADD MLOAD PUSH20 0xFFFFFFFFFFFFFFFFFFFFFFFFFFFFFFFFFFFFFFFF AND DUP6 PUSH1 0x40 ADD MLOAD PUSH20 0xFFFFFFFFFFFFFFFFFFFFFFFFFFFFFFFFFFFFFFFF AND EQ ISZERO PUSH2 0x2BF1 JUMPI PUSH2 0x2BEC DUP2 DUP5 DUP8 PUSH1 0x40 ADD MLOAD PUSH2 0x2BE7 DUP7 PUSH1 0x0 ADD MLOAD PUSH1 0x60 ADD MLOAD DUP8 PUSH1 0x20 ADD MLOAD PUSH1 0x60 ADD MLOAD PUSH2 0x3893 JUMP JUMPDEST PUSH2 0x3A52 JUMP JUMPDEST PUSH2 0x29E6 JUMP JUMPDEST PUSH2 0x2C09 DUP2 DUP5 DUP8 PUSH1 0x40 ADD MLOAD DUP6 PUSH1 0x0 ADD MLOAD PUSH1 0x60 ADD MLOAD PUSH2 0x3A52 JUMP JUMPDEST PUSH2 0x29E6 DUP2 DUP5 DUP7 PUSH1 0x40 ADD MLOAD DUP6 PUSH1 0x20 ADD MLOAD PUSH1 0x60 ADD MLOAD PUSH2 0x3A52 JUMP JUMPDEST PUSH1 0x40 DUP1 MLOAD PUSH32 0xB4BE83D500000000000000000000000000000000000000000000000000000000 PUSH1 0x20 DUP1 DUP4 ADD SWAP2 SWAP1 SWAP2 MSTORE PUSH1 0x60 PUSH1 0x24 DUP4 ADD DUP2 DUP2 MSTORE DUP8 MLOAD PUSH1 0x84 DUP6 ADD SWAP1 DUP2 MSTORE DUP9 DUP5 ADD MLOAD PUSH1 0xA4 DUP7 ADD MSTORE SWAP5 DUP9 ADD MLOAD PUSH1 0xC4 DUP6 ADD MSTORE SWAP1 DUP8 ADD MLOAD PUSH1 0xE4 DUP5 ADD MSTORE PUSH1 0x80 DUP8 ADD MLOAD PUSH2 0x104 DUP5 ADD MSTORE PUSH1 0xA0 DUP8 ADD MLOAD PUSH2 0x124 DUP5 ADD MSTORE PUSH1 0xC0 DUP8 ADD MLOAD PUSH2 0x144 DUP5 ADD MSTORE PUSH1 0xE0 DUP8 ADD MLOAD PUSH2 0x164 DUP5 ADD MSTORE PUSH2 0x100 DUP8 ADD MLOAD PUSH2 0x184 DUP5 ADD MSTORE PUSH2 0x120 DUP8 ADD MLOAD PUSH2 0x1A4 DUP5 ADD MSTORE PUSH2 0x140 DUP8 ADD DUP1 MLOAD PUSH2 0x1C4 DUP6 ADD SWAP1 DUP2 MSTORE PUSH2 0x160 DUP10 ADD MLOAD PUSH2 0x1E4 DUP7 ADD MSTORE PUSH2 0x180 SWAP1 MSTORE MLOAD DUP1 MLOAD PUSH2 0x204 DUP6 ADD DUP2 SWAP1 MSTORE SWAP4 SWAP5 SWAP2 SWAP4 DUP5 SWAP4 PUSH1 0x44 DUP8 ADD SWAP3 DUP5 SWAP3 PUSH2 0x224 DUP10 ADD SWAP3 SWAP2 DUP3 ADD SWAP2 PUSH1 0x1F DUP3 ADD DIV PUSH1 0x0 JUMPDEST DUP2 DUP2 LT ISZERO PUSH2 0x2D28 JUMPI DUP4 MLOAD DUP6 MSTORE PUSH1 0x20 SWAP5 DUP6 ADD SWAP5 SWAP1 SWAP4 ADD SWAP3 PUSH1 0x1 ADD PUSH2 0x2D0A JUMP JUMPDEST POP POP POP POP DUP2 DUP2 SUB PUSH2 0x160 DUP1 DUP5 ADD SWAP2 SWAP1 SWAP2 MSTORE DUP11 ADD MLOAD DUP1 MLOAD DUP1 DUP4 MSTORE PUSH1 0x20 SWAP3 DUP4 ADD SWAP3 SWAP2 DUP3 ADD SWAP2 PUSH1 0x1F DUP3 ADD DIV PUSH1 0x0 JUMPDEST DUP2 DUP2 LT ISZERO PUSH2 0x2D71 JUMPI DUP4 MLOAD DUP6 MSTORE PUSH1 0x20 SWAP5 DUP6 ADD SWAP5 SWAP1 SWAP4 ADD SWAP3 PUSH1 0x1 ADD PUSH2 0x2D53 JUMP JUMPDEST POP POP POP DUP10 DUP5 MSTORE POP DUP5 DUP2 SUB PUSH1 0x20 SWAP4 DUP5 ADD SWAP1 DUP2 MSTORE DUP9 MLOAD DUP1 DUP4 MSTORE SWAP1 SWAP4 SWAP2 DUP3 ADD SWAP2 DUP10 DUP2 ADD SWAP2 SWAP1 PUSH1 0x1F DUP3 ADD DIV PUSH1 0x0 JUMPDEST DUP2 DUP2 LT ISZERO PUSH2 0x2DB9 JUMPI DUP4 MLOAD DUP6 MSTORE PUSH1 0x20 SWAP5 DUP6 ADD SWAP5 SWAP1 SWAP4 ADD SWAP3 PUSH1 0x1 ADD PUSH2 0x2D9B JUMP JUMPDEST POP POP POP PUSH32 0xFFFFFFFFFFFFFFFFFFFFFFFFFFFFFFFFFFFFFFFFFFFFFFFFFFFFFFFFFFFFFFE0 DUP9 DUP4 SUB ADD DUP9 MSTORE POP PUSH1 0x40 MSTORE POP POP POP POP POP SWAP4 SWAP3 POP POP POP JUMP JUMPDEST PUSH2 0x2DFB PUSH2 0x41F7 JUMP JUMPDEST PUSH2 0x2E06 DUP5 DUP5 DUP5 PUSH2 0x2423 JUMP JUMPDEST PUSH1 0x20 DUP2 ADD MLOAD SWAP1 SWAP2 POP DUP4 EQ PUSH2 0x254E JUMPI PUSH1 0x40 MLOAD PUSH32 0x8C379A000000000000000000000000000000000000000000000000000000000 DUP2 MSTORE PUSH1 0x4 ADD PUSH2 0x6C6 SWAP1 PUSH2 0x55BE JUMP JUMPDEST PUSH1 0x0 DUP3 DUP3 GT ISZERO PUSH2 0x2E82 JUMPI PUSH1 0x40 MLOAD PUSH32 0x8C379A000000000000000000000000000000000000000000000000000000000 DUP2 MSTORE PUSH1 0x4 ADD PUSH2 0x6C6 SWAP1 PUSH2 0x547E JUMP JUMPDEST POP DUP1 DUP3 SUB JUMPDEST SWAP3 SWAP2 POP POP JUMP JUMPDEST PUSH1 0x0 DUP1 DUP3 MLOAD GT ISZERO ISZERO PUSH2 0x2ECB JUMPI PUSH1 0x40 MLOAD PUSH32 0x8C379A000000000000000000000000000000000000000000000000000000000 DUP2 MSTORE PUSH1 0x4 ADD PUSH2 0x6C6 SWAP1 PUSH2 0x556E JUMP JUMPDEST DUP2 MLOAD DUP3 SWAP1 PUSH32 0xFFFFFFFFFFFFFFFFFFFFFFFFFFFFFFFFFFFFFFFFFFFFFFFFFFFFFFFFFFFFFFFF DUP2 ADD SWAP1 DUP2 LT PUSH2 0x2EFB JUMPI INVALID JUMPDEST ADD PUSH1 0x20 ADD MLOAD DUP3 MLOAD PUSH32 0xFFFFFFFFFFFFFFFFFFFFFFFFFFFFFFFFFFFFFFFFFFFFFFFFFFFFFFFFFFFFFFFF ADD SWAP1 SWAP3 MSTORE POP PUSH32 0x100000000000000000000000000000000000000000000000000000000000000 SWAP1 DUP2 SWAP1 DIV MUL SWAP1 JUMP JUMPDEST PUSH1 0x0 DUP2 PUSH1 0x20 ADD DUP4 MLOAD LT ISZERO ISZERO ISZERO PUSH2 0x2F93 JUMPI PUSH1 0x40 MLOAD PUSH32 0x8C379A000000000000000000000000000000000000000000000000000000000 DUP2 MSTORE PUSH1 0x4 ADD PUSH2 0x6C6 SWAP1 PUSH2 0x549E JUMP JUMPDEST POP ADD PUSH1 0x20 ADD MLOAD SWAP1 JUMP JUMPDEST PUSH1 0x40 MLOAD PUSH1 0x0 SWAP1 PUSH1 0x60 SWAP1 PUSH32 0x1626BA7E00000000000000000000000000000000000000000000000000000000 SWAP1 PUSH2 0x2FD7 SWAP1 DUP8 SWAP1 DUP7 SWAP1 PUSH1 0x24 ADD PUSH2 0x53BF JUMP JUMPDEST PUSH1 0x40 DUP1 MLOAD PUSH32 0xFFFFFFFFFFFFFFFFFFFFFFFFFFFFFFFFFFFFFFFFFFFFFFFFFFFFFFFFFFFFFFE0 DUP2 DUP5 SUB ADD DUP2 MSTORE SWAP2 SWAP1 MSTORE PUSH1 0x20 DUP1 DUP3 ADD DUP1 MLOAD PUSH28 0xFFFFFFFFFFFFFFFFFFFFFFFFFFFFFFFFFFFFFFFFFFFFFFFFFFFFFFFF AND PUSH32 0xFFFFFFFF00000000000000000000000000000000000000000000000000000000 SWAP1 SWAP5 AND SWAP4 SWAP1 SWAP4 OR DUP4 MSTORE DUP2 MLOAD SWAP2 SWAP4 POP SWAP1 DUP3 SWAP1 DUP2 DUP9 GAS STATICCALL DUP1 DUP1 ISZERO PUSH2 0x3074 JUMPI PUSH1 0x1 DUP2 EQ PUSH2 0x30E5 JUMPI PUSH2 0x24B6 JUMP JUMPDEST PUSH32 0x8C379A000000000000000000000000000000000000000000000000000000000 PUSH1 0x0 MSTORE PUSH29 0x2000000000000000000000000000000000000000000000000000000000 PUSH1 0x20 MSTORE PUSH29 0xC57414C4C45545F4552524F5200000000000000000000000000000000 PUSH1 0x40 MSTORE PUSH1 0x0 PUSH1 0x60 MSTORE PUSH1 0x64 PUSH1 0x0 REVERT JUMPDEST POP POP MLOAD SWAP6 SWAP5 POP POP POP POP POP JUMP JUMPDEST PUSH1 0x0 PUSH1 0x14 DUP3 MLOAD LT ISZERO ISZERO ISZERO PUSH2 0x3131 JUMPI PUSH1 0x40 MLOAD PUSH32 0x8C379A000000000000000000000000000000000000000000000000000000000 DUP2 MSTORE PUSH1 0x4 ADD PUSH2 0x6C6 SWAP1 PUSH2 0x55FE JUMP JUMPDEST PUSH2 0x313F DUP3 PUSH1 0x14 DUP5 MLOAD SUB PUSH2 0x3C1C JUMP JUMPDEST DUP3 MLOAD PUSH32 0xFFFFFFFFFFFFFFFFFFFFFFFFFFFFFFFFFFFFFFFFFFFFFFFFFFFFFFFFFFFFFFEC ADD SWAP1 SWAP3 MSTORE POP SWAP1 JUMP JUMPDEST PUSH1 0x40 MLOAD PUSH1 0x0 SWAP1 PUSH1 0x60 SWAP1 PUSH32 0x9363470200000000000000000000000000000000000000000000000000000000 SWAP1 PUSH2 0x31A7 SWAP1 DUP8 SWAP1 DUP8 SWAP1 DUP8 SWAP1 PUSH1 0x24 ADD PUSH2 0x5392 JUMP JUMPDEST PUSH1 0x40 DUP1 MLOAD PUSH32 0xFFFFFFFFFFFFFFFFFFFFFFFFFFFFFFFFFFFFFFFFFFFFFFFFFFFFFFFFFFFFFFE0 DUP2 DUP5 SUB ADD DUP2 MSTORE SWAP2 SWAP1 MSTORE PUSH1 0x20 DUP1 DUP3 ADD DUP1 MLOAD PUSH28 0xFFFFFFFFFFFFFFFFFFFFFFFFFFFFFFFFFFFFFFFFFFFFFFFFFFFFFFFF AND PUSH32 0xFFFFFFFF00000000000000000000000000000000000000000000000000000000 SWAP1 SWAP5 AND SWAP4 SWAP1 SWAP4 OR DUP4 MSTORE DUP2 MLOAD SWAP2 SWAP4 POP SWAP1 DUP3 SWAP1 DUP2 DUP11 GAS STATICCALL DUP1 DUP1 ISZERO PUSH2 0x3244 JUMPI PUSH1 0x1 DUP2 EQ PUSH2 0x32B5 JUMPI PUSH2 0x32BA JUMP JUMPDEST PUSH32 0x8C379A000000000000000000000000000000000000000000000000000000000 PUSH1 0x0 MSTORE PUSH29 0x2000000000000000000000000000000000000000000000000000000000 PUSH1 0x20 MSTORE PUSH29 0xF56414C494441544F525F4552524F5200000000000000000000000000 PUSH1 0x40 MSTORE PUSH1 0x0 PUSH1 0x60 MSTORE PUSH1 0x64 PUSH1 0x0 REVERT JUMPDEST DUP3 MLOAD SWAP5 POP JUMPDEST POP POP POP POP SWAP5 SWAP4 POP POP POP POP JUMP JUMPDEST PUSH1 0x0 DUP1 DUP4 GT PUSH2 0x3301 JUMPI PUSH1 0x40 MLOAD PUSH32 0x8C379A000000000000000000000000000000000000000000000000000000000 DUP2 MSTORE PUSH1 0x4 ADD PUSH2 0x6C6 SWAP1 PUSH2 0x54BE JUMP JUMPDEST PUSH2 0x3314 PUSH2 0x330E DUP6 DUP5 PUSH2 0x38DD JUMP JUMPDEST DUP5 PUSH2 0x3C7D JUMP JUMPDEST SWAP5 SWAP4 POP POP POP POP JUMP JUMPDEST PUSH1 0x40 DUP1 MLOAD PUSH32 0x5A65726F45785472616E73616374696F6E280000000000000000000000000000 PUSH1 0x20 DUP1 DUP4 ADD SWAP2 SWAP1 SWAP2 MSTORE PUSH32 0x75696E743235362073616C742C00000000000000000000000000000000000000 PUSH1 0x32 DUP4 ADD MSTORE PUSH32 0x61646472657373207369676E6572416464726573732C00000000000000000000 PUSH1 0x3F DUP4 ADD MSTORE PUSH32 0x6279746573206461746100000000000000000000000000000000000000000000 PUSH1 0x55 DUP4 ADD MSTORE PUSH32 0x2900000000000000000000000000000000000000000000000000000000000000 PUSH1 0x5F DUP4 ADD MSTORE DUP3 MLOAD DUP1 DUP4 SUB DUP5 ADD DUP2 MSTORE PUSH1 0x60 SWAP1 SWAP3 ADD SWAP3 DUP4 SWAP1 MSTORE DUP2 MLOAD PUSH1 0x0 SWAP4 DUP5 SWAP4 DUP5 SWAP4 SWAP1 SWAP3 DUP3 SWAP2 DUP5 ADD SWAP1 DUP1 DUP4 DUP4 JUMPDEST PUSH1 0x20 DUP4 LT PUSH2 0x3445 JUMPI DUP1 MLOAD DUP3 MSTORE PUSH32 0xFFFFFFFFFFFFFFFFFFFFFFFFFFFFFFFFFFFFFFFFFFFFFFFFFFFFFFFFFFFFFFE0 SWAP1 SWAP3 ADD SWAP2 PUSH1 0x20 SWAP2 DUP3 ADD SWAP2 ADD PUSH2 0x3408 JUMP JUMPDEST MLOAD DUP2 MLOAD PUSH1 0x20 SWAP4 DUP5 SUB PUSH2 0x100 EXP PUSH32 0xFFFFFFFFFFFFFFFFFFFFFFFFFFFFFFFFFFFFFFFFFFFFFFFFFFFFFFFFFFFFFFFF ADD DUP1 NOT SWAP1 SWAP3 AND SWAP2 AND OR SWAP1 MSTORE PUSH1 0x40 MLOAD SWAP2 SWAP1 SWAP4 ADD DUP2 SWAP1 SUB DUP2 KECCAK256 DUP10 MLOAD SWAP1 SWAP8 POP DUP10 SWAP6 POP SWAP1 SWAP4 POP DUP4 SWAP3 DUP6 ADD SWAP2 POP DUP1 DUP4 DUP4 JUMPDEST PUSH1 0x20 DUP4 LT PUSH2 0x34DB JUMPI DUP1 MLOAD DUP3 MSTORE PUSH32 0xFFFFFFFFFFFFFFFFFFFFFFFFFFFFFFFFFFFFFFFFFFFFFFFFFFFFFFFFFFFFFFE0 SWAP1 SWAP3 ADD SWAP2 PUSH1 0x20 SWAP2 DUP3 ADD SWAP2 ADD PUSH2 0x349E JUMP JUMPDEST MLOAD DUP2 MLOAD PUSH1 0x20 SWAP4 DUP5 SUB PUSH2 0x100 EXP PUSH32 0xFFFFFFFFFFFFFFFFFFFFFFFFFFFFFFFFFFFFFFFFFFFFFFFFFFFFFFFFFFFFFFFF ADD DUP1 NOT SWAP1 SWAP3 AND SWAP2 AND OR SWAP1 MSTORE PUSH1 0x40 DUP1 MLOAD SWAP3 SWAP1 SWAP5 ADD DUP3 SWAP1 SUB DUP3 KECCAK256 SWAP8 DUP3 MSTORE DUP2 ADD SWAP11 SWAP1 SWAP11 MSTORE POP PUSH20 0xFFFFFFFFFFFFFFFFFFFFFFFFFFFFFFFFFFFFFFFF SWAP8 SWAP1 SWAP8 AND SWAP7 DUP9 ADD SWAP7 SWAP1 SWAP7 MSTORE POP POP PUSH1 0x60 DUP6 ADD MSTORE POP POP PUSH1 0x80 SWAP1 SWAP2 KECCAK256 SWAP2 SWAP1 POP JUMP JUMPDEST PUSH1 0x1 SLOAD PUSH1 0x40 MLOAD PUSH32 0x1901000000000000000000000000000000000000000000000000000000000000 DUP2 MSTORE PUSH1 0x2 DUP2 ADD SWAP2 SWAP1 SWAP2 MSTORE PUSH1 0x22 DUP2 ADD SWAP2 SWAP1 SWAP2 MSTORE PUSH1 0x42 SWAP1 KECCAK256 SWAP1 JUMP JUMPDEST PUSH1 0x0 PUSH2 0x2E87 PUSH2 0x1A69 DUP4 PUSH2 0x3C94 JUMP JUMPDEST DUP1 MLOAD PUSH1 0x0 SWAP1 PUSH1 0xFF AND PUSH1 0x3 EQ PUSH2 0x35EC JUMPI PUSH1 0x40 MLOAD PUSH32 0x8C379A000000000000000000000000000000000000000000000000000000000 DUP2 MSTORE PUSH1 0x4 ADD PUSH2 0x6C6 SWAP1 PUSH2 0x560E JUMP JUMPDEST PUSH1 0x60 DUP4 ADD MLOAD PUSH20 0xFFFFFFFFFFFFFFFFFFFFFFFFFFFFFFFFFFFFFFFF AND ISZERO PUSH2 0x365F JUMPI PUSH1 0x60 DUP4 ADD MLOAD PUSH20 0xFFFFFFFFFFFFFFFFFFFFFFFFFFFFFFFFFFFFFFFF AND CALLER EQ PUSH2 0x365F JUMPI PUSH1 0x40 MLOAD PUSH32 0x8C379A000000000000000000000000000000000000000000000000000000000 DUP2 MSTORE PUSH1 0x4 ADD PUSH2 0x6C6 SWAP1 PUSH2 0x561E JUMP JUMPDEST PUSH2 0x3667 PUSH2 0x2523 JUMP JUMPDEST DUP4 MLOAD SWAP1 SWAP2 POP PUSH20 0xFFFFFFFFFFFFFFFFFFFFFFFFFFFFFFFFFFFFFFFF DUP1 DUP4 AND SWAP2 AND EQ PUSH2 0xAEC JUMPI PUSH1 0x40 MLOAD PUSH32 0x8C379A000000000000000000000000000000000000000000000000000000000 DUP2 MSTORE PUSH1 0x4 ADD PUSH2 0x6C6 SWAP1 PUSH2 0x54DE JUMP JUMPDEST PUSH1 0x0 DUP2 DUP2 MSTORE PUSH1 0x4 PUSH1 0x20 MSTORE PUSH1 0x40 SWAP1 DUP2 SWAP1 KECCAK256 DUP1 SLOAD PUSH32 0xFFFFFFFFFFFFFFFFFFFFFFFFFFFFFFFFFFFFFFFFFFFFFFFFFFFFFFFFFFFFFF00 AND PUSH1 0x1 OR SWAP1 SSTORE DUP3 DUP2 ADD MLOAD DUP4 MLOAD PUSH2 0x140 DUP6 ADD MLOAD PUSH2 0x160 DUP7 ADD MLOAD SWAP4 MLOAD DUP6 SWAP5 PUSH20 0xFFFFFFFFFFFFFFFFFFFFFFFFFFFFFFFFFFFFFFFF SWAP5 DUP6 AND SWAP5 SWAP4 SWAP1 SWAP4 AND SWAP3 PUSH32 0xDC47B3613D9FE400085F6DBDC99453462279057E6207385042827ED6B1A62CF7 SWAP3 PUSH2 0x3758 SWAP3 CALLER SWAP3 SWAP1 PUSH2 0x5328 JUMP JUMPDEST PUSH1 0x40 MLOAD DUP1 SWAP2 SUB SWAP1 LOG4 POP POP JUMP JUMPDEST PUSH1 0x0 DUP2 DUP4 LT PUSH2 0x3773 JUMPI DUP2 PUSH2 0x254E JUMP JUMPDEST POP SWAP1 SWAP2 SWAP1 POP JUMP JUMPDEST PUSH2 0x3782 PUSH2 0x41F7 JUMP JUMPDEST PUSH1 0x20 DUP2 ADD DUP3 SWAP1 MSTORE PUSH1 0xA0 DUP4 ADD MLOAD PUSH1 0x80 DUP5 ADD MLOAD PUSH2 0x379E SWAP2 DUP5 SWAP2 PUSH2 0x3938 JUMP JUMPDEST DUP1 DUP3 MSTORE PUSH1 0x80 DUP5 ADD MLOAD PUSH1 0xC0 DUP6 ADD MLOAD PUSH2 0x37B6 SWAP3 SWAP2 SWAP1 PUSH2 0x3938 JUMP JUMPDEST PUSH1 0x40 DUP3 ADD MSTORE PUSH1 0xA0 DUP4 ADD MLOAD PUSH1 0xE0 DUP5 ADD MLOAD PUSH2 0x37D0 SWAP2 DUP5 SWAP2 PUSH2 0x3938 JUMP JUMPDEST PUSH1 0x60 DUP3 ADD MSTORE SWAP3 SWAP2 POP POP JUMP JUMPDEST PUSH1 0x40 DUP1 MLOAD PUSH1 0x60 DUP2 ADD DUP3 MSTORE PUSH1 0x24 DUP2 MSTORE PUSH32 0xF47261B0000000000000000000000000E41D2489571D322189246DAFA5EBDE1F PUSH1 0x20 DUP3 ADD MSTORE PUSH32 0x4699F49800000000000000000000000000000000000000000000000000000000 SWAP2 DUP2 ADD SWAP2 SWAP1 SWAP2 MSTORE PUSH2 0x140 DUP5 ADD MLOAD DUP5 MLOAD DUP4 MLOAD PUSH2 0x384E SWAP3 SWAP2 SWAP1 DUP7 SWAP1 PUSH2 0x3A52 JUMP JUMPDEST PUSH2 0x3867 DUP5 PUSH2 0x160 ADD MLOAD DUP5 DUP7 PUSH1 0x0 ADD MLOAD DUP6 PUSH1 0x20 ADD MLOAD PUSH2 0x3A52 JUMP JUMPDEST PUSH2 0x387F DUP2 DUP6 PUSH1 0x0 ADD MLOAD DUP7 PUSH1 0x40 ADD MLOAD DUP6 PUSH1 0x40 ADD MLOAD PUSH2 0x3A52 JUMP JUMPDEST PUSH2 0x26E7 DUP2 DUP5 DUP7 PUSH1 0x40 ADD MLOAD DUP6 PUSH1 0x60 ADD MLOAD PUSH2 0x3A52 JUMP JUMPDEST PUSH1 0x0 DUP3 DUP3 ADD DUP4 DUP2 LT ISZERO PUSH2 0x38D2 JUMPI PUSH1 0x40 MLOAD PUSH32 0x8C379A000000000000000000000000000000000000000000000000000000000 DUP2 MSTORE PUSH1 0x4 ADD PUSH2 0x6C6 SWAP1 PUSH2 0x54EE JUMP JUMPDEST DUP1 SWAP2 POP JUMPDEST POP SWAP3 SWAP2 POP POP JUMP JUMPDEST PUSH1 0x0 DUP1 DUP4 ISZERO ISZERO PUSH2 0x38F0 JUMPI PUSH1 0x0 SWAP2 POP PUSH2 0x38D6 JUMP JUMPDEST POP DUP3 DUP3 MUL DUP3 DUP5 DUP3 DUP2 ISZERO ISZERO PUSH2 0x3900 JUMPI INVALID JUMPDEST DIV EQ PUSH2 0x38D2 JUMPI PUSH1 0x40 MLOAD PUSH32 0x8C379A000000000000000000000000000000000000000000000000000000000 DUP2 MSTORE PUSH1 0x4 ADD PUSH2 0x6C6 SWAP1 PUSH2 0x54EE JUMP JUMPDEST PUSH1 0x0 DUP1 DUP4 GT PUSH2 0x3973 JUMPI PUSH1 0x40 MLOAD PUSH32 0x8C379A000000000000000000000000000000000000000000000000000000000 DUP2 MSTORE PUSH1 0x4 ADD PUSH2 0x6C6 SWAP1 PUSH2 0x54BE JUMP JUMPDEST PUSH2 0x397E DUP5 DUP5 DUP5 PUSH2 0x40ED JUMP JUMPDEST ISZERO PUSH2 0x3301 JUMPI PUSH1 0x40 MLOAD PUSH32 0x8C379A000000000000000000000000000000000000000000000000000000000 DUP2 MSTORE PUSH1 0x4 ADD PUSH2 0x6C6 SWAP1 PUSH2 0x551E JUMP JUMPDEST PUSH1 0x0 DUP1 DUP4 GT PUSH2 0x39F0 JUMPI PUSH1 0x40 MLOAD PUSH32 0x8C379A000000000000000000000000000000000000000000000000000000000 DUP2 MSTORE PUSH1 0x4 ADD PUSH2 0x6C6 SWAP1 PUSH2 0x54BE JUMP JUMPDEST PUSH2 0x39FB DUP5 DUP5 DUP5 PUSH2 0x4172 JUMP JUMPDEST ISZERO PUSH2 0x3A32 JUMPI PUSH1 0x40 MLOAD PUSH32 0x8C379A000000000000000000000000000000000000000000000000000000000 DUP2 MSTORE PUSH1 0x4 ADD PUSH2 0x6C6 SWAP1 PUSH2 0x551E JUMP JUMPDEST PUSH2 0x3314 PUSH2 0x330E PUSH2 0x3A42 DUP7 DUP6 PUSH2 0x38DD JUMP JUMPDEST PUSH2 0x3A4D DUP7 PUSH1 0x1 PUSH2 0x2E46 JUMP JUMPDEST PUSH2 0x3893 JUMP JUMPDEST PUSH1 0x0 DUP1 PUSH1 0x0 DUP4 GT DUP1 ISZERO PUSH2 0x3A91 JUMPI POP DUP4 PUSH20 0xFFFFFFFFFFFFFFFFFFFFFFFFFFFFFFFFFFFFFFFF AND DUP6 PUSH20 0xFFFFFFFFFFFFFFFFFFFFFFFFFFFFFFFFFFFFFFFF AND EQ ISZERO JUMPDEST ISZERO PUSH2 0x3C14 JUMPI DUP6 MLOAD PUSH1 0x3 LT PUSH2 0x3AD1 JUMPI PUSH1 0x40 MLOAD PUSH32 0x8C379A000000000000000000000000000000000000000000000000000000000 DUP2 MSTORE PUSH1 0x4 ADD PUSH2 0x6C6 SWAP1 PUSH2 0x55AE JUMP JUMPDEST POP POP PUSH1 0x20 DUP5 DUP2 ADD MLOAD PUSH32 0xFFFFFFFF00000000000000000000000000000000000000000000000000000000 AND PUSH1 0x0 DUP2 DUP2 MSTORE PUSH1 0xA SWAP1 SWAP3 MSTORE PUSH1 0x40 SWAP1 SWAP2 KECCAK256 SLOAD PUSH20 0xFFFFFFFFFFFFFFFFFFFFFFFFFFFFFFFFFFFFFFFF AND DUP1 ISZERO ISZERO PUSH2 0x3B5A JUMPI PUSH1 0x40 MLOAD PUSH32 0x8C379A000000000000000000000000000000000000000000000000000000000 DUP2 MSTORE PUSH1 0x4 ADD PUSH2 0x6C6 SWAP1 PUSH2 0x555E JUMP JUMPDEST PUSH1 0x40 MLOAD PUSH7 0xFFFFFFFFFFFE0 PUSH1 0x3F DUP9 MLOAD ADD AND DUP1 PUSH1 0x84 ADD DUP3 ADD PUSH32 0xA85E59E400000000000000000000000000000000000000000000000000000000 DUP4 MSTORE PUSH1 0x80 PUSH1 0x4 DUP5 ADD MSTORE PUSH20 0xFFFFFFFFFFFFFFFFFFFFFFFFFFFFFFFFFFFFFFFF DUP9 AND PUSH1 0x24 DUP5 ADD MSTORE PUSH20 0xFFFFFFFFFFFFFFFFFFFFFFFFFFFFFFFFFFFFFFFF DUP8 AND PUSH1 0x44 DUP5 ADD MSTORE DUP6 PUSH1 0x64 DUP5 ADD MSTORE PUSH1 0x84 DUP4 ADD JUMPDEST DUP2 DUP2 LT ISZERO PUSH2 0x3BF6 JUMPI DUP10 MLOAD DUP2 MSTORE PUSH1 0x20 SWAP10 DUP11 ADD SWAP10 ADD PUSH2 0x3BDE JUMP JUMPDEST PUSH2 0x200 DUP5 DUP6 DUP5 SUB DUP7 PUSH1 0x0 DUP10 GAS CALL DUP1 ISZERO ISZERO PUSH2 0x3C0E JUMPI RETURNDATASIZE DUP6 REVERT JUMPDEST POP POP POP POP POP JUMPDEST POP POP POP POP POP POP JUMP JUMPDEST PUSH1 0x0 DUP2 PUSH1 0x14 ADD DUP4 MLOAD LT ISZERO ISZERO ISZERO PUSH2 0x3C5E JUMPI PUSH1 0x40 MLOAD PUSH32 0x8C379A000000000000000000000000000000000000000000000000000000000 DUP2 MSTORE PUSH1 0x4 ADD PUSH2 0x6C6 SWAP1 PUSH2 0x55FE JUMP JUMPDEST POP ADD PUSH1 0x14 ADD MLOAD PUSH20 0xFFFFFFFFFFFFFFFFFFFFFFFFFFFFFFFFFFFFFFFF AND SWAP1 JUMP JUMPDEST PUSH1 0x0 DUP1 DUP3 DUP5 DUP2 ISZERO ISZERO PUSH2 0x3C8B JUMPI INVALID JUMPDEST DIV SWAP5 SWAP4 POP POP POP POP JUMP JUMPDEST PUSH1 0x40 DUP1 MLOAD PUSH32 0x4F72646572280000000000000000000000000000000000000000000000000000 PUSH1 0x20 DUP1 DUP4 ADD SWAP2 SWAP1 SWAP2 MSTORE PUSH32 0x61646472657373206D616B6572416464726573732C0000000000000000000000 PUSH1 0x26 DUP4 ADD MSTORE PUSH32 0x616464726573732074616B6572416464726573732C0000000000000000000000 PUSH1 0x3B DUP4 ADD MSTORE PUSH32 0x6164647265737320666565526563697069656E74416464726573732C00000000 PUSH1 0x50 DUP4 ADD MSTORE PUSH32 0x616464726573732073656E646572416464726573732C00000000000000000000 PUSH1 0x6C DUP4 ADD MSTORE PUSH32 0x75696E74323536206D616B65724173736574416D6F756E742C00000000000000 PUSH1 0x82 DUP4 ADD MSTORE PUSH32 0x75696E743235362074616B65724173736574416D6F756E742C00000000000000 PUSH1 0x9B DUP4 ADD MSTORE PUSH32 0x75696E74323536206D616B65724665652C000000000000000000000000000000 PUSH1 0xB4 DUP4 ADD MSTORE PUSH32 0x75696E743235362074616B65724665652C000000000000000000000000000000 PUSH1 0xC5 DUP4 ADD MSTORE PUSH32 0x75696E743235362065787069726174696F6E54696D655365636F6E64732C0000 PUSH1 0xD6 DUP4 ADD MSTORE PUSH32 0x75696E743235362073616C742C00000000000000000000000000000000000000 PUSH1 0xF4 DUP4 ADD MSTORE PUSH32 0x6279746573206D616B65724173736574446174612C0000000000000000000000 PUSH2 0x101 DUP4 ADD MSTORE PUSH32 0x62797465732074616B6572417373657444617461000000000000000000000000 PUSH2 0x116 DUP4 ADD MSTORE PUSH32 0x2900000000000000000000000000000000000000000000000000000000000000 PUSH2 0x12A DUP4 ADD MSTORE DUP3 MLOAD PUSH2 0x10B DUP2 DUP5 SUB ADD DUP2 MSTORE PUSH2 0x12B SWAP1 SWAP3 ADD SWAP3 DUP4 SWAP1 MSTORE DUP2 MLOAD PUSH1 0x0 SWAP4 DUP5 SWAP4 DUP5 SWAP4 DUP5 SWAP4 SWAP2 SWAP3 SWAP2 DUP3 SWAP2 DUP5 ADD SWAP1 DUP1 DUP4 DUP4 JUMPDEST PUSH1 0x20 DUP4 LT PUSH2 0x3F1C JUMPI DUP1 MLOAD DUP3 MSTORE PUSH32 0xFFFFFFFFFFFFFFFFFFFFFFFFFFFFFFFFFFFFFFFFFFFFFFFFFFFFFFFFFFFFFFE0 SWAP1 SWAP3 ADD SWAP2 PUSH1 0x20 SWAP2 DUP3 ADD SWAP2 ADD PUSH2 0x3EDF JUMP JUMPDEST MLOAD DUP2 MLOAD PUSH1 0x20 SWAP4 DUP5 SUB PUSH2 0x100 EXP PUSH32 0xFFFFFFFFFFFFFFFFFFFFFFFFFFFFFFFFFFFFFFFFFFFFFFFFFFFFFFFFFFFFFFFF ADD DUP1 NOT SWAP1 SWAP3 AND SWAP2 AND OR SWAP1 MSTORE PUSH1 0x40 MLOAD SWAP2 SWAP1 SWAP4 ADD DUP2 SWAP1 SUB DUP2 KECCAK256 PUSH2 0x140 DUP12 ADD MLOAD DUP1 MLOAD SWAP2 SWAP10 POP SWAP6 POP SWAP1 SWAP4 POP DUP4 SWAP3 DUP6 ADD SWAP2 POP DUP1 DUP4 DUP4 JUMPDEST PUSH1 0x20 DUP4 LT PUSH2 0x3FB7 JUMPI DUP1 MLOAD DUP3 MSTORE PUSH32 0xFFFFFFFFFFFFFFFFFFFFFFFFFFFFFFFFFFFFFFFFFFFFFFFFFFFFFFFFFFFFFFE0 SWAP1 SWAP3 ADD SWAP2 PUSH1 0x20 SWAP2 DUP3 ADD SWAP2 ADD PUSH2 0x3F7A JUMP JUMPDEST MLOAD DUP2 MLOAD PUSH1 0x20 SWAP4 DUP5 SUB PUSH2 0x100 EXP PUSH32 0xFFFFFFFFFFFFFFFFFFFFFFFFFFFFFFFFFFFFFFFFFFFFFFFFFFFFFFFFFFFFFFFF ADD DUP1 NOT SWAP1 SWAP3 AND SWAP2 AND OR SWAP1 MSTORE PUSH1 0x40 MLOAD SWAP2 SWAP1 SWAP4 ADD DUP2 SWAP1 SUB DUP2 KECCAK256 PUSH2 0x160 DUP12 ADD MLOAD DUP1 MLOAD SWAP2 SWAP9 POP SWAP6 POP SWAP1 SWAP4 POP DUP4 SWAP3 DUP6 ADD SWAP2 POP DUP1 DUP4 DUP4 JUMPDEST PUSH1 0x20 DUP4 LT PUSH2 0x4052 JUMPI DUP1 MLOAD DUP3 MSTORE PUSH32 0xFFFFFFFFFFFFFFFFFFFFFFFFFFFFFFFFFFFFFFFFFFFFFFFFFFFFFFFFFFFFFFE0 SWAP1 SWAP3 ADD SWAP2 PUSH1 0x20 SWAP2 DUP3 ADD SWAP2 ADD PUSH2 0x4015 JUMP JUMPDEST MLOAD DUP2 MLOAD PUSH1 0x20 SWAP4 SWAP1 SWAP4 SUB PUSH2 0x100 EXP PUSH32 0xFFFFFFFFFFFFFFFFFFFFFFFFFFFFFFFFFFFFFFFFFFFFFFFFFFFFFFFFFFFFFFFF ADD DUP1 NOT SWAP1 SWAP2 AND SWAP3 AND SWAP2 SWAP1 SWAP2 OR SWAP1 MSTORE PUSH1 0x40 MLOAD SWAP3 ADD DUP3 SWAP1 SUB SWAP1 SWAP2 KECCAK256 PUSH32 0xFFFFFFFFFFFFFFFFFFFFFFFFFFFFFFFFFFFFFFFFFFFFFFFFFFFFFFFFFFFFFFE0 DUP10 ADD DUP1 MLOAD PUSH2 0x140 DUP12 ADD DUP1 MLOAD PUSH2 0x160 SWAP1 SWAP13 ADD DUP1 MLOAD SWAP11 DUP5 MSTORE SWAP9 DUP2 MSTORE SWAP3 DUP9 MSTORE PUSH2 0x1A0 DUP3 KECCAK256 SWAP2 MSTORE SWAP9 SWAP1 MSTORE POP POP POP SWAP2 SWAP1 MSTORE POP SWAP1 SWAP2 SWAP1 POP JUMP JUMPDEST PUSH1 0x0 DUP1 DUP1 DUP5 GT PUSH2 0x4129 JUMPI PUSH1 0x40 MLOAD PUSH32 0x8C379A000000000000000000000000000000000000000000000000000000000 DUP2 MSTORE PUSH1 0x4 ADD PUSH2 0x6C6 SWAP1 PUSH2 0x54BE JUMP JUMPDEST DUP3 ISZERO DUP1 PUSH2 0x4134 JUMPI POP DUP5 ISZERO JUMPDEST ISZERO PUSH2 0x4142 JUMPI PUSH1 0x0 SWAP2 POP PUSH2 0xA88 JUMP JUMPDEST DUP4 DUP1 ISZERO ISZERO PUSH2 0x414C JUMPI INVALID JUMPDEST DUP6 DUP5 MULMOD SWAP1 POP PUSH2 0x415B DUP6 DUP5 PUSH2 0x38DD JUMP JUMPDEST PUSH2 0x4167 PUSH2 0x3E8 DUP4 PUSH2 0x38DD JUMP JUMPDEST LT ISZERO SWAP6 SWAP5 POP POP POP POP POP JUMP JUMPDEST PUSH1 0x0 DUP1 DUP1 DUP5 GT PUSH2 0x41AE JUMPI PUSH1 0x40 MLOAD PUSH32 0x8C379A000000000000000000000000000000000000000000000000000000000 DUP2 MSTORE PUSH1 0x4 ADD PUSH2 0x6C6 SWAP1 PUSH2 0x54BE JUMP JUMPDEST DUP3 ISZERO DUP1 PUSH2 0x41B9 JUMPI POP DUP5 ISZERO JUMPDEST ISZERO PUSH2 0x41C7 JUMPI PUSH1 0x0 SWAP2 POP PUSH2 0xA88 JUMP JUMPDEST DUP4 DUP1 ISZERO ISZERO PUSH2 0x41D1 JUMPI INVALID JUMPDEST DUP6 DUP5 MULMOD SWAP1 POP DUP4 PUSH2 0x41E1 DUP6 DUP4 PUSH2 0x2E46 JUMP JUMPDEST DUP2 ISZERO ISZERO PUSH2 0x41EA JUMPI INVALID JUMPDEST MOD SWAP1 POP PUSH2 0x415B DUP6 DUP5 PUSH2 0x38DD JUMP JUMPDEST PUSH1 0x80 PUSH1 0x40 MLOAD SWAP1 DUP2 ADD PUSH1 0x40 MSTORE DUP1 PUSH1 0x0 DUP2 MSTORE PUSH1 0x20 ADD PUSH1 0x0 DUP2 MSTORE PUSH1 0x20 ADD PUSH1 0x0 DUP2 MSTORE PUSH1 0x20 ADD PUSH1 0x0 DUP2 MSTORE POP SWAP1 JUMP JUMPDEST PUSH2 0x120 PUSH1 0x40 MLOAD SWAP1 DUP2 ADD PUSH1 0x40 MSTORE DUP1 PUSH2 0x4235 PUSH2 0x41F7 JUMP JUMPDEST DUP2 MSTORE PUSH1 0x20 ADD PUSH2 0x4242 PUSH2 0x41F7 JUMP JUMPDEST DUP2 MSTORE PUSH1 0x20 ADD PUSH1 0x0 DUP2 MSTORE POP SWAP1 JUMP JUMPDEST PUSH1 0x40 DUP1 MLOAD PUSH1 0x60 DUP2 ADD DUP3 MSTORE PUSH1 0x0 DUP1 DUP3 MSTORE PUSH1 0x20 DUP3 ADD DUP2 SWAP1 MSTORE SWAP2 DUP2 ADD SWAP2 SWAP1 SWAP2 MSTORE SWAP1 JUMP JUMPDEST PUSH1 0x0 PUSH2 0x254E DUP3 CALLDATALOAD PUSH2 0x5721 JUMP JUMPDEST PUSH1 0x0 PUSH1 0x1F DUP3 ADD DUP4 SGT PUSH2 0x428C JUMPI PUSH1 0x0 DUP1 REVERT JUMPDEST DUP2 CALLDATALOAD PUSH2 0x429F PUSH2 0x429A DUP3 PUSH2 0x56B0 JUMP JUMPDEST PUSH2 0x5689 JUMP JUMPDEST DUP2 DUP2 MSTORE PUSH1 0x20 SWAP4 DUP5 ADD SWAP4 SWAP1 SWAP3 POP DUP3 ADD DUP4 PUSH1 0x0 JUMPDEST DUP4 DUP2 LT ISZERO PUSH2 0x42DD JUMPI DUP2 CALLDATALOAD DUP7 ADD PUSH2 0x42C7 DUP9 DUP3 PUSH2 0x442D JUMP JUMPDEST DUP5 MSTORE POP PUSH1 0x20 SWAP3 DUP4 ADD SWAP3 SWAP2 SWAP1 SWAP2 ADD SWAP1 PUSH1 0x1 ADD PUSH2 0x42B1 JUMP JUMPDEST POP POP POP POP SWAP3 SWAP2 POP POP JUMP JUMPDEST PUSH1 0x0 PUSH1 0x1F DUP3 ADD DUP4 SGT PUSH2 0x42F8 JUMPI PUSH1 0x0 DUP1 REVERT JUMPDEST DUP2 CALLDATALOAD PUSH2 0x4306 PUSH2 0x429A DUP3 PUSH2 0x56B0 JUMP JUMPDEST DUP2 DUP2 MSTORE PUSH1 0x20 SWAP4 DUP5 ADD SWAP4 SWAP1 SWAP3 POP DUP3 ADD DUP4 PUSH1 0x0 JUMPDEST DUP4 DUP2 LT ISZERO PUSH2 0x42DD JUMPI DUP2 CALLDATALOAD DUP7 ADD PUSH2 0x432E DUP9 DUP3 PUSH2 0x447C JUMP JUMPDEST DUP5 MSTORE POP PUSH1 0x20 SWAP3 DUP4 ADD SWAP3 SWAP2 SWAP1 SWAP2 ADD SWAP1 PUSH1 0x1 ADD PUSH2 0x4318 JUMP JUMPDEST PUSH1 0x0 PUSH1 0x1F DUP3 ADD DUP4 SGT PUSH2 0x4355 JUMPI PUSH1 0x0 DUP1 REVERT JUMPDEST DUP2 CALLDATALOAD PUSH2 0x4363 PUSH2 0x429A DUP3 PUSH2 0x56B0 JUMP JUMPDEST SWAP2 POP DUP2 DUP2 DUP4 MSTORE PUSH1 0x20 DUP5 ADD SWAP4 POP PUSH1 0x20 DUP2 ADD SWAP1 POP DUP4 DUP6 PUSH1 0x20 DUP5 MUL DUP3 ADD GT ISZERO PUSH2 0x4388 JUMPI PUSH1 0x0 DUP1 REVERT JUMPDEST PUSH1 0x0 JUMPDEST DUP4 DUP2 LT ISZERO PUSH2 0x42DD JUMPI DUP2 PUSH2 0x439E DUP9 DUP3 PUSH2 0x43C0 JUMP JUMPDEST DUP5 MSTORE POP PUSH1 0x20 SWAP3 DUP4 ADD SWAP3 SWAP2 SWAP1 SWAP2 ADD SWAP1 PUSH1 0x1 ADD PUSH2 0x438B JUMP JUMPDEST PUSH1 0x0 PUSH2 0x254E DUP3 CALLDATALOAD PUSH2 0x573A JUMP JUMPDEST PUSH1 0x0 PUSH2 0x254E DUP3 CALLDATALOAD PUSH2 0x573F JUMP JUMPDEST PUSH1 0x0 PUSH2 0x254E DUP3 CALLDATALOAD PUSH2 0x5742 JUMP JUMPDEST PUSH1 0x0 PUSH2 0x254E DUP3 MLOAD PUSH2 0x5742 JUMP JUMPDEST PUSH1 0x0 DUP1 PUSH1 0x1F DUP4 ADD DUP5 SGT PUSH2 0x43F6 JUMPI PUSH1 0x0 DUP1 REVERT JUMPDEST POP DUP2 CALLDATALOAD PUSH8 0xFFFFFFFFFFFFFFFF DUP2 GT ISZERO PUSH2 0x440E JUMPI PUSH1 0x0 DUP1 REVERT JUMPDEST PUSH1 0x20 DUP4 ADD SWAP2 POP DUP4 PUSH1 0x1 DUP3 MUL DUP4 ADD GT ISZERO PUSH2 0x4426 JUMPI PUSH1 0x0 DUP1 REVERT JUMPDEST SWAP3 POP SWAP3 SWAP1 POP JUMP JUMPDEST PUSH1 0x0 PUSH1 0x1F DUP3 ADD DUP4 SGT PUSH2 0x443E JUMPI PUSH1 0x0 DUP1 REVERT JUMPDEST DUP2 CALLDATALOAD PUSH2 0x444C PUSH2 0x429A DUP3 PUSH2 0x56D1 JUMP JUMPDEST SWAP2 POP DUP1 DUP3 MSTORE PUSH1 0x20 DUP4 ADD PUSH1 0x20 DUP4 ADD DUP6 DUP4 DUP4 ADD GT ISZERO PUSH2 0x4468 JUMPI PUSH1 0x0 DUP1 REVERT JUMPDEST PUSH2 0x4473 DUP4 DUP3 DUP5 PUSH2 0x5778 JUMP JUMPDEST POP POP POP SWAP3 SWAP2 POP POP JUMP JUMPDEST PUSH1 0x0 PUSH2 0x180 DUP3 DUP5 SUB SLT ISZERO PUSH2 0x448F JUMPI PUSH1 0x0 DUP1 REVERT JUMPDEST PUSH2 0x449A PUSH2 0x180 PUSH2 0x5689 JUMP JUMPDEST SWAP1 POP PUSH1 0x0 PUSH2 0x44A8 DUP5 DUP5 PUSH2 0x426F JUMP JUMPDEST DUP3 MSTORE POP PUSH1 0x20 PUSH2 0x44B9 DUP5 DUP5 DUP4 ADD PUSH2 0x426F JUMP JUMPDEST PUSH1 0x20 DUP4 ADD MSTORE POP PUSH1 0x40 PUSH2 0x44CD DUP5 DUP3 DUP6 ADD PUSH2 0x426F JUMP JUMPDEST PUSH1 0x40 DUP4 ADD MSTORE POP PUSH1 0x60 PUSH2 0x44E1 DUP5 DUP3 DUP6 ADD PUSH2 0x426F JUMP JUMPDEST PUSH1 0x60 DUP4 ADD MSTORE POP PUSH1 0x80 PUSH2 0x44F5 DUP5 DUP3 DUP6 ADD PUSH2 0x43C0 JUMP JUMPDEST PUSH1 0x80 DUP4 ADD MSTORE POP PUSH1 0xA0 PUSH2 0x4509 DUP5 DUP3 DUP6 ADD PUSH2 0x43C0 JUMP JUMPDEST PUSH1 0xA0 DUP4 ADD MSTORE POP PUSH1 0xC0 PUSH2 0x451D DUP5 DUP3 DUP6 ADD PUSH2 0x43C0 JUMP JUMPDEST PUSH1 0xC0 DUP4 ADD MSTORE POP PUSH1 0xE0 PUSH2 0x4531 DUP5 DUP3 DUP6 ADD PUSH2 0x43C0 JUMP JUMPDEST PUSH1 0xE0 DUP4 ADD MSTORE POP PUSH2 0x100 PUSH2 0x4546 DUP5 DUP3 DUP6 ADD PUSH2 0x43C0 JUMP JUMPDEST PUSH2 0x100 DUP4 ADD MSTORE POP PUSH2 0x120 PUSH2 0x455C DUP5 DUP3 DUP6 ADD PUSH2 0x43C0 JUMP JUMPDEST PUSH2 0x120 DUP4 ADD MSTORE POP PUSH2 0x140 DUP3 ADD CALLDATALOAD PUSH8 0xFFFFFFFFFFFFFFFF DUP2 GT ISZERO PUSH2 0x457E JUMPI PUSH1 0x0 DUP1 REVERT JUMPDEST PUSH2 0x458A DUP5 DUP3 DUP6 ADD PUSH2 0x442D JUMP JUMPDEST PUSH2 0x140 DUP4 ADD MSTORE POP PUSH2 0x160 DUP3 ADD CALLDATALOAD PUSH8 0xFFFFFFFFFFFFFFFF DUP2 GT ISZERO PUSH2 0x45AC JUMPI PUSH1 0x0 DUP1 REVERT JUMPDEST PUSH2 0x45B8 DUP5 DUP3 DUP6 ADD PUSH2 0x442D JUMP JUMPDEST PUSH2 0x160 DUP4 ADD MSTORE POP SWAP3 SWAP2 POP POP JUMP JUMPDEST PUSH1 0x0 PUSH1 0x20 DUP3 DUP5 SUB SLT ISZERO PUSH2 0x45D7 JUMPI PUSH1 0x0 DUP1 REVERT JUMPDEST PUSH1 0x0 PUSH2 0x3314 DUP5 DUP5 PUSH2 0x426F JUMP JUMPDEST PUSH1 0x0 DUP1 PUSH1 0x40 DUP4 DUP6 SUB SLT ISZERO PUSH2 0x45F6 JUMPI PUSH1 0x0 DUP1 REVERT JUMPDEST PUSH1 0x0 PUSH2 0x4602 DUP6 DUP6 PUSH2 0x426F JUMP JUMPDEST SWAP3 POP POP PUSH1 0x20 PUSH2 0x4613 DUP6 DUP3 DUP7 ADD PUSH2 0x426F JUMP JUMPDEST SWAP2 POP POP SWAP3 POP SWAP3 SWAP1 POP JUMP JUMPDEST PUSH1 0x0 DUP1 PUSH1 0x40 DUP4 DUP6 SUB SLT ISZERO PUSH2 0x4630 JUMPI PUSH1 0x0 DUP1 REVERT JUMPDEST PUSH1 0x0 PUSH2 0x463C DUP6 DUP6 PUSH2 0x426F JUMP JUMPDEST SWAP3 POP POP PUSH1 0x20 PUSH2 0x4613 DUP6 DUP3 DUP7 ADD PUSH2 0x43B4 JUMP JUMPDEST PUSH1 0x0 PUSH1 0x20 DUP3 DUP5 SUB SLT ISZERO PUSH2 0x465F JUMPI PUSH1 0x0 DUP1 REVERT JUMPDEST DUP2 CALLDATALOAD PUSH8 0xFFFFFFFFFFFFFFFF DUP2 GT ISZERO PUSH2 0x4676 JUMPI PUSH1 0x0 DUP1 REVERT JUMPDEST PUSH2 0x3314 DUP5 DUP3 DUP6 ADD PUSH2 0x42E7 JUMP JUMPDEST PUSH1 0x0 DUP1 PUSH1 0x0 PUSH1 0x60 DUP5 DUP7 SUB SLT ISZERO PUSH2 0x4697 JUMPI PUSH1 0x0 DUP1 REVERT JUMPDEST DUP4 CALLDATALOAD PUSH8 0xFFFFFFFFFFFFFFFF DUP2 GT ISZERO PUSH2 0x46AE JUMPI PUSH1 0x0 DUP1 REVERT JUMPDEST PUSH2 0x46BA DUP7 DUP3 DUP8 ADD PUSH2 0x42E7 JUMP JUMPDEST SWAP4 POP POP PUSH1 0x20 DUP5 ADD CALLDATALOAD PUSH8 0xFFFFFFFFFFFFFFFF DUP2 GT ISZERO PUSH2 0x46D7 JUMPI PUSH1 0x0 DUP1 REVERT JUMPDEST PUSH2 0x46E3 DUP7 DUP3 DUP8 ADD PUSH2 0x4344 JUMP JUMPDEST SWAP3 POP POP PUSH1 0x40 DUP5 ADD CALLDATALOAD PUSH8 0xFFFFFFFFFFFFFFFF DUP2 GT ISZERO PUSH2 0x4700 JUMPI PUSH1 0x0 DUP1 REVERT JUMPDEST PUSH2 0x470C DUP7 DUP3 DUP8 ADD PUSH2 0x427B JUMP JUMPDEST SWAP2 POP POP SWAP3 POP SWAP3 POP SWAP3 JUMP JUMPDEST PUSH1 0x0 DUP1 PUSH1 0x0 PUSH1 0x60 DUP5 DUP7 SUB SLT ISZERO PUSH2 0x472B JUMPI PUSH1 0x0 DUP1 REVERT JUMPDEST DUP4 CALLDATALOAD PUSH8 0xFFFFFFFFFFFFFFFF DUP2 GT ISZERO PUSH2 0x4742 JUMPI PUSH1 0x0 DUP1 REVERT JUMPDEST PUSH2 0x474E DUP7 DUP3 DUP8 ADD PUSH2 0x42E7 JUMP JUMPDEST SWAP4 POP POP PUSH1 0x20 PUSH2 0x46E3 DUP7 DUP3 DUP8 ADD PUSH2 0x43C0 JUMP JUMPDEST PUSH1 0x0 PUSH1 0x20 DUP3 DUP5 SUB SLT ISZERO PUSH2 0x4771 JUMPI PUSH1 0x0 DUP1 REVERT JUMPDEST PUSH1 0x0 PUSH2 0x3314 DUP5 DUP5 PUSH2 0x43C0 JUMP JUMPDEST PUSH1 0x0 DUP1 PUSH1 0x40 DUP4 DUP6 SUB SLT ISZERO PUSH2 0x4790 JUMPI PUSH1 0x0 DUP1 REVERT JUMPDEST PUSH1 0x0 PUSH2 0x4602 DUP6 DUP6 PUSH2 0x43C0 JUMP JUMPDEST PUSH1 0x0 DUP1 PUSH1 0x0 DUP1 PUSH1 0x60 DUP6 DUP8 SUB SLT ISZERO PUSH2 0x47B2 JUMPI PUSH1 0x0 DUP1 REVERT JUMPDEST PUSH1 0x0 PUSH2 0x47BE DUP8 DUP8 PUSH2 0x43C0 JUMP JUMPDEST SWAP5 POP POP PUSH1 0x20 PUSH2 0x47CF DUP8 DUP3 DUP9 ADD PUSH2 0x426F JUMP JUMPDEST SWAP4 POP POP PUSH1 0x40 DUP6 ADD CALLDATALOAD PUSH8 0xFFFFFFFFFFFFFFFF DUP2 GT ISZERO PUSH2 0x47EC JUMPI PUSH1 0x0 DUP1 REVERT JUMPDEST PUSH2 0x47F8 DUP8 DUP3 DUP9 ADD PUSH2 0x43E4 JUMP JUMPDEST SWAP6 SWAP9 SWAP5 SWAP8 POP SWAP6 POP POP POP POP JUMP JUMPDEST PUSH1 0x0 DUP1 PUSH1 0x0 PUSH1 0x60 DUP5 DUP7 SUB SLT ISZERO PUSH2 0x4819 JUMPI PUSH1 0x0 DUP1 REVERT JUMPDEST PUSH1 0x0 PUSH2 0x4825 DUP7 DUP7 PUSH2 0x43C0 JUMP JUMPDEST SWAP4 POP POP PUSH1 0x20 PUSH2 0x4836 DUP7 DUP3 DUP8 ADD PUSH2 0x426F JUMP JUMPDEST SWAP3 POP POP PUSH1 0x40 DUP5 ADD CALLDATALOAD PUSH8 0xFFFFFFFFFFFFFFFF DUP2 GT ISZERO PUSH2 0x4853 JUMPI PUSH1 0x0 DUP1 REVERT JUMPDEST PUSH2 0x470C DUP7 DUP3 DUP8 ADD PUSH2 0x442D JUMP JUMPDEST PUSH1 0x0 PUSH1 0x20 DUP3 DUP5 SUB SLT ISZERO PUSH2 0x4871 JUMPI PUSH1 0x0 DUP1 REVERT JUMPDEST PUSH1 0x0 PUSH2 0x3314 DUP5 DUP5 PUSH2 0x43CC JUMP JUMPDEST PUSH1 0x0 PUSH1 0x20 DUP3 DUP5 SUB SLT ISZERO PUSH2 0x488F JUMPI PUSH1 0x0 DUP1 REVERT JUMPDEST PUSH1 0x0 PUSH2 0x3314 DUP5 DUP5 PUSH2 0x43D8 JUMP JUMPDEST PUSH1 0x0 PUSH1 0x20 DUP3 DUP5 SUB SLT ISZERO PUSH2 0x48AD JUMPI PUSH1 0x0 DUP1 REVERT JUMPDEST DUP2 CALLDATALOAD PUSH8 0xFFFFFFFFFFFFFFFF DUP2 GT ISZERO PUSH2 0x48C4 JUMPI PUSH1 0x0 DUP1 REVERT JUMPDEST PUSH2 0x3314 DUP5 DUP3 DUP6 ADD PUSH2 0x447C JUMP JUMPDEST PUSH1 0x0 DUP1 PUSH1 0x0 DUP1 PUSH1 0x80 DUP6 DUP8 SUB SLT ISZERO PUSH2 0x48E6 JUMPI PUSH1 0x0 DUP1 REVERT JUMPDEST DUP5 CALLDATALOAD PUSH8 0xFFFFFFFFFFFFFFFF DUP2 GT ISZERO PUSH2 0x48FD JUMPI PUSH1 0x0 DUP1 REVERT JUMPDEST PUSH2 0x4909 DUP8 DUP3 DUP9 ADD PUSH2 0x447C JUMP JUMPDEST SWAP5 POP POP PUSH1 0x20 DUP6 ADD CALLDATALOAD PUSH8 0xFFFFFFFFFFFFFFFF DUP2 GT ISZERO PUSH2 0x4926 JUMPI PUSH1 0x0 DUP1 REVERT JUMPDEST PUSH2 0x4932 DUP8 DUP3 DUP9 ADD PUSH2 0x447C JUMP JUMPDEST SWAP4 POP POP PUSH1 0x40 DUP6 ADD CALLDATALOAD PUSH8 0xFFFFFFFFFFFFFFFF DUP2 GT ISZERO PUSH2 0x494F JUMPI PUSH1 0x0 DUP1 REVERT JUMPDEST PUSH2 0x495B DUP8 DUP3 DUP9 ADD PUSH2 0x442D JUMP JUMPDEST SWAP3 POP POP PUSH1 0x60 DUP6 ADD CALLDATALOAD PUSH8 0xFFFFFFFFFFFFFFFF DUP2 GT ISZERO PUSH2 0x4978 JUMPI PUSH1 0x0 DUP1 REVERT JUMPDEST PUSH2 0x4984 DUP8 DUP3 DUP9 ADD PUSH2 0x442D JUMP JUMPDEST SWAP2 POP POP SWAP3 SWAP6 SWAP2 SWAP5 POP SWAP3 POP JUMP JUMPDEST PUSH1 0x0 DUP1 PUSH1 0x0 PUSH1 0x60 DUP5 DUP7 SUB SLT ISZERO PUSH2 0x49A5 JUMPI PUSH1 0x0 DUP1 REVERT JUMPDEST DUP4 CALLDATALOAD PUSH8 0xFFFFFFFFFFFFFFFF DUP2 GT ISZERO PUSH2 0x49BC JUMPI PUSH1 0x0 DUP1 REVERT JUMPDEST PUSH2 0x49C8 DUP7 DUP3 DUP8 ADD PUSH2 0x447C JUMP JUMPDEST SWAP4 POP POP PUSH1 0x20 PUSH2 0x4836 DUP7 DUP3 DUP8 ADD PUSH2 0x43C0 JUMP JUMPDEST PUSH1 0x0 DUP1 PUSH1 0x0 DUP1 PUSH1 0x0 DUP1 PUSH1 0x80 DUP8 DUP10 SUB SLT ISZERO PUSH2 0x49F2 JUMPI PUSH1 0x0 DUP1 REVERT JUMPDEST PUSH1 0x0 PUSH2 0x49FE DUP10 DUP10 PUSH2 0x43C0 JUMP JUMPDEST SWAP7 POP POP PUSH1 0x20 PUSH2 0x4A0F DUP10 DUP3 DUP11 ADD PUSH2 0x426F JUMP JUMPDEST SWAP6 POP POP PUSH1 0x40 DUP8 ADD CALLDATALOAD PUSH8 0xFFFFFFFFFFFFFFFF DUP2 GT ISZERO PUSH2 0x4A2C JUMPI PUSH1 0x0 DUP1 REVERT JUMPDEST PUSH2 0x4A38 DUP10 DUP3 DUP11 ADD PUSH2 0x43E4 JUMP JUMPDEST SWAP5 POP SWAP5 POP POP PUSH1 0x60 DUP8 ADD CALLDATALOAD PUSH8 0xFFFFFFFFFFFFFFFF DUP2 GT ISZERO PUSH2 0x4A57 JUMPI PUSH1 0x0 DUP1 REVERT JUMPDEST PUSH2 0x4A63 DUP10 DUP3 DUP11 ADD PUSH2 0x43E4 JUMP JUMPDEST SWAP3 POP SWAP3 POP POP SWAP3 SWAP6 POP SWAP3 SWAP6 POP SWAP3 SWAP6 JUMP JUMPDEST PUSH2 0x4A7B DUP2 PUSH2 0x5721 JUMP JUMPDEST DUP3 MSTORE POP POP JUMP JUMPDEST PUSH1 0x0 PUSH2 0x4A8C DUP3 PUSH2 0x571D JUMP JUMPDEST DUP1 DUP5 MSTORE PUSH1 0x20 DUP5 ADD SWAP4 POP PUSH2 0x4A9E DUP4 PUSH2 0x5717 JUMP JUMPDEST PUSH1 0x0 JUMPDEST DUP3 DUP2 LT ISZERO PUSH2 0x4ACE JUMPI PUSH2 0x4AB4 DUP7 DUP4 MLOAD PUSH2 0x5256 JUMP JUMPDEST PUSH2 0x4ABD DUP3 PUSH2 0x5717 JUMP JUMPDEST PUSH1 0x60 SWAP7 SWAP1 SWAP7 ADD SWAP6 SWAP2 POP PUSH1 0x1 ADD PUSH2 0x4AA1 JUMP JUMPDEST POP SWAP4 SWAP5 SWAP4 POP POP POP POP JUMP JUMPDEST PUSH2 0x4A7B DUP2 PUSH2 0x573A JUMP JUMPDEST PUSH2 0x4A7B DUP2 PUSH2 0x573F JUMP JUMPDEST PUSH2 0x4A7B DUP2 PUSH2 0x5742 JUMP JUMPDEST PUSH1 0x0 PUSH2 0x4AFE DUP3 PUSH2 0x571D JUMP JUMPDEST DUP1 DUP5 MSTORE PUSH2 0x4B12 DUP2 PUSH1 0x20 DUP7 ADD PUSH1 0x20 DUP7 ADD PUSH2 0x5784 JUMP JUMPDEST PUSH2 0x4B1B DUP2 PUSH2 0x57B0 JUMP JUMPDEST SWAP1 SWAP4 ADD PUSH1 0x20 ADD SWAP4 SWAP3 POP POP POP JUMP JUMPDEST PUSH2 0x4A7B DUP2 PUSH2 0x576D JUMP JUMPDEST PUSH1 0x12 DUP2 MSTORE PUSH32 0x4C454E4754485F36355F52455155495245440000000000000000000000000000 PUSH1 0x20 DUP3 ADD MSTORE PUSH1 0x40 ADD SWAP1 JUMP JUMPDEST PUSH1 0xD DUP2 MSTORE PUSH32 0x494E56414C49445F54414B455200000000000000000000000000000000000000 PUSH1 0x20 DUP3 ADD MSTORE PUSH1 0x40 ADD SWAP1 JUMP JUMPDEST PUSH1 0xE DUP2 MSTORE PUSH32 0x4F524445525F4F56455246494C4C000000000000000000000000000000000000 PUSH1 0x20 DUP3 ADD MSTORE PUSH1 0x40 ADD SWAP1 JUMP JUMPDEST PUSH1 0x11 DUP2 MSTORE PUSH32 0x55494E543235365F554E444552464C4F57000000000000000000000000000000 PUSH1 0x20 DUP3 ADD MSTORE PUSH1 0x40 ADD SWAP1 JUMP JUMPDEST PUSH1 0x1A DUP2 MSTORE PUSH32 0x41535345545F50524F58595F414C52454144595F455849535453000000000000 PUSH1 0x20 DUP3 ADD MSTORE PUSH1 0x40 ADD SWAP1 JUMP JUMPDEST PUSH1 0x26 DUP2 MSTORE PUSH32 0x475245415445525F4F525F455155414C5F544F5F33325F4C454E4754485F5245 PUSH1 0x20 DUP3 ADD MSTORE PUSH32 0x5155495245440000000000000000000000000000000000000000000000000000 PUSH1 0x40 DUP3 ADD MSTORE PUSH1 0x60 ADD SWAP1 JUMP JUMPDEST PUSH1 0x15 DUP2 MSTORE PUSH32 0x5349474E41545552455F554E535550504F525445440000000000000000000000 PUSH1 0x20 DUP3 ADD MSTORE PUSH1 0x40 ADD SWAP1 JUMP JUMPDEST PUSH1 0x10 DUP2 MSTORE PUSH32 0x4449564953494F4E5F42595F5A45524F00000000000000000000000000000000 PUSH1 0x20 DUP3 ADD MSTORE PUSH1 0x40 ADD SWAP1 JUMP JUMPDEST PUSH1 0x17 DUP2 MSTORE PUSH32 0x494E56414C49445F4F524445525F5349474E4154555245000000000000000000 PUSH1 0x20 DUP3 ADD MSTORE PUSH1 0x40 ADD SWAP1 JUMP JUMPDEST PUSH1 0xD DUP2 MSTORE PUSH32 0x494E56414C49445F4D414B455200000000000000000000000000000000000000 PUSH1 0x20 DUP3 ADD MSTORE PUSH1 0x40 ADD SWAP1 JUMP JUMPDEST PUSH1 0x10 DUP2 MSTORE PUSH32 0x55494E543235365F4F564552464C4F5700000000000000000000000000000000 PUSH1 0x20 DUP3 ADD MSTORE PUSH1 0x40 ADD SWAP1 JUMP JUMPDEST PUSH1 0xF DUP2 MSTORE PUSH32 0x494E56414C49445F54585F484153480000000000000000000000000000000000 PUSH1 0x20 DUP3 ADD MSTORE PUSH1 0x40 ADD SWAP1 JUMP JUMPDEST PUSH1 0x11 DUP2 MSTORE PUSH32 0x494E56414C49445F5349474E4154555245000000000000000000000000000000 PUSH1 0x20 DUP3 ADD MSTORE PUSH1 0x40 ADD SWAP1 JUMP JUMPDEST PUSH1 0xE DUP2 MSTORE PUSH32 0x524F554E44494E475F4552524F52000000000000000000000000000000000000 PUSH1 0x20 DUP3 ADD MSTORE PUSH1 0x40 ADD SWAP1 JUMP JUMPDEST PUSH1 0x10 DUP2 MSTORE PUSH32 0x4641494C45445F455845435554494F4E00000000000000000000000000000000 PUSH1 0x20 DUP3 ADD MSTORE PUSH1 0x40 ADD SWAP1 JUMP JUMPDEST PUSH1 0xD DUP2 MSTORE PUSH32 0x54414B45525F4F56455250415900000000000000000000000000000000000000 PUSH1 0x20 DUP3 ADD MSTORE PUSH1 0x40 ADD SWAP1 JUMP JUMPDEST PUSH1 0x14 DUP2 MSTORE PUSH32 0x494E56414C49445F54414B45525F414D4F554E54000000000000000000000000 PUSH1 0x20 DUP3 ADD MSTORE PUSH1 0x40 ADD SWAP1 JUMP JUMPDEST PUSH1 0x1A DUP2 MSTORE PUSH32 0x41535345545F50524F58595F444F45535F4E4F545F4558495354000000000000 PUSH1 0x20 DUP3 ADD MSTORE PUSH1 0x40 ADD SWAP1 JUMP JUMPDEST PUSH1 0x21 DUP2 MSTORE PUSH32 0x475245415445525F5448414E5F5A45524F5F4C454E4754485F52455155495245 PUSH1 0x20 DUP3 ADD MSTORE PUSH32 0x4400000000000000000000000000000000000000000000000000000000000000 PUSH1 0x40 DUP3 ADD MSTORE PUSH1 0x60 ADD SWAP1 JUMP JUMPDEST PUSH1 0x11 DUP2 MSTORE PUSH32 0x5349474E41545552455F494C4C4547414C000000000000000000000000000000 PUSH1 0x20 DUP3 ADD MSTORE PUSH1 0x40 ADD SWAP1 JUMP JUMPDEST PUSH1 0x1E DUP2 MSTORE PUSH32 0x4C454E4754485F475245415445525F5448414E5F305F52455155495245440000 PUSH1 0x20 DUP3 ADD MSTORE PUSH1 0x40 ADD SWAP1 JUMP JUMPDEST PUSH1 0x17 DUP2 MSTORE PUSH32 0x494E56414C49445F4E45575F4F524445525F45504F4348000000000000000000 PUSH1 0x20 DUP3 ADD MSTORE PUSH1 0x40 ADD SWAP1 JUMP JUMPDEST PUSH1 0x1E DUP2 MSTORE PUSH32 0x4C454E4754485F475245415445525F5448414E5F335F52455155495245440000 PUSH1 0x20 DUP3 ADD MSTORE PUSH1 0x40 ADD SWAP1 JUMP JUMPDEST PUSH1 0x14 DUP2 MSTORE PUSH32 0x434F4D504C4554455F46494C4C5F4641494C4544000000000000000000000000 PUSH1 0x20 DUP3 ADD MSTORE PUSH1 0x40 ADD SWAP1 JUMP JUMPDEST PUSH1 0x12 DUP2 MSTORE PUSH32 0x494E56414C49445F46494C4C5F50524943450000000000000000000000000000 PUSH1 0x20 DUP3 ADD MSTORE PUSH1 0x40 ADD SWAP1 JUMP JUMPDEST PUSH1 0x12 DUP2 MSTORE PUSH32 0x5245454E5452414E43595F494C4C4547414C0000000000000000000000000000 PUSH1 0x20 DUP3 ADD MSTORE PUSH1 0x40 ADD SWAP1 JUMP JUMPDEST PUSH1 0x13 DUP2 MSTORE PUSH32 0x4F4E4C595F434F4E54524143545F4F574E455200000000000000000000000000 PUSH1 0x20 DUP3 ADD MSTORE PUSH1 0x40 ADD SWAP1 JUMP JUMPDEST PUSH1 0x26 DUP2 MSTORE PUSH32 0x475245415445525F4F525F455155414C5F544F5F32305F4C454E4754485F5245 PUSH1 0x20 DUP3 ADD MSTORE PUSH32 0x5155495245440000000000000000000000000000000000000000000000000000 PUSH1 0x40 DUP3 ADD MSTORE PUSH1 0x60 ADD SWAP1 JUMP JUMPDEST PUSH1 0x10 DUP2 MSTORE PUSH32 0x4F524445525F554E46494C4C41424C4500000000000000000000000000000000 PUSH1 0x20 DUP3 ADD MSTORE PUSH1 0x40 ADD SWAP1 JUMP JUMPDEST PUSH1 0xE DUP2 MSTORE PUSH32 0x494E56414C49445F53454E444552000000000000000000000000000000000000 PUSH1 0x20 DUP3 ADD MSTORE PUSH1 0x40 ADD SWAP1 JUMP JUMPDEST PUSH1 0x18 DUP2 MSTORE PUSH32 0x4E454741544956455F5350524541445F52455155495245440000000000000000 PUSH1 0x20 DUP3 ADD MSTORE PUSH1 0x40 ADD SWAP1 JUMP JUMPDEST PUSH1 0x14 DUP2 MSTORE PUSH32 0x494E56414C49445F54585F5349474E4154555245000000000000000000000000 PUSH1 0x20 DUP3 ADD MSTORE PUSH1 0x40 ADD SWAP1 JUMP JUMPDEST PUSH1 0x11 DUP2 MSTORE PUSH32 0x4C454E4754485F305F5245515549524544000000000000000000000000000000 PUSH1 0x20 DUP3 ADD MSTORE PUSH1 0x40 ADD SWAP1 JUMP JUMPDEST DUP1 MLOAD PUSH1 0x80 DUP4 ADD SWAP1 PUSH2 0x51E4 DUP5 DUP3 PUSH2 0x4AE1 JUMP JUMPDEST POP PUSH1 0x20 DUP3 ADD MLOAD PUSH2 0x51F7 PUSH1 0x20 DUP6 ADD DUP3 PUSH2 0x4AE1 JUMP JUMPDEST POP PUSH1 0x40 DUP3 ADD MLOAD PUSH2 0x520A PUSH1 0x40 DUP6 ADD DUP3 PUSH2 0x4AE1 JUMP JUMPDEST POP PUSH1 0x60 DUP3 ADD MLOAD PUSH2 0x26E7 PUSH1 0x60 DUP6 ADD DUP3 PUSH2 0x4AE1 JUMP JUMPDEST DUP1 MLOAD PUSH2 0x120 DUP4 ADD SWAP1 PUSH2 0x522F DUP5 DUP3 PUSH2 0x51D3 JUMP JUMPDEST POP PUSH1 0x20 DUP3 ADD MLOAD PUSH2 0x5242 PUSH1 0x80 DUP6 ADD DUP3 PUSH2 0x51D3 JUMP JUMPDEST POP PUSH1 0x40 DUP3 ADD MLOAD PUSH2 0x26E7 PUSH2 0x100 DUP6 ADD DUP3 PUSH2 0x4AE1 JUMP JUMPDEST DUP1 MLOAD PUSH1 0x60 DUP4 ADD SWAP1 PUSH2 0x5267 DUP5 DUP3 PUSH2 0x528D JUMP JUMPDEST POP PUSH1 0x20 DUP3 ADD MLOAD PUSH2 0x527A PUSH1 0x20 DUP6 ADD DUP3 PUSH2 0x4AE1 JUMP JUMPDEST POP PUSH1 0x40 DUP3 ADD MLOAD PUSH2 0x26E7 PUSH1 0x40 DUP6 ADD DUP3 PUSH2 0x4AE1 JUMP JUMPDEST PUSH2 0x4A7B DUP2 PUSH2 0x5767 JUMP JUMPDEST PUSH1 0x20 DUP2 ADD PUSH2 0x2E87 DUP3 DUP5 PUSH2 0x4A72 JUMP JUMPDEST PUSH2 0x100 DUP2 ADD PUSH2 0x52B3 DUP3 DUP12 PUSH2 0x4A72 JUMP JUMPDEST PUSH2 0x52C0 PUSH1 0x20 DUP4 ADD DUP11 PUSH2 0x4A72 JUMP JUMPDEST PUSH2 0x52CD PUSH1 0x40 DUP4 ADD DUP10 PUSH2 0x4AE1 JUMP JUMPDEST PUSH2 0x52DA PUSH1 0x60 DUP4 ADD DUP9 PUSH2 0x4AE1 JUMP JUMPDEST PUSH2 0x52E7 PUSH1 0x80 DUP4 ADD DUP8 PUSH2 0x4AE1 JUMP JUMPDEST PUSH2 0x52F4 PUSH1 0xA0 DUP4 ADD DUP7 PUSH2 0x4AE1 JUMP JUMPDEST DUP2 DUP2 SUB PUSH1 0xC0 DUP4 ADD MSTORE PUSH2 0x5306 DUP2 DUP6 PUSH2 0x4AF3 JUMP JUMPDEST SWAP1 POP DUP2 DUP2 SUB PUSH1 0xE0 DUP4 ADD MSTORE PUSH2 0x531A DUP2 DUP5 PUSH2 0x4AF3 JUMP JUMPDEST SWAP11 SWAP10 POP POP POP POP POP POP POP POP POP POP JUMP JUMPDEST PUSH1 0x60 DUP2 ADD PUSH2 0x5336 DUP3 DUP7 PUSH2 0x4A72 JUMP JUMPDEST DUP2 DUP2 SUB PUSH1 0x20 DUP4 ADD MSTORE PUSH2 0x5348 DUP2 DUP6 PUSH2 0x4AF3 JUMP JUMPDEST SWAP1 POP DUP2 DUP2 SUB PUSH1 0x40 DUP4 ADD MSTORE PUSH2 0x535C DUP2 DUP5 PUSH2 0x4AF3 JUMP JUMPDEST SWAP6 SWAP5 POP POP POP POP POP JUMP JUMPDEST PUSH1 0x20 DUP1 DUP3 MSTORE DUP2 ADD PUSH2 0x254E DUP2 DUP5 PUSH2 0x4A81 JUMP JUMPDEST PUSH1 0x20 DUP2 ADD PUSH2 0x2E87 DUP3 DUP5 PUSH2 0x4AD8 JUMP JUMPDEST PUSH1 0x20 DUP2 ADD PUSH2 0x2E87 DUP3 DUP5 PUSH2 0x4AE1 JUMP JUMPDEST PUSH1 0x60 DUP2 ADD PUSH2 0x53A0 DUP3 DUP7 PUSH2 0x4AE1 JUMP JUMPDEST PUSH2 0x53AD PUSH1 0x20 DUP4 ADD DUP6 PUSH2 0x4A72 JUMP JUMPDEST DUP2 DUP2 SUB PUSH1 0x40 DUP4 ADD MSTORE PUSH2 0x535C DUP2 DUP5 PUSH2 0x4AF3 JUMP JUMPDEST PUSH1 0x40 DUP2 ADD PUSH2 0x53CD DUP3 DUP6 PUSH2 0x4AE1 JUMP JUMPDEST DUP2 DUP2 SUB PUSH1 0x20 DUP4 ADD MSTORE PUSH2 0x3314 DUP2 DUP5 PUSH2 0x4AF3 JUMP JUMPDEST PUSH1 0x80 DUP2 ADD PUSH2 0x53ED DUP3 DUP8 PUSH2 0x4AE1 JUMP JUMPDEST PUSH2 0x53FA PUSH1 0x20 DUP4 ADD DUP7 PUSH2 0x528D JUMP JUMPDEST PUSH2 0x5407 PUSH1 0x40 DUP4 ADD DUP6 PUSH2 0x4AE1 JUMP JUMPDEST PUSH2 0x535C PUSH1 0x60 DUP4 ADD DUP5 PUSH2 0x4AE1 JUMP JUMPDEST PUSH1 0x40 DUP2 ADD PUSH2 0x5422 DUP3 DUP6 PUSH2 0x4AEA JUMP JUMPDEST PUSH2 0x254E PUSH1 0x20 DUP4 ADD DUP5 PUSH2 0x4A72 JUMP JUMPDEST PUSH1 0x20 DUP1 DUP3 MSTORE DUP2 ADD PUSH2 0x254E DUP2 DUP5 PUSH2 0x4AF3 JUMP JUMPDEST PUSH1 0x20 DUP2 ADD PUSH2 0x2E87 DUP3 DUP5 PUSH2 0x4B28 JUMP JUMPDEST PUSH1 0x20 DUP1 DUP3 MSTORE DUP2 ADD PUSH2 0x2E87 DUP2 PUSH2 0x4B31 JUMP JUMPDEST PUSH1 0x20 DUP1 DUP3 MSTORE DUP2 ADD PUSH2 0x2E87 DUP2 PUSH2 0x4B61 JUMP JUMPDEST PUSH1 0x20 DUP1 DUP3 MSTORE DUP2 ADD PUSH2 0x2E87 DUP2 PUSH2 0x4B91 JUMP JUMPDEST PUSH1 0x20 DUP1 DUP3 MSTORE DUP2 ADD PUSH2 0x2E87 DUP2 PUSH2 0x4BC1 JUMP JUMPDEST PUSH1 0x20 DUP1 DUP3 MSTORE DUP2 ADD PUSH2 0x2E87 DUP2 PUSH2 0x4BF1 JUMP JUMPDEST PUSH1 0x20 DUP1 DUP3 MSTORE DUP2 ADD PUSH2 0x2E87 DUP2 PUSH2 0x4C21 JUMP JUMPDEST PUSH1 0x20 DUP1 DUP3 MSTORE DUP2 ADD PUSH2 0x2E87 DUP2 PUSH2 0x4C77 JUMP JUMPDEST PUSH1 0x20 DUP1 DUP3 MSTORE DUP2 ADD PUSH2 0x2E87 DUP2 PUSH2 0x4CA7 JUMP JUMPDEST PUSH1 0x20 DUP1 DUP3 MSTORE DUP2 ADD PUSH2 0x2E87 DUP2 PUSH2 0x4CD7 JUMP JUMPDEST PUSH1 0x20 DUP1 DUP3 MSTORE DUP2 ADD PUSH2 0x2E87 DUP2 PUSH2 0x4D07 JUMP JUMPDEST PUSH1 0x20 DUP1 DUP3 MSTORE DUP2 ADD PUSH2 0x2E87 DUP2 PUSH2 0x4D37 JUMP JUMPDEST PUSH1 0x20 DUP1 DUP3 MSTORE DUP2 ADD PUSH2 0x2E87 DUP2 PUSH2 0x4D67 JUMP JUMPDEST PUSH1 0x20 DUP1 DUP3 MSTORE DUP2 ADD PUSH2 0x2E87 DUP2 PUSH2 0x4D97 JUMP JUMPDEST PUSH1 0x20 DUP1 DUP3 MSTORE DUP2 ADD PUSH2 0x2E87 DUP2 PUSH2 0x4DC7 JUMP JUMPDEST PUSH1 0x20 DUP1 DUP3 MSTORE DUP2 ADD PUSH2 0x2E87 DUP2 PUSH2 0x4DF7 JUMP JUMPDEST PUSH1 0x20 DUP1 DUP3 MSTORE DUP2 ADD PUSH2 0x2E87 DUP2 PUSH2 0x4E27 JUMP JUMPDEST PUSH1 0x20 DUP1 DUP3 MSTORE DUP2 ADD PUSH2 0x2E87 DUP2 PUSH2 0x4E57 JUMP JUMPDEST PUSH1 0x20 DUP1 DUP3 MSTORE DUP2 ADD PUSH2 0x2E87 DUP2 PUSH2 0x4E87 JUMP JUMPDEST PUSH1 0x20 DUP1 DUP3 MSTORE DUP2 ADD PUSH2 0x2E87 DUP2 PUSH2 0x4EB7 JUMP JUMPDEST PUSH1 0x20 DUP1 DUP3 MSTORE DUP2 ADD PUSH2 0x2E87 DUP2 PUSH2 0x4F0D JUMP JUMPDEST PUSH1 0x20 DUP1 DUP3 MSTORE DUP2 ADD PUSH2 0x2E87 DUP2 PUSH2 0x4F3D JUMP JUMPDEST PUSH1 0x20 DUP1 DUP3 MSTORE DUP2 ADD PUSH2 0x2E87 DUP2 PUSH2 0x4F6D JUMP JUMPDEST PUSH1 0x20 DUP1 DUP3 MSTORE DUP2 ADD PUSH2 0x2E87 DUP2 PUSH2 0x4F9D JUMP JUMPDEST PUSH1 0x20 DUP1 DUP3 MSTORE DUP2 ADD PUSH2 0x2E87 DUP2 PUSH2 0x4FCD JUMP JUMPDEST PUSH1 0x20 DUP1 DUP3 MSTORE DUP2 ADD PUSH2 0x2E87 DUP2 PUSH2 0x4FFD JUMP JUMPDEST PUSH1 0x20 DUP1 DUP3 MSTORE DUP2 ADD PUSH2 0x2E87 DUP2 PUSH2 0x502D JUMP JUMPDEST PUSH1 0x20 DUP1 DUP3 MSTORE DUP2 ADD PUSH2 0x2E87 DUP2 PUSH2 0x505D JUMP JUMPDEST PUSH1 0x20 DUP1 DUP3 MSTORE DUP2 ADD PUSH2 0x2E87 DUP2 PUSH2 0x508D JUMP JUMPDEST PUSH1 0x20 DUP1 DUP3 MSTORE DUP2 ADD PUSH2 0x2E87 DUP2 PUSH2 0x50E3 JUMP JUMPDEST PUSH1 0x20 DUP1 DUP3 MSTORE DUP2 ADD PUSH2 0x2E87 DUP2 PUSH2 0x5113 JUMP JUMPDEST PUSH1 0x20 DUP1 DUP3 MSTORE DUP2 ADD PUSH2 0x2E87 DUP2 PUSH2 0x5143 JUMP JUMPDEST PUSH1 0x20 DUP1 DUP3 MSTORE DUP2 ADD PUSH2 0x2E87 DUP2 PUSH2 0x5173 JUMP JUMPDEST PUSH1 0x20 DUP1 DUP3 MSTORE DUP2 ADD PUSH2 0x2E87 DUP2 PUSH2 0x51A3 JUMP JUMPDEST PUSH1 0x80 DUP2 ADD PUSH2 0x2E87 DUP3 DUP5 PUSH2 0x51D3 JUMP JUMPDEST PUSH2 0x120 DUP2 ADD PUSH2 0x2E87 DUP3 DUP5 PUSH2 0x521D JUMP JUMPDEST PUSH1 0x60 DUP2 ADD PUSH2 0x2E87 DUP3 DUP5 PUSH2 0x5256 JUMP JUMPDEST PUSH1 0x40 MLOAD DUP2 DUP2 ADD PUSH8 0xFFFFFFFFFFFFFFFF DUP2 GT DUP3 DUP3 LT OR ISZERO PUSH2 0x56A8 JUMPI PUSH1 0x0 DUP1 REVERT JUMPDEST PUSH1 0x40 MSTORE SWAP2 SWAP1 POP JUMP JUMPDEST PUSH1 0x0 PUSH8 0xFFFFFFFFFFFFFFFF DUP3 GT ISZERO PUSH2 0x56C7 JUMPI PUSH1 0x0 DUP1 REVERT JUMPDEST POP PUSH1 0x20 SWAP1 DUP2 MUL ADD SWAP1 JUMP JUMPDEST PUSH1 0x0 PUSH8 0xFFFFFFFFFFFFFFFF DUP3 GT ISZERO PUSH2 0x56E8 JUMPI PUSH1 0x0 DUP1 REVERT JUMPDEST POP PUSH1 0x20 PUSH1 0x1F SWAP2 SWAP1 SWAP2 ADD PUSH32 0xFFFFFFFFFFFFFFFFFFFFFFFFFFFFFFFFFFFFFFFFFFFFFFFFFFFFFFFFFFFFFFE0 AND ADD SWAP1 JUMP JUMPDEST PUSH1 0x20 ADD SWAP1 JUMP JUMPDEST MLOAD SWAP1 JUMP JUMPDEST PUSH20 0xFFFFFFFFFFFFFFFFFFFFFFFFFFFFFFFFFFFFFFFF AND SWAP1 JUMP JUMPDEST ISZERO ISZERO SWAP1 JUMP JUMPDEST SWAP1 JUMP JUMPDEST PUSH32 0xFFFFFFFF00000000000000000000000000000000000000000000000000000000 AND SWAP1 JUMP JUMPDEST PUSH1 0xFF AND SWAP1 JUMP JUMPDEST PUSH1 0x0 PUSH2 0x2E87 DUP3 PUSH2 0x5721 JUMP JUMPDEST DUP3 DUP2 DUP4 CALLDATACOPY POP PUSH1 0x0 SWAP2 ADD MSTORE JUMP JUMPDEST PUSH1 0x0 JUMPDEST DUP4 DUP2 LT ISZERO PUSH2 0x579F JUMPI DUP2 DUP2 ADD MLOAD DUP4 DUP3 ADD MSTORE PUSH1 0x20 ADD PUSH2 0x5787 JUMP JUMPDEST DUP4 DUP2 GT ISZERO PUSH2 0x26E7 JUMPI POP POP PUSH1 0x0 SWAP2 ADD MSTORE JUMP JUMPDEST PUSH1 0x1F ADD PUSH32 0xFFFFFFFFFFFFFFFFFFFFFFFFFFFFFFFFFFFFFFFFFFFFFFFFFFFFFFFFFFFFFFE0 AND SWAP1 JUMP STOP LOG2 PUSH6 0x627A7A723058 KECCAK256 SLT 0xa6 0xf5 DUP8 0xdc REVERT 0x2c 0xd SWAP6 0xc1 0xe3 PUSH21 0xDA3AB3FF4B942061A486B23D59DE5C33859FEB516C PUSH6 0x78706572696D PUSH6 0x6E74616CF500 CALLDATACOPY "
            }
        }
    },
    "sourceTreeHashHex": "0x1d76a87b5ae4d142c9c1a94a56adb29c32995ed0dc09b0a2ce3f32a18d3c64a4",
    "compiler": {
        "name": "solc",
        "version": "soljson-v0.4.24+commit.e67f0147.js",
        "settings": {
            "optimizer": {
                "enabled": true,
                "runs": 1000000
            },
            "outputSelection": {
                "*": {
                    "*": [
                        "abi",
                        "evm.bytecode.object",
                        "evm.bytecode.sourceMap",
                        "evm.deployedBytecode.object",
                        "evm.deployedBytecode.sourceMap"
                    ]
                }
            }
        }
    }
}